:020000040000FA
:1000000000000420C9020000D50200006D020000BB
:10001000D902000075020000790200000000000013
:10002000000000000000000000000000A901000026
:10003000E102000000000000410200005102000047
:100040005D12000011130000E7020000E70200004B
:10005000E7020000E7020000E7020000E7020000FC
:10006000E7020000E7020000E7020000E7020000EC
:10007000E702000031130000E7020000E50C000079
:10008000E7020000E7020000E7020000E7020000CC
:10009000E7020000E7020000E7020000E7020000BC
:1000A000E7020000E7020000E7020000E7020000AC
:1000B000E7020000E702000000000000000000006E
:1000C000E7020000E7020000E7020000E70200008C
:1000D000E7020000E7020000E7020000E70200007C
:1000E000E7020000E7020000E70200000000000055
:1000F00000000000E702000000000000E70200002E
:1001000000F002F809F01AFD0AA090E8000C824401
:100110008344AAF10107DA4501D109F00FFDAFF2DE
:10012000090EBAE80F0013F0010F18BFFB1A43F0D5
:1001300001031847541C0100741C01000A4410F804
:10014000014B14F00F0508BF10F8015B240908BF2C
:1001500010F8014B6D1E05D010F8013B6D1E01F823
:10016000013BF9D1641E03D0641E01F8015BFBD191
:100170009142E4D3704700000023002400250026AC
:10018000103A28BF78C1FBD8520728BF30C148BFFA
:100190000B6070471FB510F0FDF89DE8030000F0FC
:1001A0001DFB00F0E7FA1FBD1EF0040F0CBFEFF3BC
:1001B0000880EFF30980816911F8021C91BB01B539
:1001C00090E80F10E047BDE800508CE80300244B96
:1001D00093E80600914208BF704741B91EF0100F26
:1001E00010D12049086820F0010008600AE02CE9DD
:1001F000F00F1EF0100F08BF2CED108AC1F838C0A8
:1002000081F822E01A6092F82210906B61F0FF0EE4
:100210001EF0100F08BFB0EC108AB0E8F00F80F3AA
:1002200009887047104A13689942FAD801B552F804
:1002300021C00FC8E047BDE80050CCF8000070476F
:1002400001B50DF0BDFCBDE80140EFF3098CBEE740
:1002500001B50DF041FFBDE80140EFF3098CB6E7B1
:100260007402002034EF00E0CC0A0100102304E007
:10027000202302E0302300E040239C46F0B404AE8B
:100280007546E80801D3EFF309860E4F0FCE0FC76E
:100290000FBC0FC74046494652465B460FC71DCEAE
:1002A0003100A60A00D304316E0900D248311FC7BD
:1002B000EFF309806946EFF3148663C7604601498E
:1002C0000BF0F8FB000100200748804707488047F3
:1002D00007480047FEE7FEE7FEE7FEE7FEE7FEE72A
:1002E000FEE7FEE7FEE7FEE70D1700009DCC0000ED
:1002F00001010000704709F049BC0844401E491E36
:10030000884370470821001DF7E72DE9F0411746A3
:100310000E460446FFF7F6FFA042054633D9002FEC
:100320001CBF06F10C0009F093FC30467468F4B170
:100330002168A94217D305F1080291423CBF6168C8
:10034000416007D3626861194A602268521B0A60E3
:1003500041602560002F1CBF06F10C0009F0F8FC7D
:10036000201DBDE8F08120466468002CE0D12946BC
:10037000304600F01FFA0028D7D1002F1CBF06F12D
:100380000C0009F0E5FC0020BDE8F08110B5044642
:1003900000F007FA01682046BDE810400122B4E7EA
:1003A00070B516460D46041F002808BF70BD002E0C
:1003B0001CBF05F10C0009F04BFC2B4658680028C7
:1003C00018BFA04238BF0346F8D31968CA18A24222
:1003D00018BF5C6003D122681C4611441960216873
:1003E0000A19824218BF606004D1426862600068E6
:1003F00008442060002E1CBF05F10C0009F0A8FC89
:1004000070BD10B5044600F0CCF901682046BDE887
:1004100010400122C4E753EA020C00F069802DE984
:10042000F04B4FF00006002B1FBFB3FA83F503FA21
:1004300005F424FA05F65E4012BF1643B2FA82F5BF
:1004400002FA05F4C5F120051EBF22FA05FC44EAB4
:100450000C04203556EA044C4FEA144418BF641CBF
:100460004FF000084FF00009904271EB030C39D3B4
:10047000002919BFB1FA81F701FA07F6B0FA80F73F
:1004800000FA07F6C7F120071EBF20FA07FC46EA6C
:100490000C062037B6FBF4FCA7EB0507103F07F06E
:1004A0001F0BCBF120062CFA06F60CFA0BFB44BF0F
:1004B000B3460026202FA4BF5E464FF0000B5BEA38
:1004C000060C08BF4FF0010B19EB0B0948EB0608AF
:1004D000ABFB027C06FB02CC0BFB03CCC01B71EB1D
:1004E0000C01C1E70B46024641464846BDE8F08B89
:1004F00013B5084318BF4FF0FF300146AFF300803B
:10050000BDE81C40704770B5044685690068C106A7
:1005100001D5302600E02026C00707D070BDD4E901
:10052000012130469047206A401C20626D1EF6D59E
:1005300070BD70B5044685690078C00707D170BDED
:10054000D4E9012120209047206A401C20626D1EC2
:10055000F6D570BD70B50C46064601F14C0528462F
:1005600009F076FB214630460FF007FF0446284687
:1005700009F0EEFB204670BD10B5002000F0CAFA6D
:10058000AFF30080BDE81040012009F0F1BB10B5C9
:10059000431C02E010F8011B71B18107FAD14FF042
:1005A000013202C88C1A8C4314EAC211F9D0C01A65
:1005B0000A0603D0C01E10BDC01A10BD0A0401D027
:1005C000801E10BD0902FCD0401E10BD032A40F25F
:1005D000308010F0030C00F0158011F8013BBCF1E5
:1005E000020F624498BF11F801CB00F8013B38BFFD
:1005F00011F8013BA2F1040298BF00F801CB38BF0B
:1006000000F8013B11F0030300F02580083AC0F028
:10061000088051F8043B083A51F804CBA0E80810D0
:10062000F5E7121D5CBF51F8043B40F8043BAFF303
:100630000080D20724BF11F8013B11F801CB48BF5D
:1006400011F8012B24BF00F8013B00F801CB48BF93
:1006500000F8012B704710B5203AC0F00B80B1E8CC
:100660001850A0E81850B1E81850A0E81850203AE7
:10067000BFF4F5AF5FEA027C24BFB1E81850A0E8F0
:10068000185044BF18C918C0BDE810405FEA827C0A
:1006900024BF51F8043B40F8043B08BF7047D20721
:1006A00028BF31F8023B48BF11F8012B28BF20F8C2
:1006B000023B48BF00F8012B704702F0FF0343EAFA
:1006C000032242EA024200F00AB802F0FF0343EAC2
:1006D000032242EA024200F024B84FF0000204294B
:1006E000C0F0128010F0030C00F01B80CCF1040C61
:1006F000BCF1020F18BF00F8012BA8BF20F8022B95
:10070000A1EB0C0100F00DB85FEAC17C24BF00F83A
:10071000012B00F8012B48BF00F8012B70474FF068
:10072000000200B5134694469646203922BFA0E841
:100730000C50A0E80C50B1F12001BFF4F7AF09074D
:1007400028BFA0E80C5048BF0CC05DF804EB89003E
:1007500028BF40F8042B08BF704748BF20F8022B81
:1007600011F0804F18BF00F8012B70477047704799
:100770007047000070B5064C7C44064D7D4404E093
:100780002046016808448047241DAC42F8D170BD62
:100790004016010048160100004870473003002051
:1007A000704710B5FFF7F8FF083010BD704770476D
:1007B0007047704738B504460A4600206946AFF3D3
:1007C0000080002808BF38BD02460099204600F08E
:1007D000AFF9012038BD012000F0EAB9F8B5AFF358
:1007E0000080054600200C46102000BF0646A819D0
:1007F000A0420DD9324669460020AFF300800700C1
:1008000008BF00F0D5F90098A04218BF0546C419EA
:10081000FFF7C7FF05600746F01D20F007004619E7
:10082000284600F00AF8B44208BFF8BDA21B3146C2
:100830003868BDE8F84000F07BB900210160C0E9EC
:1008400001100C3009F032BA102070472DE9F04742
:1008500005460C46C86820F4201040F48000C860AB
:10086000800602D5084600F034F9E06841F28201C2
:100870004FF0FF390140022903D0204600F0D2F8A2
:10088000B5E000F42041B1F5004F0FD1C00306D50B
:100890006168E06A884200D80846606006E0206926
:1008A000E0626060606909F065FAA061A0680022FA
:1008B000EEB200280DDAE1688B050AD4C043A060CF
:1008C00041F490302260E0606068411C6160067015
:1008D000A5E0E0689046226040F40050E0602069A6
:1008E00068BB606909F05AFA012704F12405A0B138
:1008F000A08910F4407F08D0E069FFF747FD206130
:1009000018B1E06840F4006016E0E7612561E06836
:1009100020F4407040F480600EE0E069FFF736FD9F
:1009200000282061F1D0E06840F4006010F4407FBE
:10093000E06002D140F48070E06020696060E068AF
:1009400025696FF0010AC1051FD56168E06A884218
:1009500000D80846411B04D02246284600F06CF817
:10096000F0BBE068010203D5E562C4E9015854E038
:10097000691CE1626160E16940F48030491EC4E9AC
:10098000021030462E70BDE8F087010202D500F457
:1009900080320AE06068411C61600670E0680A2EDF
:1009A00040F48030E06006D00022E16A6068814255
:1009B00003D90B4602E00122F7E70346A7895B1B38
:1009C0007F0503D4E7699F4200DDE2B1814200D890
:1009D0000146E5620F1AC4E90158002B09DD00E069
:1009E00005E022461946284600F026F808B1484698
:1009F000C9E747B1A069E5626560C01BA061E06816
:100A000040F01000E060E068000208D56168A0696D
:100A1000E562491B08446560A0615046B3E7304673
:100A2000B1E70000C16821F4001141F08001C1600C
:100A300000218160016070472DE9F047814614462E
:100A40000E464FF0FF383248D5685769054209D045
:100A50003846A16909F0A6F9002811DB2C48C043EB
:100A60000540E5602B4632464946384609F0A0F974
:100A7000A16920F00042B21A11440028A16103D0FC
:100A80002046FFF7CFFF4046BDE8F08770B504462B
:100A90000569C06A6168884200D80846E16821F4A7
:100AA0002011E160C90312D5A84208D02246411B9B
:100AB0002846FFF7C1FF10B14FF0FF3070BD002096
:100AC000E562C4E90150E06820F48030E060002075
:100AD00070BD10B50446C06820F02000E060A16A37
:100AE000A06988420DD02046FFF7D0FFE06820F4CF
:100AF000405040F01000E060A06AA0612069E06210
:100B0000606044F24001E0688843E06010BD00008E
:100B10001000020010B500F033F8BDE8104000F0FE
:100B200029B8801A0844401E491E88431044704763
:100B300070B5144605468C464368002B18BF6345C4
:100B400038BF1846F8D302681044604508D066469E
:100B5000604604220821FFF7E4FF811B8446641AE3
:100B60002946CCF80040BDE8704000220CF104009A
:100B7000FFF716BC002801D009F0FAB87047000052
:100B800010B5002102A000F022F8012010BD0000E5
:100B9000534947414252543A2041626E6F726D612F
:100BA0006C207465726D696E6174696F6E0000000F
:100BB00010B500F025F8BDE81040FFF7DBBF10B519
:100BC000FFF7EFFD0068BDE8104000F041B870B5D8
:100BD00005460C460A2000E06D1C09F0BFF935B14E
:100BE00028780028F8D102E0641C09F0B7F914B1A4
:100BF00020780028F8D1BDE870400A2009F0AEB98D
:100C000010B5012805D0002103A0FFF7E0FF012067
:100C100010BD09A1F8E7000053494752544D454D16
:100C20003A204F7574206F662068656170206D658D
:100C30006D6F7279000000003A2048656170206D88
:100C4000656D6F727920636F727275707465640080
:100C500010B50C3009F00AF810BD000081B080B565
:100C600083B0059305AB4FF0000C0293CDF800C0A4
:100C70000AF0CEFF03B0BDE8804001B0704700002D
:100C800080B54FF6004243F6201143F62010C2F221
:100C90000302C2F20001C2F20000914218BF0846EE
:100CA0004FF60041C2F2030118BF1146FFF772FA76
:100CB00080BD000000207047002070470020704772
:100CC00000207047002070470020704700207047C8
:100CD00080B582B04FF0000CCDF800C00AF098FF4C
:100CE00002B080BD42F27870C2F2000000780028A5
:100CF00008BF70474FF20830C4F2000001210160C4
:100D000042F27460C2F200004178FF2906D042F23C
:100D10007A71C2F20001097841707047FEE7000065
:100D200080B509F097FB40F24C21C2F20001086047
:100D300080BD000080B540F24C20C2F20000006887
:100D4000C0430EF01FF880BD40F24C20C2F20000FC
:100D50004FF0FF31016070474EF60450CEF20000B4
:100D60004FF000610160704710B540F24C24C2F2B0
:100D700000044FF0FF32226009F06CFB2060C0439A
:100D80000EF000F810BD00007047000080B540F282
:100D90003112C8F2010201460FF0DAF980BD0000FD
:100DA00080B540F23812C8F201020FF0D1F980BDCF
:100DB00080B540F23312C8F201020FF0C9F980BDCC
:100DC00080B540F23212C8F201020FF0C1F980BDC5
:100DD00080B50DF021FA0FF023F980BD2DE9F04F19
:100DE00089B04FF0000801244FF480760827CDE940
:100DF000068804E06400013F06F1040610D0B5B295
:100E000028460BF093FE0028F4D020460BF0B8FEE5
:100E10000028EFD028460BF049FE48EA0408E9E72D
:100E20004FF4BE700BF082FE40B14FF4BE700BF079
:100E30003DFE06A848F000480BF020FE5FEA08607F
:100E40001CD00127002404E00134082C4FEA470796
:100E500014D017EA080FF7D020460BF071FE0546B4
:100E600020460BF077FE0646204609F077F9002869
:100E7000EAD00246284631469047E5E7B8F1FF3F01
:100E800002DD09B0BDE8F08F42F6C80A4FF0000855
:100E90004FF0FF30C2F2000A6C4606AD4FF0000979
:100EA000CDE90488CDE9020009E000BF4FF0000958
:100EB0004FF000085FEA09604FF00009E1D00AEB4B
:100EC000080090F86060FF2E48D006F03F073846D3
:100ED00002A90BF049FB002840D0384609F068F918
:100EE00009F03CF90321B1EB961F834602D0BBF118
:100EF000000F33D04FEA961ABAF1030F03D13846E8
:100F000004A90BF03BFB38460BF044FD064638467F
:100F100029460BF029FBB11EB1FA81F14909F21EF5
:100F20000028B2FA82F208BF5109012911D1BAF1A1
:100F3000030F08D102213846022E08BF03210BF00F
:100F400039FC09F10109BBF1000F02D038465146C6
:100F5000D84742F6C80AC2F2000A00BF08F10108E9
:100F6000B8F1040FABD15FEA09609FD020460BF0C7
:100F700085FD002054F8201055F82020914203D11F
:100F800001300228F6D191E7DDE90010CDE9061025
:100F9000DDE90410CDE902108AE700004EF60450A6
:100FA000CEF200000068102101EA106070470000D6
:100FB000EFF3108000281CBF01207047EFF3118071
:100FC000002818BF01207047EFF3108000281CBFD5
:100FD00001207047EFF31180002818BF01207047EF
:100FE000EFF3108000281CBF01207047EFF3118041
:100FF000002818BF01207047EFF3108000281CBFA5
:1010000001207047EFF31180002818BF01207047BE
:10101000EFF3108000281CBF01207047EFF3118010
:10102000002818BF01207047EFF30580002818BF83
:1010300001207047EFF30580002818BF012070479A
:10104000EFF30580002818BF01207047EFF30580FB
:10105000002818BF01207047EFF30580002818BF53
:1010600001207047EFF31480012121EA000070474E
:10107000B0B500F095F840F26024C2F200040125FA
:101080006572BFF34F8FFFF789FF002808BFB0BD1F
:10109000FFF762FEA572B0BD80B540F26020C2F2DB
:1010A000000000214172BFF34F8F827A12B181722A
:1010B00000F00CFB00F07EF880BD00000844704793
:1010C0007047000010B50446283008F0CFFF58B133
:1010D000E46A4CB1A01C09F027F818B1A468002CF0
:1010E000F8D10024204610BD0024204610BD000089
:1010F00010B584465CF8303F5BB191F803E0DA78D4
:1011000072450BD21A465B686BB1DC787445F9D333
:1011100005E00022C1E90122C1620DE00022C1E91F
:101120000132083303E0C1E9013200F12C031960F8
:10113000002A18BF02F1040C2830CCF8001008F087
:10114000CDFF10BDD1E9012C02F10803002A08BF30
:1011500000F12C03C3F800C0D1E90112131D002ACD
:1011600008BF00F1300319607047000040F2000131
:10117000C2F2000101EB8000006C704740F20002F7
:10118000C2F2000202EB80000164704780B540F2B9
:101190003850C2F20000006807F098FD80BD0000E2
:1011A00080B540F23850C2F20000006807F0EAFC57
:1011B00080BD000080B507F0E3FB07F0D5FC80BDE3
:1011C00080B507F065FD80BDB0B5B0F57A7F15D16B
:1011D0000D4607F05DFD044600F0AAFE20462946B4
:1011E000FFF7CCFF2046FFF7C1FFA8420ED1002C2D
:1011F00002D4204600F02AFE0020B0BD41F6A8012E
:1012000006A0C0F2010132220AF004FB41F6A80157
:1012100006A0C0F201013F220AF0FCFA6672657175
:10122000203D3D20313030300000000068616E64A8
:101230006C6572203D3D202849525148616E646CB6
:1012400065725F74294E5649435F476574566563FE
:10125000746F7228697271290000000010B50BF0DC
:101260000FFD044640070AD54FF484700BF0FCFCD8
:1012700028B142F62830C2F2000000688047A0067C
:101280000BD54FF48A700BF0EFFC30B142F6BC3056
:10129000C2F2000001680020884760060BD54FF4B9
:1012A0008C700BF0E1FC30B142F6BC30C2F20000B1
:1012B00001680120884720060BD54FF48E700BF093
:1012C000D3FC30B142F6C830C2F200000168002001
:1012D0008847E0050BD54FF490700BF0C5FC30B19A
:1012E00042F6C830C2F20000016801208847A0051C
:1012F0000DD54FF492700BF0B7FC002808BF10BD5D
:1013000042F6C830C2F2000001680220884710BDD2
:1013100080B540F20530C2F20000007843F27C4113
:10132000C2F2000151F82000002818BF804780BD9C
:1013300080B50BF0C7FC0BF0D1FC42F6B831C2F21D
:1013400000010968884780BD80B50DF02FFD4FF47E
:10135000A2700BF0FFFC002842F6C400C2F20000AD
:1013600003D10178002908BF80BD017800291CBF86
:10137000002101700AF07AF980BD0000F0B581B05B
:10138000144640F29032C2F2000212780D46002A52
:10139000064608BF00F0FAFAEFF311874FF020017C
:1013A00081F3118830462946224600F005F887F37C
:1013B000118801B0F0BD000070B50D4640F29031CB
:1013C00000EB4000C2F2000101EBC001C86A144604
:1013D000022801F118060AD001280ED020B93046A3
:1013E00000F01EFBA0420ED20024204670BD304605
:1013F0002946224600F06AFC70BD304600F010FB22
:10140000A04238BF044630462946224600F092FCEE
:10141000204670BD82B080B582B0CDE9042304AA15
:10142000019201AA00F006F802B0BDE8804002B0C7
:10143000704700002DE9F04F97B0804602A8934610
:101440000E46129040204FF0000912AF4FF0080AEC
:101450001390CDF85880CDE914990AE0002900F0E6
:10146000E680384600F012FC1598B0F1FF3F40F3DB
:10147000DE8016F8011B2529F0D1002502E0013697
:101480000020F8B93078A0F123010D294FF00100B8
:10149000F7D8DFE801F009070707070707070C0778
:1014A0000F070713EDE700BF45F00805E7E745F034
:1014B0000405E4E745F00105E1E700BF45F002055A
:1014C000DDE700BF30780023A0F1300109290ED8F4
:1014D000014600BF16F8010F03EB830201EB420146
:1014E000A1F13003A0F130010A290146F2D32E28E0
:1014F00014D116F8010F0024A0F1300109290FD8EA
:1015000004EB840100EB410116F8010FA1F1300456
:10151000A0F130020A2AF3D302E000BF002400BF8A
:10152000013616F8010C253853283FF69DAFDFE849
:1015300000F0362B2B2B2B2B2B2B2B2B2B2B2B2B56
:101540002B2B2B2B2B2B2B2B2B2B2B2B2B2B2B2BEB
:101550002B2B2B2B2B2B2B2B2B2B2B2B2B2B2B2BDB
:101560002B2B2B2B2B2C2B2B2B2B2B2B2B2B2B2BCA
:1015700039402B2B2B2A2B2B2B2A2B2B2B4C2B2B79
:101580005C2B702B2B2CCBE76EE7DBF800001022D6
:10159000011DCBF8001001680093384642E0384640
:1015A00025215FE7DBF80000011DCBF80010017872
:1015B00057E7DBF800002246011DCBF80010016858
:1015C0003846009500F05AFA4EE7DBF8000010228A
:1015D000011DCBF80010016838460823CDF800A0A3
:1015E000CDF8049000F0D2FA3EE7DBF80000011DD0
:1015F000CBF80010046800BF217800293FF434AF15
:101600003846013400F042FB1598B0F1FF3FF3DC9F
:101610002AE7DBF800000A22011DCBF80010016860
:10162000384600932346019500F0B0FA1CE7159D5B
:10163000012D08DB149C24B102A940462246FFF785
:101640009DFE60191590159817B0BDE8F08F000049
:1016500080B542F62C30C2F200000068804780BDA1
:1016600080B542F63430C2F200000068804780BD89
:1016700080B542F63C30C2F200000068804780BD71
:1016800080B542F63410C2F2000000F16C014FF256
:101690000000C4F2020009F0F3FE80BDB0B54EF6C2
:1016A0002254CEF20004FF202070207880F0FF004A
:1016B000B0FA80F0C0F1200508F098F9A84228BFE0
:1016C000451CFE20A84004F8030CB0BD4EF60450A3
:1016D000CEF200004FF08051016070474EF604508A
:1016E000CEF200004FF0805101607047C0064FF00D
:1016F000200058BF6020704740F2002049F20001EE
:10170000C2F20000C0F2D03101607047B0B540F2C3
:101710000414C4F2000408F061FF20B10020A060AE
:10172000E060C4F8340440F25825C1F2000508F026
:1017300063FFB0B3D5F8AC114CF22050C4F20000F6
:101740000160D5F8B0114160D5F8B4118160D5F8C9
:10175000B811C160D5F8BC110161D5F8C011416163
:10176000D5F8C4110162D5F8C8114162D5F8CC1181
:101770008162D5F8D011C162D5F8D4110163D5F8D2
:10178000D8114163D5F8DC110164D5F8E01141644A
:10179000D5F8E4118164D5F8E811C164D5F8EC11ED
:1017A000016508F037FF40B145F28C6048F24811FE
:1017B000C4F20000C0F20301016008F0C3FE28B1CA
:1017C0004FF21850C4F20000FB21016008F0C8FE7F
:1017D00048B140F6E460C4F2000001682A680909D3
:1017E00061F31F12026008F0C9FE30B149F2406097
:1017F000C4F202004FF40071016008F0CDFE002831
:101800004EF688551FBFD4F8FC025FEAC0706FF037
:101810000100C4F8FC02CEF20005296841F2002064
:1018200041F470012960BFF34F8FC1F20000BFF394
:101830006F8F016800292DD44168B1F1FF3F29DD88
:10184000FFF75AFF01200021C4F81404216044F876
:10185000FC0C00BF20680028FCD0686F40F080704E
:10186000686740F25C50C4F20000016841F48031C6
:101870000160016841F00301016040F24870C5F267
:10188000000040F2013101601020CEF2040000217E
:101890000160B0BD4EF20041C4F201010122C1F865
:1018A00004210A68002AFCD0122202600A68002A79
:1018B000FCD01222426008680028FCD00020C1F849
:1018C000040108680028FCD008F0D4F880B593071C
:1018D00006D4D20700F1280015D108F09BFB80BD8B
:1018E000836A02F0010203EA010040EA020C884226
:1018F000184618BF0020002A08BF1846BCF1000F88
:1019000008BF604680BD08F071FB80BD10B540F295
:10191000602CC2F2000CDCF84430FBB11A698A4238
:1019200006D9B3FA83F24FEA521E00240BE000BF3F
:101930001C46DB68891A93B11A699142F8D2B3FA4E
:1019400083F24FEA521EBEF1000FC0E9024301616B
:1019500008D11A699860511A196103E00024C0E99E
:101960000243016104F10C01002C08BF0CF1440199
:10197000086010BDC16800291CBF82688A60C06809
:1019800040F26021C2F200014864704780B540F225
:101990009030C2F200000221002340F6D43240F21F
:1019A0004C5E8362C0E9041140F23C51C0F2010276
:1019B000C2F2000E4FF4805CC2F20001C0E9062EB4
:1019C000C0E908C3C362C0E9122145F252414FF099
:1019D000100CC0F25401C0F850C04365C0E9163382
:1019E000C0F8071044F24751C0F25201C0F803108A
:1019F00044F25351C4F2477101602021817180BDCE
:101A000080B508F05DF880BD80B508F077F880BD3E
:101A100080B508F05DF808F07BF808F085F880BD27
:101A2000C268016991428FBFD0438068D24311449C
:101A30000844704780B507F0A5FF80BD80B507F06A
:101A40006DFF07F0B3FF80BD80B507F077FF07F0AB
:101A5000B5FF80BD10B5044607F078FF204607F0BB
:101A6000B5FF10BD80B507F0D1FF80BD80B507F090
:101A7000D5FF80BD80B507F0D9FF80BD2DE9F04FBF
:101A800083B08A460546BAF1000F50469146C1F12F
:101A9000000148BF08460A284FF0010702910CDBFD
:101AA00046F26761C6F2666150FB01F2941063284A
:101AB00004EBD27007F10107F6DC0C9E4F4538BFEE
:101AC0004F464FF0000443B106F00400BAF1000F96
:101AD00048BF012444EA90001C1AB9F1000F06F037
:101AE000020B02D1BBF1000F13D1F00711D184B169
:101AF000B846BC4238BFA046A74209D2284620219A
:101B0000013C00F0C3F8E868B0F1FF3FF4DC00E00E
:101B10004446E86800281DD4BAF1000F03D47007CA
:101B200007D52B2102E0DDF808A02D21284600F082
:101B3000ADF8E86800280DD4BBF1000F0DD1E868BE
:101B4000002807D4284651460A224B4600940196A5
:101B500000F01CF803B0BDE8F08F06F0010050EA79
:101B60000900ECD1002CEAD0B846BC4238BFA046F0
:101B7000A74209D228463021013C00F087F8E868E6
:101B8000B0F1FF3FF4DCDAE74446D8E72DE9F04F47
:101B900081B08B46DDE90AA11F4615469345814673
:101BA0004FF0010405D35846B0FBF5F00134A842CC
:101BB000FAD2BC4238BF3C46BAF1000F01F0010036
:101BC00000901ED0E8B988074FF0200848BF4FF0BA
:101BD0003008002F26464FF0200018BF804654459D
:101BE00088BF564654450BD248464146AAF1010AE1
:101BF00000F04CF8D9F80C00B0F1FF3FF2DC00E047
:101C0000B246D9F80C00002824D4012602E000BF17
:101C1000013F6E43022FFBD2BBFBF6F0A842F8D285
:101C20000FF25808BBFBF6F7484618F8071000F00B
:101C30002DF8D9F80C00002806D4B6FBF5F007FB08
:101C400016BBAE420646EDD20098002818BFBAF186
:101C5000000F02D101B0BDE8F08F0AF1010500BF0D
:101C6000013DAC42F6D24846202100F00FF8D9F8E9
:101C70000C00B0F1FF3FF3DCECE700BF3031323352
:101C800034353637383941424344454610B5D0E9FA
:101C900001320446501C984205D823689954E168E3
:101CA000A060481CE060D4E90102824218BF10BD68
:101CB00021682069FFF762FBA168884202D10020F9
:101CC000A06010BD4FF0FF30E06010BD2DE9F04383
:101CD00081B0C76814460D4680464FF000091EE0EB
:101CE000D8F80810FA4310440844D8E90121CE1B63
:101CF000B04238BF0646A64228BF2646D01929461C
:101D00003246FEF763FCD8F80800F119A41B0F1A3D
:101D1000B144354418BF0F46C8F80C702CB1D8F840
:101D20001000B842DCD9F943DEE7484601B0BDE80F
:101D3000F08300002DE9F04104468068E66888469B
:101D40006168871B1546974201EB060007D941469B
:101D50002A46FEF73BFC3544E560BDE8F08141468C
:101D60003A46FEF733FCED1B606808EB07012A4694
:101D7000FEF72CFCE560BDE8F081000000687047CC
:101D80000160704780B590F90000421C06D011B187
:101D900000F07EF880BD00F0DDF880BD02A008A153
:101DA000212209F037FD00BF6F626A2D3E70696E17
:101DB00020213D202850696E4E616D65294E4300FB
:101DC0002E2F6D6265642D6F732F74617267657459
:101DD000732F5441524745545F4E4F524449432F4D
:101DE0005441524745545F4E524635785C6770699E
:101DF0006F5F6F626A6563742E68000010B50446F9
:101E000005F0FAFF002818BF10BD204606F0D0F8F4
:101E100040F24821C2F20001002808BF084610BD68
:101E200080B509F04FFB002818BF012080BD0000DD
:101E300080B543F27070C2F200000068002808BF4D
:101E400080BD4FF0FF310BF0EDFB80BD002848BF97
:101E5000704700F01F01012202FA01F14EF2001258
:101E60004009CEF2000242F82010704710B5044637
:101E70000020FEF769FF04F114000C21FEF750FF6B
:101E800020682189FEF74CFFFEF754FF10BD0000CB
:101E900080B582B0019001A800F0BCFB019901223D
:101EA00002FA01F100F0AEFB02B080BD80B543F252
:101EB0007070C2F200000068002818BF0BF0FCFB35
:101EC00080BD000080B50BF03DFB41F67171C0F2A2
:101ED0000001002206F0E8FD10F1020F02D20BF023
:101EE00007FB80BD41F6A80102A0C0F201018B22D0
:101EF00009F090FC7469636B735F736C6570742098
:101F00003C2072746F733A3A4B65726E656C3A3A64
:101F1000776169745F666F725F7533325F6D617888
:101F2000000000000078FF3818BF01207047000053
:101F30004EF6145200F00F01CEF20002114400F1EF
:101F40006042B0F1FF3F4FF0E000C8BF02F56441CE
:101F50000870704780B582B0019001A800F05AFB6C
:101F60000199012202FA01F100F050FB02B080BD9C
:101F700040F26020C2F20000807A002818BF0120E1
:101F8000704700002DE9F04381B043F29044C2F263
:101F90000004204603F056FF204603F0B7FD40F64C
:101FA000F43141F210720446C0F20101C0F20102A4
:101FB00000200025FFF72EFA0FF2B851002022462C
:101FC000FFF728FA40F6DD31C0F201010020FFF7EB
:101FD00021FA042C00F2CC81DFE814F09000DD003F
:101FE0002A017901050040F6F43141F21072C0F285
:101FF0000101C0F201020020FFF70CFA0FF2845138
:102000000020FFF707FA40F6DD31C0F201010020A1
:10201000FFF700FA43F29040C2F2000003F0FAFC2E
:10202000002854D043F29045C2F20005284602F041
:10203000A5F80646284602F03FFE002E054600F0B1
:102040003882012E40F0948140F6F43841F2107944
:10205000C0F20108C0F20109002041464A46FFF7DC
:10206000D9F941F2ED51C0F201010020FFF7D2F998
:1020700040F6DD36C0F2010600203146FFF7CAF90E
:1020800043F29047C2F20007384602F0BFF9002041
:1020900041464A46FFF7BEF941F20951C0F201013B
:1020A0000020FFF7B7F900203146FFF7B3F93846B3
:1020B00003F08AF9002800F03D8243F29045C2F215
:1020C00000052846022103F035FC284642E040F690
:1020D000F43141F21072C0F20101C0F2010200209D
:1020E000FFF798F90FF2D8410020FFF793F940F677
:1020F000DD31C0F201010020FFF78CF940F6F43128
:1021000041F21072C0F20101C0F201020020FFF79B
:1021100081F941F27951C0F201010020FFF77AF90B
:1021200040F6DD31C0F201010020FFF773F943F200
:102130009040C2F2000002F023FD78B143F29040DB
:10214000C2F2000003F0DEFC01280AD143F2904005
:10215000C2F2000002F0B0FD054609E10FF274453D
:1021600003E041F21775C0F2010540F6F43141F287
:102170001072C0F20101C0F201020020FFF74AF91B
:1021800000202946FFF746F940F6DD31C0F2010193
:102190000020FFF73FF940F6F43141F21072C0F22F
:1021A0000101C0F201020020FFF734F941F295412C
:1021B000C0F201010020FFF72DF940F6DD31C0F239
:1021C00001010020FFF726F943F29040C2F200001F
:1021D00002F0AEFEB0B143F29040C2F2000002F055
:1021E0006BFD40F6F43141F210720546C0F2010178
:1021F000C0F201020020FFF70DF941F25D61C0F26B
:102200000101ABE040F6F43141F21072C0F201017D
:10221000C0F201020020FFF7FDF8F3A10020FFF754
:10222000F9F840F6DD31C0F201010020FFF7F2F8C5
:1022300040F6F43141F21072C0F20101C0F2010225
:102240000020FFF7E7F841F2B351C0F2010100208E
:10225000FFF7E0F840F6DD31C0F201010020FFF7A2
:10226000D9F843F29040C2F2000002F01DFC78B1B0
:1022700043F29040C2F2000003F040FC01280CD170
:1022800043F29040C2F2000002F0E6FC05466FE027
:1022900041F2A265C0F2010503E041F23275C0F2DD
:1022A000010540F6F43141F21072C0F20101C0F2B2
:1022B00001020020FFF7AEF800202946FFF7AAF838
:1022C00040F6DD31C0F201010020FFF7A3F840F62F
:1022D000F43141F21072C0F20101C0F2010200209B
:1022E000FFF798F841F2CF41C0F201010020FFF75B
:1022F00091F840F6DD31C0F201010020FFF78AF8C5
:1023000043F29040C2F2000002F006FDB0B143F289
:102310009040C2F2000002F09FFC40F6F43141F21E
:1023200010720546C0F20101C0F201020020FFF761
:1023300071F841F27361C0F201010FE040F6F4312F
:1023400041F21072C0F20101C0F20102002000252A
:10235000FFF760F841F28961C0F201010020FFF748
:1023600059F840F6DD31C0F201010020FFF752F8C4
:1023700043F29040C2F2000002F09EFCA84242D11B
:102380003CB343F29040C2F20000002103F00AFB8C
:1023900040F6F43141F210720646C0F20101C0F27B
:1023A00001020020FFF736F841F2E13041F23B41F3
:1023B000C0F20100C0F20101002E18BF014600204A
:1023C000FFF728F840F6DD31C0F201010020FFF7E9
:1023D00021F840F6F43141F21072C0F20101C0F26E
:1023E00001020020FFF716F841F2DC61C0F20101A2
:1023F00000202A46FFF70EF840F6DD31C0F2010159
:102400000020FFF707F843F29040C2F2000002F00C
:1024100023FCA84243D1022C27D043F29040C2F2C1
:102420000000022103F0BEFA40F6F43141F21072CE
:102430000446C0F20101C0F201020020FEF7EAFFEB
:1024400041F20E4041F26841C0F20100C0F20101C8
:10245000002C18BF01460020FEF7DCFF40F6DD31FE
:10246000C0F201010020FEF7D5FF40F6F43141F241
:102470001072C0F20101C0F201020020FEF7CAFF93
:1024800041F2F361C0F2010100202A46FEF7C2FFCB
:1024900040F6DD31C0F201010020FEF7BBFF43F240
:1024A0009040C2F2000003F035FB284601B0BDE8C1
:1024B000F08340F6F43841F21079C0F20108C0F21E
:1024C0000109002041464A46FEF7A4FF41F225617A
:1024D000C0F201010020FEF79DFF40F6DD36C0F29C
:1024E000010600203146FEF795FF43F29047C2F205
:1024F0000007384601F076FE002041464A46FEF7C6
:1025000089FF41F24151C0F201010020FEF782FF34
:1025100000203146FEF77EFF384602F015FEC8B1B6
:1025200043F29045C2F200052846022103F0CAF9A1
:102530002846A9E640F6F43141F21072C0F20101DA
:10254000C0F201020020FEF765FF41F2B661C0F261
:10255000010103E740F6F43141F21072C0F20101CB
:10256000C0F201020020FEF755FF41F2C961C0F23E
:102570000101F3E653746172747570204D6F6465E8
:10258000202575003D3D3D3D3D3D3D3D3D3D3D3DB5
:102590003D3D3D3D3D3D3D3D3D2055504752414433
:1025A000455F4D4F4445203D3D3D3D3D3D3D3D3D1D
:1025B0003D3D3D3D3D3D3D3D3D3D3D3D000000003F
:1025C000555047524144455F4D4F44452045525276
:1025D0004F5200004D41494E5F52554E5F4D4F44A2
:1025E00045204552524F52004D41494E5F524F4C8B
:1025F0004C4241434B5F4D4F4445204552524F5250
:1026000000000000C0F8081570470000C0F80C1565
:10261000704700000168202931BF4FF0A04001F051
:102620001F01016040F2003028BFC5F20000704772
:1026300080B50A2007F022F94FF0FF3101604160B8
:10264000018180BD80B50CF087FC80BD80B540F273
:102650001841C2F200010968002918BF884780BDEF
:10266000000E704720F07F407047000080B5006882
:102670000168C968884780BDB0B582B0D0F800E075
:102680009446DEF80020406854690A1A0025009339
:102690007046614600230195A047002818BF03201B
:1026A00002B0B0BD10B5044600680168896888476B
:1026B00000281CBF012010BD20680168896B884775
:1026C0002168A0600A680846526A90472168E06065
:1026D0000A680846926A9047216820610A6808469D
:1026E000D26A90476061002010BD000080B582B0C2
:1026F000D0E9003C40691A68D2F81CE0A1EB0C025A
:1027000000210090184600230191F047002818BFCF
:102710000120400002B080BDB0B582B0D0F800E02A
:102720009446DEF80020406894690A1A0025009358
:102730007046614600230195A047002818BF01207C
:10274000800002B0B0BD0000C0E900127047000078
:102750002DE9F04788B0044600260DF110084FF02F
:1027600001090DF11E0A42F20E77002540460122B2
:10277000002307F063F8049806F078FB2046052153
:102780004FF0FF324FF0FF33CDE90066CDF808A0DF
:10279000CDF80C9000F00AF99DF81E00BD4200F043
:1027A000010003D8002805F10105DFD180F0010008
:1027B00008B0BDE8F0870000B0B586B0044600253B
:1027C00001200DF116010095CDE9021020460521EA
:1027D0004FF0FF324FF0FF33ADF81650019500F087
:1027E000E5F8204666214FF0FF324FF0FF33CDE988
:1027F00000550295039500F0D9F8204699214FF035
:10280000FF324FF0FF33CDE900550295039500F0FC
:10281000CDF82046FFF79CFF80F00100404206B053
:10282000B0BD000070B586B0002606214FF0FF3223
:102830004FF0FF3304464FF0FF35CDE900660296B6
:10284000039600F0B3F82046FFF782FFA8B10DF120
:1028500016000125CDE900660290204605214FF0C3
:10286000FF324FF0FF33ADF81660039500F09EF88D
:102870009DF81600C0F34000451E284606B070BD06
:1028800080B5043005F078FD002080BDB0B586B07D
:102890000446032005A900250095CDE90210204635
:1028A0009F214FF0FF324FF0FF33019500F07EF88B
:1028B0009DF81400BF280ED12046FFF7B3FF204635
:1028C00098214FF0FF324FF0FF33CDE900550295CC
:1028D000039500F06BF8002006B0B0BD2DE9F04381
:1028E00081B00646D0F86C01351DC70828469146D0
:1028F000884605F0B1FC2846414605F05DFCD6F857
:1029000060016FF0070101EBC006002E16D4DDE96F
:10291000088400BFC6F1200128FA06F004FA01F18C
:102920000843B6F1200158BF24FA01F0C1B228468D
:1029300005F042FC083EB6F1FF3FEBDCDDE90A683A
:1029400037B100BF2846002105F036FC013FF9D120
:1029500056EA08000FD00024002700BF28460021B7
:1029600005F02AFC09F80400013447F10007A01B18
:1029700077EB0800F2D3284605F0DCFC002001B01C
:10298000BDE8F08380B584B040F6FF739A434FF002
:10299000000C0023CDE900CCCDF808C0CDF80CC068
:1029A00000F004F8002004B080BD00002DE9F04FD5
:1029B00081B0041D07460D9EDDF828A0D0F86C916B
:1029C00020461D4690468B4605F046FC204659465B
:1029D00005F0F2FB08EA0500013027D0D7F86001C6
:1029E0006FF00701B34601EBC006002E4FEAD9078E
:1029F00014D400BFC6F1200128FA06F005FA01F14F
:102A00000843B6F1200158BF25FA01F0C1B22046B3
:102A100005F0D2FB083EB6F1FF3FEBDC5E462FB17E
:102A20002046002105F0C8FB013FF9D1DDE90B2369
:102A300020465146009605F09FFB204605F07AFCA3
:102A4000002001B0BDE8F08F2DE9F04381B00646CB
:102A5000D0F86C01351DC70828469146884605F018
:102A6000FBFB2846414605F0A7FBD6F860016FF056
:102A7000070101EBC006002E16D4DDE9088400BF73
:102A8000C6F1200128FA06F004FA01F10843B6F174
:102A9000200158BF24FA01F0C1B2284605F08CFB92
:102AA000083EB6F1FF3FEBDCDDE90A6837B100BF55
:102AB0002846002105F080FB013FF9D156EA0800C5
:102AC0000ED00024002700BF19F80410284605F096
:102AD00073FB013447F10007A01B77EB0800F3D329
:102AE000284605F027FC002001B0BDE8F083000077
:102AF00010B584B0DDF818C0DDE9081E0824C0F860
:102B00006C41CDE9002302915A216246CDF80CE0D8
:102B1000FFF7E4FE002004B010BD000070B59CB0CB
:102B2000DDE920640DF1600C8CE84E00D4E9002151
:102B300005460020CDE9021004A918A80023009141
:102B400006F0CEFC18B14FF0FF301CB070BD05F19F
:102B5000680604A8314605F097F90028F3D404A8C4
:102B6000314605F095F90028EDD4032005F158030E
:102B70000221202207C3616804AE304605F03EF909
:102B8000C5F850013046214605F096FA0028DAD4FF
:102B900020692866284600F003F800201CB070BDAC
:102BA000014600220020C1F86421704770B590B042
:102BB000044640F21C40C2F2000006F06BFA06F038
:102BC000B7F994F87401002804BF0020C4F870011C
:102BD000D4F87001411CC4F8701158B1002540F2BE
:102BE0001C40C2F2000006F055FA06F0C3F9284670
:102BF00010B070BD2046FFF7DFFD013067D04FF207
:102C00005E052046CFF6FF75FFF740FE2046FFF732
:102C10009FFD00285ED00020264642F6F12246F8AD
:102C2000680FE066C4E92000C0F200020CA821464B
:102C3000002305F0A1FE0CAB0FCB009605F07AF84F
:102C40000028CCD442F6F122C0F2000208A82146A6
:102C5000002305F091FE08AB0B980ECB00902046A8
:102C60000196FFF75BFF0028B9D442F6F122C0F2CB
:102C7000000204A82146002305F07EFE04AB0FCB22
:102C8000009605F00DF90028A9D4D4F86801D4E91C
:102C90001C12C4F86C01012084F874010120C0F2F8
:102CA0000010081A72F100004FF0000597D320467B
:102CB000B7214FF0FF324FF0FF33CDE900550295B9
:102CC0000395FFF773FE0420C4F8600187E76FF4F3
:102CD0007A6584E7013D82E72DE9F04784B0044638
:102CE00090F8740148B340F21C48C2F20008DDE9D4
:102CF0000CA940461D4617460E4606F0CBF906F0D5
:102D000017F9D4F86401A16DC4F86C01204632466D
:102D1000CDE90075CDF808A0CDF80C90FFF7DEFDE9
:102D2000D4F86801C4F86C01404606F0B3F906F027
:102D300021F9002004B0BDE8F0876FF47A6004B098
:102D4000BDE8F0872DE9F04F89B0054690F8740191
:102D5000002800F0A98017464FF25B0805F16802D1
:102D6000384619469B46CFF6FF7805F053F8002801
:102D700000F19C800646DDE91202C419D5E91C0168
:102D800042EB0B09001B71EB09000892C0F08E802A
:102D900005F1800A0AEB0600296890F83400096BF7
:102DA000079028463A465B46884702460B46384617
:102DB0005946FDF730FB52EA030077D12868621EBE
:102DC000016B69F100032846CDF814A0884702463C
:102DD0000B4620464946FDF71EFB52EA030065D12B
:102DE000DDE9129050EA09005AD0079C08F1020868
:102DF000CDF81080CDE9007B0296CDE90664089EEF
:102E00000599E0B24A463346039105F00DF905EB0A
:102E10008000D0F81841D0F8288140F21C40C2F25E
:102E2000000006F037F906F083F82846FFF7FAFCB1
:102E300000283FD1284621463A465B46FFF7A2FDCF
:102E400017EB08074BF1000BB9EB080966F1000618
:102E500059EA060A089610D0069EDDF8108005EBA8
:102E6000C600D0E93201079CC01B71EB0B0008D2F1
:102E70000136A81990F8B44003E0DDF81080DDE9D0
:102E800006642846FFF764FCB0B140F21C40C2F271
:102E9000000006F0FFF806F06DF8BAF1000FA9D1B6
:102EA00000204FF0000808E06FF47A68404609B04F
:102EB000BDE8F08FDDF8108001200028F6D040F248
:102EC0001C40C2F2000006F0E5F806F053F8EDE70A
:102ED000B0B584B0044640F21C40C2F2000006F0D7
:102EE000D9F806F025F894F87401A8B1D4F8700167
:102EF0000138C4F8700112D10025204604214FF09A
:102F0000FF324FF0FF33CDE9005502950395FFF7EF
:102F10004DFD84F8745102E00020C4F8700140F2C5
:102F20001C40C2F2000006F0B5F806F023F80020BD
:102F300004B0B0BD2DE9F04F85B0044690F874019F
:102F400000284DD0DDE90EB85BEA08004FF0000024
:102F500043D01D4617468A46D4F850613846294664
:102F600032460023FDF757FA12EB0B0043EB080142
:102F7000801BD94671F1000028BFA6EB020940F280
:102F80001C46C2F20006304606F084F805F0D0FF79
:102F90002046FFF747FC30BBE16D20465246002338
:102FA000CDE90075CDF808900393FFF74DFD20465D
:102FB000FFF7CEFBF0B1BBEB090B68F1000817EB94
:102FC0000907304645F10005CA4406F063F805F0EC
:102FD000D1FF5BEA0800BFD100200024C8B110E097
:102FE0006FF47A6415E04FF25C040120CFF6FF74B1
:102FF00078B106E04FF25C04CFF6FF740134012093
:1030000038B140F21C40C2F2000006F043F805F06F
:10301000B1FF204605B0BDE8F08F00002DE9F04378
:1030200081B0DDE908981E4617460D46044604F0B7
:103030003FFE40F68000C0F2010008302060201DF5
:1030400029463A463346CDF8009005F0AFF9002006
:1030500003210822C4E91700C4F8500184F8740160
:10306000C4E95812C4E95A024FF0FF32C4F87001A3
:10307000C4E91C00A267C4F8C000012284F8B400AF
:10308000A16520464146C4F88820FFF7F9FB204699
:1030900001B0BDE8F083000080B500F003F806F051
:1030A000E9FB80BDB0B5044640F68000C0F20100E7
:1030B0000830254645F8040B2046FFF709FF28464F
:1030C00005F0B0F9204604F0FDFDB0BD90F8AD016B
:1030D00070470000B0B5B2B040F2504101AD0446B7
:1030E000C0F201012846C422FDF7B5FA00210120F3
:1030F0008DF838108DF870108DF88C10ADF8C41064
:1031000040F6F43140F66E428DF81C008DF8540004
:10311000C0F20101C0F201020020FEF77BF919A103
:103120000020FEF777F940F6DD31C0F20101002002
:10313000FEF770F904F11800294603F0B5FF40B11D
:1031400004F1EC0001A9C422FDF785FA002032B099
:10315000B0BD40F6F43140F66E42C0F20101C0F25B
:1031600001020020FEF756F90BA10020FEF752F9EC
:1031700040F6DD31C0F201010020FEF74BF90120DD
:1031800032B0B0BD5B73657444656661756C745D27
:1031900020536574000000005B73657444656661CC
:1031A000756C745D207772697465206661696C6501
:1031B000642100002DE9F04F85B0044600F0E4FEE4
:1031C00040F6F43140F66E420546C0F20101C0F20D
:1031D00001020020FEF71EF935B10FF66001002054
:1031E000FEF718F900F020BC40F68B41C0F2010157
:1031F0000020FEF70FF940F6DD3BC0F2010B002086
:103200005946FEF707F940F6F43A40F66E47C0F229
:10321000010AC0F20107002051463A46FEF7FAF8CB
:1032200040F63A41C0F201010020FEF7F3F8002019
:103230005946FEF7EFF8002051463A46FEF7EAF805
:10324000D4F8EC2040F6CE41C0F201010020FEF798
:10325000E1F800205946FEF7DDF8002051463A46D5
:10326000FEF7D8F894ED3C0A0DF10808B8EE400AD4
:10327000404600F031FC9DF8080040F69B41C00735
:10328000049AC0F201014FF0000008F1010908BFE3
:103290004A46FEF7BFF8404606F0B0FA002059460D
:1032A000FEF7B8F8002051463A46FEF7B3F8D4F8D6
:1032B000F42040F6BB41C0F201010020FEF7AAF85D
:1032C00000205946FEF7A6F8002051463A46FEF780
:1032D000A1F8D4F8F850404600EE105AB8EE400A73
:1032E00000F0FAFB9DF8080040F6FB31C007049B94
:1032F000C0F201014FF000002A4608BF4B46FEF71E
:1033000089F8404606F07AFA00205946FEF782F81E
:10331000002051463A46FEF77DF8D4F8002140F6E9
:103320005C41C0F201010020FEF774F8002059460C
:10333000FEF770F8002051463A46FEF76BF840F66B
:10334000744340F67D4294F8FC00C0F20103C0F2E1
:10335000010294F8FD1094F8FE50002808BF1A46A8
:1033600040F6B74040F6AF43C0F20100C0F201039F
:1033700040F68646002908BF034640F6AA40C0F240
:103380000106C0F20100002D354640F6E03108BFCD
:103390000546C0F2010100200095FEF73BF8002031
:1033A0005946FEF737F8002051463A46FEF732F804
:1033B0000FF2A4610020FEF72DF800205946FEF719
:1033C00029F8002051463A46FEF724F8D4F8242183
:1033D00040F6CE410020C0F20101FEF71BF80020AC
:1033E0005946FEF717F8002051463A46FEF712F804
:1033F00094ED4A0A4046B8EE400A00F06DFB9DF895
:10340000080040F69B41C007049A4FF00000C0F24C
:10341000010108BF4A46FDF7FDFF404606F0EEF900
:1034200000205946FDF7F6FF002051463A46FDF7C9
:10343000F1FFD4F82C2140F6BB410020C0F201017D
:10344000FDF7E8FF00205946FDF7E4FF0020514654
:103450003A46FDF7DFFFD4F83051404600EE105AEF
:10346000B8EE400A00F038FB9DF8080040F6FB314A
:10347000C007049B4FF00000C0F201012A4608BFBC
:103480004B46FDF7C7FF404606F0B8F90020594605
:10349000FDF7C0FF002051463A46FDF7BBFFD4F8C8
:1034A000382140F65C410020C0F20101FDF7B2FF77
:1034B00000205946FDF7AEFF002051463A46FDF781
:1034C000A9FF94F8340140F67D42002840F674408C
:1034D000C0F20102C0F2010094F8351194F836519F
:1034E00008BF024640F6AF4340F6B740C0F20103C2
:1034F000C0F20100002908BF034640F6AA40002D93
:103500003546C0F2010040F6E03108BF0546002014
:10351000C0F201010095FDF77DFF00205946FDF73F
:1035200079FF002051463A46FDF774FF40F61C41F2
:10353000C0F201010020FDF76DFF00205946FDF7A4
:1035400069FF002051463A46FDF764FFD4F8082190
:1035500040F6CE410020C0F20101FDF75BFF0020E4
:103560005946FDF757FF002051463A46FDF752FFF6
:1035700094ED430A4046B8EE400A00F0ADFA9DF8DB
:10358000080040F69B41C007049A4FF00000C0F2CB
:10359000010108BF4A46FDF73DFF404606F02EF9FF
:1035A00000205946FDF736FF002051463A46FDF708
:1035B00031FFD4F8102140F6BB410020C0F20101D8
:1035C000FDF728FF00205946FDF724FF0020514653
:1035D0003A46FDF71FFFD4F81451404600EE105A4A
:1035E000B8EE400A00F078FA9DF8080040F6FB318A
:1035F000C007049B4FF00000C0F201012A4608BF3B
:103600004B46FDF707FF404606F0F8F80020594604
:10361000FDF700FF002051463A46FDF7FBFED4F8C7
:103620001C2140F65C410020C0F20101FDF7F2FED2
:1036300000205946FDF7EEFE002051463A46FDF7C0
:10364000E9FE94F8180140F67D42002840F67440E7
:10365000C0F20102C0F2010094F8191194F81A5155
:1036600008BF024640F6AF4340F6B740C0F2010340
:10367000C0F20100002908BF034640F6AA40002D11
:103680003546C0F2010040F6E03108BF0546002093
:10369000C0F201010095FDF7BDFE00205946FDF77F
:1036A000B9FE002051463A46FDF7B4FE40F62B41E4
:1036B000C0F201010020FDF7ADFE00205946FDF7E4
:1036C000A9FE002051463A46FDF7A4FED4F8402159
:1036D00040F6CE410020C0F20101FDF79BFE002024
:1036E0005946FDF797FE002051463A46FDF792FEF7
:1036F00094ED510A4046B8EE400A00F0EDF99DF80D
:10370000080040F69B41C007049A4FF00000C0F249
:10371000010108BF4A46FDF77DFE404606F06EF8FF
:1037200000205946FDF776FE002051463A46FDF747
:1037300071FED4F8482140F6BB410020C0F20101DF
:10374000FDF768FE00205946FDF764FE0020514653
:103750003A46FDF75FFED4F84C51404600EE105A51
:10376000B8EE400A00F0B8F99DF8080040F6FB31C9
:10377000C007049B4FF00000C0F201012A4608BFB9
:103780004B46FDF747FE404606F038F80020594604
:10379000FDF740FE002051463A46FDF73BFED4F8C7
:1037A000542140F60A41C0F201010020FDF732FE2B
:1037B00000205946FDF72EFE002051463A46FDF7FF
:1037C00029FE94F8500140F67D42002840F67440EE
:1037D000C0F20102C0F2010094F8511194F8525164
:1037E00008BF024640F6AF4340F6B740C0F20103BF
:1037F000C0F20100002908BF034640F6AA40002D90
:103800003546C0F2010040F6E03108BF0546002011
:10381000C0F201010095FDF7FDFD00205946FDF7BE
:10382000F9FD002051463A46FDF7F4FD8DA1002038
:10383000FDF7F0FD00205946FDF7ECFD0020514654
:103840003A46FDF7E7FDD4F85C2140F6CE41002072
:10385000C0F20101FDF7DEFD00205946FDF7DAFD5B
:10386000002051463A46FDF7D5FD94ED580A4046F2
:10387000B8EE400A00F030F99DF8080040F69B4190
:10388000C007049A4FF00000C0F2010108BF4A4689
:10389000FDF7C0FD404605F0B1FF00205946FDF799
:1038A000B9FD002051463A46FDF7B4FDD4F8642135
:1038B00040F6BB410020C0F20101FDF7ABFD002046
:1038C0005946FDF7A7FD002051463A46FDF7A2FDF7
:1038D000D4F86851404600EE105AB8EE400A00F0A5
:1038E000FBF89DF8080040F6FB31C007049B4FF041
:1038F0000000C0F201012A4608BF4B46FDF78AFDD1
:10390000404605F07BFF00205946FDF783FD00206F
:1039100051463A46FDF77EFDD4F8702140F65C41F1
:103920000020C0F20101FDF775FD00205946FDF7AA
:1039300071FD002051463A46FDF76CFD94F86C018C
:1039400040F67D42002840F67440C0F20102C0F209
:10395000010094F86D1194F86E5108BF024640F6CC
:10396000AF4340F6B740C0F20103C0F201000029A6
:1039700008BF034640F6AA40C0F2010040F6E0311D
:10398000002D08BF06460020C0F201010096FDF799
:1039900041FD00205946FDF73DFD002051463A46C5
:1039A000FDF738FDB4F8782132A10020FDF732FD93
:1039B00000205946FDF72EFD002051463A46FDF7FE
:1039C00029FDB4F87A2130A10020FDF723FD002065
:1039D0005946FDF71FFD002051463A46FDF71AFDF6
:1039E00004F5BE722DA10020FDF714FD00205946FC
:1039F000FDF710FD002051463A46FDF70BFD94F807
:103A0000AC212CA10020FDF705FD00205946FDF753
:103A100001FD002051463A46FDF7FCFC94F8AD212B
:103A200029A10020FDF7F6FC40F6DD31C0F20101CE
:103A30000020FDF7EFFC05B0BDE8F08F4D425220AD
:103A4000696E666F726D6174696F6E206C6F616410
:103A5000204552524F520000626F6F745F61707068
:103A60003A000000696D6167655F646F776E6C6F27
:103A700061643A006D61696E206466755F6E756D94
:103A80003A20257500000000626F6F74206466752F
:103A90005F6E756D3A2025750000000068775F76CF
:103AA000657273696F6E5F7374723A202531367375
:103AB00000000000737461727475705F6D6F6465EF
:103AC0003A202575000000006466755F6D6F6465BF
:103AD0003A2025750A000000F0B58BB09FED521A10
:103AE0000446B4EE410A0027F1EE10FA0760476081
:103AF000876034DABCEEC00A0DF1210510EE103AF1
:103B00004EA228460A21FDF7A9F8284605F070FDC7
:103B100002AE02463046294605F0F2FD48A1304685
:103B200005F014FE8268D0E900130792CDE9051371
:103B300021780760C9074760876005D02168A068C1
:103B400021F0010105F064FE05AA07CA07C400219F
:103B500005AC8DF81410601C8DF82B1058E040F265
:103B60001450C0F201009FED312AA0F1080700BFF8
:103B700020EE020AB4EE410AF1EE10FA07F1040752
:103B8000F6DA9FED2B1A48F21F5120EE011ABCEE17
:103B9000C11A11EE100AC5F2EB11A0FB0112510976
:103BA0006422BCEEC00A01FB12060DF1210510EEE5
:103BB000103A20A228460A210096FDF74FF8284621
:103BC00005F016FD02AE02463046294605F098FD86
:103BD0007968304605F0BAFD8268D0E90013079293
:103BE000CDE9051321780025C9070560456085608A
:103BF00005D02168A06821F0010105F009FE05AAA1
:103C000007CA8DF8145007C405AC601C8DF82B5002
:103C10000DF12B0105F0E8FC204605F0EFFD02A8B0
:103C200005F0ECFD0BB0F0BD000080440000803AD0
:103C30000000C84225752E2530327500257500001C
:103C400020420000B0F87A0170470000B0B501F5DD
:103C5000927E9EE80C50D1E94D45D1F83C1180E8A8
:103C60000C50C0E904458161B0BD000090F83C01F2
:103C700070470000B0F8780170470000B0B501F15E
:103C8000EC0E9EE80C50D1E93F45D1F8041180E8D4
:103C90000C50C0E904458161B0BD000090F80401FA
:103CA00070470000A0F87A1170470000B0B54C6969
:103CB00001F10805D1E900CE2CCDC0F8384100F55E
:103CC00096742CC4C0E949CE8969C0F83C11B0BDD6
:103CD00080F83C1170470000A0F878117047000090
:103CE000B0B54C6901F10805D1E900CE2CCDC0F882
:103CF000004100F1F4042CC4C0E93BCE8969C0F84E
:103D00000411B0BD80F804117047000090F8AC01B8
:103D10007047000080F8AC117047000080B5006F5C
:103D20001B88FEF7A9FCB0FA80F0400980BD0000B6
:103D300070B582B014460D4640F6F43140F66E423E
:103D40000646C0F20101C0F201020020FDF762FB4D
:103D50000BA100202A462B460094FDF75BFB40F6A2
:103D6000DD31C0F201010020FDF754FB306F294620
:103D70002246FEF7BBFCB0FA80F0400902B070BDED
:103D80005B666C617368494643616C6C6261636B2E
:103D90005D5B6F6E45726173655D20616464723D49
:103DA00025752830782578292C206C656E67746815
:103DB0003D25750080B540F6F43140F66E42C0F204
:103DC0000101C0F201020020FDF724FB06A1002042
:103DD000FDF720FB40F6DD31C0F201010020FDF7C8
:103DE00019FB012080BD00BF5B666C6173684946AA
:103DF00043616C6C6261636B5D5B6F6E52656164A5
:103E0000795D000080B5006F1B88FEF785FCB0FA75
:103E100080F0400980BD000070B584B00C4640F6CB
:103E2000F43140F66E420546C0F20101C0F20102D3
:103E30000020FDF7EFFA01AE30462946224603F096
:103E40001FFA9DF80400039AC00709A14FF0000073
:103E500008BF721CFDF7DEFA304605F0CFFC40F6D5
:103E6000DD31C0F201010020FDF7D4FA04B070BDCD
:103E70005B666C617368494643616C6C6261636B3D
:103E80005D5B6F6E5374617475735D202573000004
:103E900010B50C4603F0FEF940F69C11C0F201018A
:103EA00008310160046710BD80B503F083FA05F0A6
:103EB000E1FC80BD80B501F5C6712022FCF786FBD0
:103EC00080BD0000B0B501F5A07E9EE80C50D1E9A0
:103ED0005445D1F8581180E80C50C0E9044581617F
:103EE000B0BD0000B0B501F5847E9EE80C50D1E96C
:103EF0004645D1F8201180E80C50C0E904458161A5
:103F0000B0BD0000B0B54C6901F10805D1E900CEA3
:103F10002CCDC0F8544100F5A4742CC4C0E950CE97
:103F20008969C0F85811B0BDB0B54C6901F10805F8
:103F3000D1E900CE2CCDC0F81C4100F588742CC40A
:103F4000C0E942CE8969C0F82011B0BDB0B501F515
:103F5000AE7E9EE80C50D1E95B45D1F8741180E843
:103F60000C50C0E904458161B0BD000010B50446A5
:103F700090F8B001002808BF10BD2046FEF776FB80
:103F8000002084F8B00110BDB0B540F6F43140F621
:103F90006E420446C0F20101C0F201020020002579
:103FA000FDF738FA0BA10020FDF734FA40F6DD31B9
:103FB000C0F201010020FDF72DFA04F1180004F110
:103FC000EC0103F00FF818B92046FFF783F8054617
:103FD0002846B0BD5B5F666C6173685F7765617230
:103FE0005F6C6576656C6C696E675D207265616497
:103FF00000000000B0B5044690F8B00108B1002000
:10400000B0BD2046FEF74EFB60B140F6F43140F6FD
:104010006E42C0F20101C0F201020020FDF7FAF980
:1040200016A11FE004F1180504F17801284602F0FA
:1040300005FF28460121012502F0E6FF30B12046A8
:10404000FFF7A2FF84F8B0510020B0BD40F6F43174
:1040500040F66E42C0F20101C0F201020020FDF7FD
:10406000D9F910A10020FDF7D5F940F6DD31C0F2F5
:1040700001010020FDF7CEF90120B0BD5B5F666C49
:104080006173685F696E7465726E616C5F68616EA2
:10409000646C65725D20626567696E206661696C3B
:1040A000656421005B5F666C6173685F7765617250
:1040B0005F6C6576656C6C696E675D2062656769CB
:1040C0006E206661696C65642100000080B500F1B6
:1040D000180200F1EC01104602F0E6FF00281CBFB8
:1040E000002080BD40F6F43140F66E42C0F201017E
:1040F000C0F201020020FDF78DF906A10020FDF7B6
:1041000089F940F6DD31C0F201010020FDF782F9A6
:10411000012080BD5B636F6D6D69745D20666169B0
:104120006C65642100000000B0B582B000F150055C
:1041300029464FF4A0320446FEF706FB18304FF034
:10414000C40C4FF4A0314FF400524FF48053CDF81B
:1041500000C003F075F828464FF4A0314FF4005228
:1041600002F032FD04F178002146FFF791FE0021B4
:10417000204684F8B01102B0B0BD000010B588B080
:10418000014601A8FFF7E2FE40F6F43141F2691260
:104190009DF81640C0F20101C0F201020020FDF7B7
:1041A00039F940F6AA4040F68642C0F20100C0F25A
:1041B0000102002C08BF024606A10020FDF72AF9E3
:1041C00040F6DD31C0F201010020FDF723F9204661
:1041D00008B010BD5B617070557067726164655D99
:1041E000202573002DE9F04196B040F6F43141F2FC
:1041F00069120446C0F20101C0F20102002000254C
:10420000FDF708F95EA10020FDF704F940F6DD3165
:10421000C0F201010020FDF7FDF808A82146FFF7D4
:1042200051FE08AB0FCB0DF13C0C8CE807000C984D
:10423000CDE91230DDE90D01CDE9140101A82146D7
:10424000FFF704FD079801ABC1B201290ECB08911D
:104250000499CDE909230B91DDE90512CDE90C1292
:104260000E9052D10FA908AA204602F07BF900282F
:104270004DD00B980D9912909DF8380040F6F43807
:1042800041F26917C0F20108C0F2010714918DF8DC
:104290005400002041463A46FDF7BCF847A10020F3
:1042A000FDF7B8F840F6DD35C0F2010500202946DB
:1042B000FDF7B0F80FAE314601F038FC1190002048
:1042C00041463A46FDF7A6F844A10020FDF7A2F8C2
:1042D00000202946FDF79EF820463146FFF712FEE2
:1042E0002046FFF7F3FE0446B0FA80F045090020AF
:1042F00041463A46FDF78EF840F6A961C0F2010149
:104300003CA0002C08BF014611E023A41DE040F6AC
:10431000F43141F26912C0F20101C0F20102002041
:104320000025FDF777F840F6A961C0F201010020F1
:10433000FDF770F840F6DD31C0F201010020FDF715
:1043400069F841F25334C0F2010440F6F43141F20D
:104350006912C0F20101C0F201020020FDF75AF813
:1043600000202146FDF756F840F6DD31C0F201018C
:104370000020FDF74FF8284616B0BDE8F08100BFD9
:104380005B6261636B7570426F6F745D3E3E20735C
:1043900074617274000000005B6261636B7570424F
:1043A0006F6F745D09206170702073746174757330
:1043B000204661696C757265210000005B62616373
:1043C0006B7570426F6F745D2075706461746520E9
:1043D0006465732063726333320000005B62616363
:1043E0006B7570426F6F745D2075706461746520C9
:1043F0004D4252005B6261636B7570426F6F745D1A
:104400000920737563636565642100002DE9F0413F
:1044100096B040F6F43141F269120446C0F201014F
:10442000C0F2010200200025FCF7F4FF5EA100208D
:10443000FCF7F0FF40F6DD31C0F201010020FCF78F
:10444000E9FF08A82146FFF74DFD08AB0FCB0DF1A2
:104450003C0C8CE807000C98CDE91230DDE90D0129
:10446000CDE9140101A82146FFF708FC079801AB2C
:10447000C1B201290ECB08910499CDE909230B9112
:10448000DDE90512CDE90C120E9052D10FA908AA50
:10449000204602F067F800284DD00B980D99129035
:1044A0009DF8380040F6F43841F26917C0F201086F
:1044B000C0F2010714918DF85400002041463A469D
:1044C000FCF7A8FF47A10020FCF7A4FF40F6DD356C
:1044D000C0F2010500202946FCF79CFF0FAE3146D3
:1044E00001F024FB1190002041463A46FCF792FF70
:1044F00044A10020FCF78EFF00202946FCF78AFF2C
:1045000020463146FFF710FD2046FFF7DFFD044649
:10451000B0FA80F04509002041463A46FCF77AFFA0
:1045200040F66261C0F201013CA0002C08BF0146C8
:1045300011E023A41DE040F6F43141F26912C0F20B
:104540000101C0F2010200200025FCF763FF40F6E4
:104550006261C0F201010020FCF75CFF40F6DD3132
:10456000C0F201010020FCF755FF41F2E424C0F243
:10457000010440F6F43141F26912C0F20101C0F2C7
:1045800001020020FCF746FF00202146FCF742FF15
:1045900040F6DD31C0F201010020FCF73BFF284668
:1045A00016B0BDE8F08100BF5B6261636B75704D52
:1045B00061696E5D3E3E207374617274000000009C
:1045C0005B6261636B75704D61696E5D092061703E
:1045D0007020737461747573204661696C757265BF
:1045E000210000005B6261636B75704D61696E5DF7
:1045F0002075706461746520646573206372633331
:10460000320000005B6261636B75704D61696E5DC5
:1046100020757064617465204D4252005B62616375
:104620006B75704D61696E5D0920737563636565B7
:10463000642100002DE9F04F8FB040F6F43741F2CD
:104640006915C0F20107C0F2010591460C4680468B
:10465000002039462A46FCF7DDFEF2A10020FCF7D7
:10466000D9FE40F6DD36C0F2010600203146FCF7E7
:10467000D1FE002039462A46FCF7CCFED9F80020AE
:10468000D9F80C30EDA10020FCF7C4FE0020314623
:10469000FCF7C0FE002039462A46FCF7BBFED4E9F1
:1046A0000023F3A10020FCF7B5FE00203146FCF703
:1046B000B1FE99F81000012801D1207CF0B140F63C
:1046C000F43141F26912C0F20101C0F2010200208E
:1046D0000025FCF79FFE41F25401C0F201010020C9
:1046E000FCF798FE40F6DD31C0F201010020FCF736
:1046F00091FE05F001000FB0BDE8F08F40F6F431F7
:1047000041F26912C0F20101C0F201020020FCF77F
:1047100081FE41F27911C0F201010020FCF77AFE1E
:1047200040F6DD31C0F201010020FCF773FE404687
:10473000494601F045FEF8B1D9F80C00616888429D
:1047400035D940F6F43141F26912C0F20101C0F2EC
:10475000010200200025FCF75DFE41F29411C0F239
:1047600001010020FCF756FE40F6DD31C0F20101E8
:104770000020FCF74FFEBCE740F6F43141F269122D
:10478000C0F20101C0F2010200200025FCF742FE48
:1047900041F2A301C0F201010020FCF73BFE40F60C
:1047A000DD31C0F201010020FCF734FEA1E70C204E
:1047B00005F08EF82146074600F092FF0C2005F028
:1047C00087F84946824600F08BFF384604F0A8FC83
:1047D00040F67C01C0F20101044605F075F890B383
:1047E00040F6F43141F26912064699F81150C0F2D0
:1047F0000101C0F2010200200497FCF70BFE012D1D
:104800000595CDF818A0039443D141F25821C0F288
:1048100001010020FCF7FEFD40F6DD31C0F2010190
:104820000020FCF7F7FD07AD28464146FFF742FBA5
:1048300008F5DC7005F110072946042201230097D2
:1048400002F0F2FE33E040F6F43141F26912C0F2B8
:104850000101C0F2010200200025FCF7DBFD40F65B
:10486000E151C0F2010100202246FCF7D3FD40F6E1
:10487000DD31C0F201010020FCF7CCFD384600F02C
:1048800057FF04F0F7FF504600F052FF04F0F2FF2C
:104890002FE741F21B21C0F201010020FCF7BAFD15
:1048A00040F6DD31C0F201010020FCF7B3FDD9F87C
:1048B0000CB0CDF80480BBFA8BF0BBF1000F4FEACF
:1048C00050157BD0049C08F5DC700027029000BFD7
:1048D000039ADA4620463946934588BF924600F04F
:1048E000CDFE069831463A46534600F0ADFE059897
:1048F000012804D102983146524602F0CDFF2046ED
:1049000031463A46534600F0D1FE30465146FCF758
:104910002BFA8046204631463A46534600F094FE34
:1049200030465146FCF720FA80452DD140F6F4314F
:1049300041F269120020C0F20101C0F201025744A5
:10494000ABEB0A0BFCF766FDD9F80C006421794348
:10495000B1FBF0F540F601710020C0F201015246B2
:1049600043460095FCF756FD40F6DD310020C0F2CD
:104970000101FCF74FFDBBFA8BF0049CBBF1000F6B
:104980004FEA5015A4D11AE040F6F43141F2691211
:10499000C0F20101C0F201020020FCF73BFD40F62D
:1049A000C061C0F2010100204246FCF733FD40F631
:1049B000DD31C0F201010020FCF72CFD049C0598BC
:1049C000019F012803D107F5DC7002F025FE304677
:1049D00004F04CFF204600F0ABFE04F04BFF0698BD
:1049E00000F0A6FE04F046FF07F5DC7002F014FEAE
:1049F00040F6F43141F26912C0F20101C0F2010245
:104A00000020FCF707FD41F2FA21C0F2010100206D
:104A1000FCF700FD40F6DD31C0F201010020FCF79B
:104A2000F9FC66E65B70726F6772616D4170705D74
:104A30003E3E207374617274000000005B70726F00
:104A40006772616D4170705D0920537263206578F3
:104A50007465726E616C3A20616464723D307825D1
:104A60003038583B2073697A653D25750000000099
:104A70005B70726F6772616D4170705D0920446593
:104A80007320696E7465726E616C3A206164647241
:104A90003D3078253038583B206D61785F73697AF6
:104AA000653D257500000000F0B58FB040F6F43587
:104AB00041F26916C0F20105C0F201060746002066
:104AC00029463246FCF7A6FC1EA10020FCF7A2FCFA
:104AD00040F6DD34C0F2010400202146FCF79AFCC8
:104AE00001A83946FFF7B2F801AB0FCB0DF1200C4E
:104AF0008CE807000598CDE90B30DDE90601CDE92A
:104B00000D0108A9384601F05BFC07460020294644
:104B10003246FCF77FFC41F6214041F27B32C0F285
:104B20000100C0F20102002F18BF02460BA10020B5
:104B3000FCF770FC00202146FCF76CFC38460FB0F7
:104B4000F0BD00BF5B766572696679426F6F745D18
:104B50003E3E207374617274000000005B766572E3
:104B6000696679426F6F745D3C3C2066696E69735B
:104B7000682C207374617475732025730000000025
:104B8000F0B58FB040F6F43541F26916C0F2010578
:104B9000C0F201060746002029463246FCF73AFCDF
:104BA0001EA10020FCF736FC40F6DD34C0F2010403
:104BB00000202146FCF72EFC01A83946FFF75EF8DD
:104BC00001AB0FCB0DF1200C8CE807000598CDE967
:104BD0000B30DDE90601CDE90D0108A9384601F0E9
:104BE000EFFB0746002029463246FCF713FC41F64E
:104BF000214041F27B32C0F20100C0F20102002FDD
:104C000018BF02460BA10020FCF704FC002021463F
:104C1000FCF700FC38460FB0F0BD00BF5B76657254
:104C20006966794D61696E5D3E3E20737461727490
:104C3000000000005B7665726966794D61696E5DA2
:104C40003C3C2066696E6973682C207374617475CE
:104C5000732025730000000010B588B0014601A83C
:104C6000FEF7F4FF40F6F43141F26912019CC0F204
:104C70000101C0F201020020FCF7CCFB07A10020DB
:104C800022462346FCF7C6FB40F6DD31C0F20101A7
:104C90000020FCF7BFFB204608B010BD5B626F6FC1
:104CA00074416464726573735D20307825303858C0
:104CB000202825752900000010B588B0014601A8FC
:104CC000FEF7DCFF40F6F43141F26912019CC0F2BC
:104CD0000101C0F201020020FCF79CFB07A10020AB
:104CE00022462346FCF796FB40F6DD31C0F2010177
:104CF0000020FCF78FFB204608B010BD5B6D61699A
:104D00006E416464726573735D2030782530385865
:104D100020282575290000002DE9F04196B040F6C5
:104D2000F43141F269120446C0F20101C0F20102FD
:104D300000200025FCF76EFB5FA10020FCF76AFB5A
:104D400040F6DD31C0F201010020FCF763FB08A84A
:104D50002146FEF77BFF08AB0FCB0DF13C0C8CE836
:104D600007000C98CDE91230DDE90D01CDE9140101
:104D700001A82146FFF7A6F8079801ABC1B20129A7
:104D80000ECB08910499CDE909230B91DDE90512B9
:104D9000CDE90C120E9055D10FA908AA2046FFF7B5
:104DA00049FC002850D00B980D9912909DF83800BE
:104DB00040F6F43841F26917C0F20108C0F2010769
:104DC00014918DF85400002041463A46FCF722FB2E
:104DD00040F69771C0F201010020FCF71BFB40F682
:104DE000DD35C0F2010500202946FCF713FB0FAEAC
:104DF000314600F09BFE1190002041463A46FCF7F8
:104E000009FB3CA10020FCF705FB00202946FCF72C
:104E100001FB20463146FEF749FF2046FFF756F9D1
:104E20000446B0FA80F04509002041463A46FCF7B6
:104E3000F1FA40F69161C0F2010137A0002C08BFE1
:104E4000014611E022A41DE040F6F43141F269125E
:104E5000C0F20101C0F2010200200025FCF7DAFADD
:104E600040F69161C0F201010020FCF7D3FA40F650
:104E7000DD31C0F201010020FCF7CCFA41F23C34F4
:104E8000C0F2010440F6F43141F26912C0F20101AE
:104E9000C0F201020020FCF7BDFA00202146FCF719
:104EA000B9FA40F6DD31C0F201010020FCF7B2FA98
:104EB000284616B0BDE8F0815B726573746F726549
:104EC000426F6F745D3E3E20737461727400000027
:104ED0005B726573746F7265426F6F745D092061F8
:104EE000707020737461747573204661696C75729B
:104EF000652100005B726573746F7265426F6F7439
:104F00005D207570646174652064657320696E74DA
:104F10006F204D42520000005B726573746F7265C2
:104F2000426F6F745D09207375636365656421006A
:104F30002DE9F04196B040F6F43141F26912044691
:104F4000C0F20101C0F2010200200025FCF762FA64
:104F50005FA10020FCF75EFA40F6DD31C0F20101EE
:104F60000020FCF757FA08A82146FEF787FE08AB99
:104F70000FCB0DF13C0C8CE807000C98CDE91230FA
:104F8000DDE90D01CDE9140101A82146FEF7AAFFD4
:104F9000079801ABC1B201290ECB08910499CDE964
:104FA00009230B91DDE90512CDE90C120E9055D1C4
:104FB0000FA908AA2046FFF73DFB002850D00B9808
:104FC0000D9912909DF8380040F6F43841F26917B7
:104FD000C0F20108C0F2010714918DF854000020BE
:104FE00041463A46FCF716FA40F65971C0F2010103
:104FF0000020FCF70FFA40F6DD35C0F20105002075
:105000002946FCF707FA0FAE314600F08FFD1190EC
:10501000002041463A46FCF7FDF93CA10020FCF790
:10502000F9F900202946FCF7F5F920463146FEF74C
:1050300057FE2046FFF74AF80446B0FA80F04509CB
:10504000002041463A46FCF7E5F940F64A61C0F2D5
:10505000010137A0002C08BF014611E022A41DE089
:1050600040F6F43141F26912C0F20101C0F20102CE
:1050700000200025FCF7CEF940F64A61C0F201019C
:105080000020FCF7C7F940F6DD31C0F20101002035
:10509000FCF7C0F941F2CD24C0F2010440F6F4312E
:1050A00041F26912C0F20101C0F201020020FCF7D6
:1050B000B1F900202146FCF7ADF940F6DD31C0F230
:1050C00001010020FCF7A6F9284616B0BDE8F081E2
:1050D0005B726573746F72654D61696E5D3E3E20F3
:1050E00073746172740000005B726573746F726533
:1050F0004D61696E5D092061707020737461747513
:1051000073204661696C7572652100005B7265737E
:10511000746F72654D61696E5D2075706461746550
:105120002064657320696E746F204D425200000048
:105130005B726573746F72654D61696E5D09207392
:1051400075636365656421002DE9F04196B040F612
:10515000F43841F26916C0F20108C0F201060446B3
:10516000002041463246FCF755F979A10020FCF7B2
:1051700051F940F6DD37C0F2010700203946FCF74F
:1051800049F908A82146FEF761FD08AB0FCB0DF1E8
:105190003C0C8CE807000C98CDE91230DDE90D01DC
:1051A000CDE9140101A82146FEF7D0FE01AB0FCBDB
:1051B0000DF1200C8CE807000598CDE90B30DDE9F6
:1051C0000601CDE90D012046FDF780FF05460020D0
:1051D00041463246FCF71EF9149A63A10020FCF701
:1051E00019F900203946FCF715F9002041463246EE
:1051F000FCF710F90D9A65A10020FCF70BF90020CF
:105200003946FCF707F9012D09D114980D99884208
:1052100005D940F6A9550024C0F201057DE00FA98B
:1052200008AA2046FFF706FA002858D00B980D99D7
:1052300040F6F43841F2691612900220C0F20108DB
:10524000C0F2010614918DF8540000204146324608
:10525000FCF7E0F840F67871C0F201010020FCF79D
:10526000D9F840F6DD37C0F2010700203946FCF7D7
:10527000D1F80FAD294600F059FC119000204146AD
:105280003246FCF7C7F841F21201C0F201010020DA
:10529000FCF7C0F800203946FCF7BCF82046294648
:1052A000FEF704FD2046FEF7CDFC013081B220461A
:1052B000FEF7F8FC2046FEF709FF0546B0FA80F03D
:1052C0004409002041463246FCF7A4F840F67961D3
:1052D000C0F2010136A0002D08BF01460FE040F6E4
:1052E000F43141F26912C0F20101C0F20102002062
:1052F0000024FCF78FF840F67961C0F2010100202C
:10530000FCF788F840F6DD31C0F201010020FCF71F
:1053100081F841F22535C0F2010540F6F43141F241
:105320006912C0F20101C0F201020020FCF772F81C
:1053300000202946FCF76EF840F6DD31C0F201018D
:105340000020FCF767F8204616B0BDE8F08100BFEA
:105350005B75706772616465426F6F745D3E3E207D
:1053600073746172740000005B75706772616465CC
:10537000426F6F745D3E09204D61696E20766572E3
:1053800073696F6E20307825303858005B75706710
:1053900072616465426F6F745D3E09204E657720CF
:1053A00076657273696F6E2030782530385800004A
:1053B0005B75706772616465426F6F745D0920731D
:1053C00075636365656421002DE9F04196B040F690
:1053D000F43841F26916C0F20108C0F20106044631
:1053E000002041463246FCF715F879A10020FCF771
:1053F00011F840F6DD37C0F2010700203946FCF70E
:1054000009F808A82146FEF739FC08AB0FCB0DF1CF
:105410003C0C8CE807000C98CDE91230DDE90D0159
:10542000CDE9140101A82146FEF790FD01AB0FCB99
:105430000DF1200C8CE807000598CDE90B30DDE973
:105440000601CDE90D012046FDF740FE054600208E
:1054500041463246FBF7DEFF149A63A10020FBF7BA
:10546000D9FF00203946FBF7D5FF002041463246E0
:10547000FBF7D0FF0D9A65A10020FBF7CBFF0020C2
:105480003946FBF7C7FF012D09D114980D998842C1
:1054900005D940F6A9550024C0F201057DE00FA909
:1054A00008AA2046FFF7C6F8002858D00B980D9997
:1054B00040F6F43841F2691612900220C0F2010859
:1054C000C0F2010614918DF8540000204146324686
:1054D000FBF7A0FF40F63A71C0F201010020FBF794
:1054E00099FF40F6DD37C0F2010700203946FBF78F
:1054F00091FF0FAD294600F019FB119000204146A5
:105500003246FBF787FF40F6F071C0F20101002040
:10551000FBF780FF00203946FBF77CFF2046294639
:10552000FEF7DEFB2046FEF7A5FB013081B22046E8
:10553000FEF7D2FB2046FEF7C9FD0546B0FA80F023
:105540004409002041463246FBF764FF40F63261D1
:10555000C0F2010136A0002D08BF01460FE040F661
:10556000F43141F26912C0F20101C0F201020020DF
:105570000024FBF74FFF40F63261C0F2010100202A
:10558000FBF748FF40F6DD31C0F201010020FBF7D8
:1055900041FF41F2B625C0F2010540F6F43141F277
:1055A0006912C0F20101C0F201020020FBF732FFD4
:1055B00000202946FBF72EFF40F6DD31C0F2010145
:1055C0000020FBF727FF204616B0BDE8F08100BFA2
:1055D0005B757067726164654D61696E5D3E3E200A
:1055E00073746172740000005B757067726164654A
:1055F0004D61696E5D3E09204D61696E2076657270
:1056000073696F6E20307825303858005B7570678D
:10561000726164654D61696E5D3E09204E6577205B
:1056200076657273696F6E203078253038580000C7
:105630005B757067726164654D61696E5D092073A9
:10564000756363656564210080B582B090F808C019
:10565000BCF1000F04D0006801F0FEFA02B080BD7A
:1056600040684FF0000ED0F800C0DCF814C0009382
:105670000023CDF804E0E04702B080BD80B582B0E1
:10568000037A23B1006801F003FB02B080BD4068DB
:105690004FF0000E0368D3F81CC000920A460023A6
:1056A000CDF804E0E04702B080BD000080B582B0D4
:1056B00090F808C0BCF1000F04D0006801F000FBB6
:1056C00002B080BD40684FF0000ED0F800C0DCF89A
:1056D00018C000930023CDF804E0E04702B080BD7D
:1056E000B0B50D46097C0446012912D10120207273
:1056F0000C2004F0EDF840F24841C2F200010968C4
:10570000D5E9002301F000FB206001F0A3FA204658
:10571000B0BD00202072282004F0DAF8D5E900128C
:1057200001F052FA01686060896888472046B0BD80
:1057300010B50446007A38B1206850B101F0E8FA9B
:1057400004F098F8204610BD606810B101684968FF
:105750008847204610BD0000F0B58BB09FED521A6F
:105760000446B4EE410A0027F1EE10FA07604760E4
:10577000876034DABCEEC00A0DF1210510EE103A54
:105780004EA228460A21FBF769FA284603F030FFAB
:1057900002AE02463046294603F0B2FF48A1304629
:1057A00003F0D4FF8268D0E900130792CDE9051316
:1057B00021780760C9074760876005D02168A06825
:1057C00021F0010104F024F805AA07CA07C400214A
:1057D00005AC8DF81410601C8DF82B1058E040F2C9
:1057E0002850C0F201009FED312AA0F1080700BF48
:1057F00020EE020AB4EE410AF1EE10FA07F10407B6
:10580000F6DA9FED2B1A48F21F5120EE011ABCEE7A
:10581000C11A11EE100AC5F2EB11A0FB01125109D9
:105820006422BCEEC00A01FB12060DF1210510EE48
:10583000103A20A228460A210096FBF70FFA2846C4
:1058400003F0D6FE02AE02463046294603F058FF6A
:105850007968304603F07AFF8268D0E90013079236
:10586000CDE9051321780025C907056045608560ED
:1058700005D02168A06821F0010103F0C9FF05AA45
:1058800007CA8DF8145007C405AC601C8DF82B5066
:105890000DF12B0103F0A8FE204603F0AFFF02A894
:1058A00003F0ACFF0BB0F0BD000080440000803A74
:1058B0000000C84225752E25303275002575000080
:1058C00020420000B0B50D4640F6F43141F26912B5
:1058D0000446C0F20101C0F201020020FBF79AFD6C
:1058E0000EA10020FBF796FD40F6DD31C0F201016C
:1058F0000020FBF78FFD204600F000F9A84204BF0E
:105900000120B0BD20462946FEF7E2F92046FEF709
:10591000DDFBB0FA80F04009B0BD00BF5B73657479
:10592000426F6F74537461747573546F4D42525D5E
:1059300000000000B0B50D4640F6F43141F26912A6
:105940000446C0F20101C0F201020020FBF762FD33
:105950000EA10020FBF75EFD40F6DD31C0F2010133
:105960000020FBF757FD204600F0CCF8A84204BF0A
:105970000120B0BD20462946FEF7C4F92046FEF7B7
:10598000A5FBB0FA80F04009B0BD00BF5B73657441
:105990004D61696E537461747573546F4D42525DFD
:1059A00000000000B0B50D4640F6F43141F2691236
:1059B0000446C0F20101C0F201020020FBF72AFDFB
:1059C0000EA10020FBF726FD40F6DD31C0F20101FB
:1059D0000020FBF71FFD204600F098F8A84204BF06
:1059E0000120B0BD20462946FEF794F92046FEF777
:1059F0006DFBB0FA80F04009B0BD00BF5B73657409
:105A0000537461727455704D6F6465546F4D42529A
:105A10005D000000F0B58FB040F6F43541F2691634
:105A2000C0F20105C0F201060746002029463246B1
:105A3000FBF7F0FC1EA10020FBF7ECFC40F6DD3488
:105A4000C0F2010400202146FBF7E4FC01A839461E
:105A5000FEF77CFA01AB0FCB0DF1200C8CE80700B0
:105A60000598CDE90B30DDE90601CDE90D0108A966
:105A7000384600F0A5FC0746002029463246FBF7D1
:105A8000C9FC41F6214041F27B32C0F20100C0F274
:105A90000102002F18BF02460DA10020FBF7BAFC3F
:105AA00000202146FBF7B6FC38460FB0F0BD00BF22
:105AB0005B766572696679496D616765446F776E7B
:105AC0006C6F61645D3E3E2073746172740000000F
:105AD0005B766572696679496D616765446F776E5B
