:020000040006F4
:1010000000000420ED120600F912060091120600FD
:10101000FD120600991206009D1206000000000055
:10102000000000000000000000000000CD110600DC
:101030000513060000000000651206007512060088
:1010400055C70600A9D206000B1306000B130600B5
:101050000B1306000B1306000B1306000B13060000
:101060000B1306000B1306000B1306000B130600F0
:101070000B130600C9D206000B130600454A0600F2
:101080000B1306000B1306000B1306000B130600D0
:101090000B1306000B1306000B1306000B130600C0
:1010A0000B1306000B1306000B1306000B130600B0
:1010B0000B1306000B1306000000000000000000E8
:1010C0000B1306000B1306000B1306000B13060090
:1010D0000B1306000B1306000B1306000B13060080
:1010E0000B1306000B1306000B1306000000000094
:1010F000000000000B130600000000000B130600A8
:1011000000F002F823F0A2FE0AA090E8000C82444E
:101110008344AAF10107DA4501D123F097FEAFF22B
:10112000090EBAE80F0013F0010F18BFFB1A43F0C5
:10113000010318474C2B05006C2B05000A444FF0A7
:10114000000C10F8013B13F0070408BF10F8014B26
:101150001D1108BF10F8015B641E05D010F8016B6B
:10116000641E01F8016BF9D113F0080F1EBF10F8CF
:10117000014BAD1C0C1B09D16D1E58BF01F801CBF2
:10118000FAD505E014F8016B01F8016B6D1EF9D575
:101190009142D6D37047000000230024002500268A
:1011A000103A28BF78C1FBD8520728BF30C148BFCA
:1011B0000B6070471FB54CF074FC9DE8030000F015
:1011C00095FE01F063F800F05DFE1FBD1EF0040FF8
:1011D0000CBFEFF30880EFF30980816911F8021C5E
:1011E00091BB01B590E80F10E047BDE800508CE8D6
:1011F0000300244B93E80600914208BF704741B9B1
:101200001EF0100F10D12049086820F0010008607E
:101210000AE02CE9F00F1EF0100F08BF2CED108A29
:10122000C1F838C081F822E01A6092F82210906B61
:1012300061F0FF0E1EF0100F08BFB0EC108AB0E88E
:10124000F00F80F309887047104A13689942FAD862
:1012500001B552F821C00FC8E047BDE80050CCF8F6
:101260000000704701B545F02FFBBDE80140EFF3EA
:10127000098CBEE701B545F0B9FDBDE80140EFF3CB
:10128000098CB6E7A403002034EF00E038230B00FC
:10129000102304E0202302E0302300E040239C469A
:1012A000F0B404AE7546E80801D3EFF309860E4F9B
:1012B0000FCE0FC70FBC0FC74046494652465B468C
:1012C0000FC71DCE3100A60A00D304316E0900D22B
:1012D00048311FC7EFF309806946EFF3148663C7EF
:1012E0006046014943F068F8000100200748804744
:1012F0000748804707480047FEE7FEE7FEE7FEE7AE
:10130000FEE7FEE7FEE7FEE7FEE7FEE735F1060053
:1013100049570A0001110600704723F0BFBD084479
:10132000401E491E884370470821001DF7E72DE93C
:10133000F04117460E460446FFF7F6FFA042054669
:1013400033D9002F1CBF06F10C0023F01BFE3046E2
:101350007468F4B12168A94217D305F108029142DB
:101360003CBF6168416007D3626861194A602268C6
:10137000521B0A6041602560002F1CBF06F10C0063
:1013800023F080FE201DBDE8F08120466468002C1B
:10139000E0D12946304600F095FD0028D7D1002F36
:1013A0001CBF06F10C0023F06DFE0020BDE8F081AB
:1013B00010B5044600F07DFD01682046BDE81040F0
:1013C0000122B4E770B516460D46041F002808BF79
:1013D00070BD002E1CBF05F10C0023F0D3FD2B4681
:1013E0005868002818BFA04238BF0346F8D31968D0
:1013F000CA18A24218BF5C6003D122681C4611447F
:10140000196021680A19824218BF606004D14268DD
:101410006260006808442060002E1CBF05F10C00CB
:1014200023F030FE70BD10B5044600F042FD0168A7
:101430002046BDE810400122C4E753EA020C00F048
:1014400069802DE9F04B4FF00006002B1FBFB3FA67
:1014500083F503FA05F424FA05F65E4012BF16433D
:10146000B2FA82F502FA05F4C5F120051EBF22FA90
:1014700005FC44EA0C04203556EA044C4FEA1444B7
:1014800018BF641C4FF000084FF00009904271EB48
:10149000030C39D3002919BFB1FA81F701FA07F615
:1014A000B0FA80F700FA07F6C7F120071EBF20FA4E
:1014B00007FC46EA0C062037B6FBF4FCA7EB050751
:1014C000103F07F01F0BCBF120062CFA06F60CFAA2
:1014D0000BFB44BFB3460026202FA4BF5E464FF04F
:1014E000000B5BEA060C08BF4FF0010B19EB0B0970
:1014F00048EB0608ABFB027C06FB02CC0BFB03CCE3
:10150000C01B71EB0C01C1E70B4602464146484641
:10151000BDE8F08B13B5084318BF4FF0FF3001460C
:10152000AFF30080BDE81C40704753EA020C23D0A3
:1015300010B54C1084EA530404D54042C1F10001B7
:1015400038BF491E1B4204D55242C3F1000338BFC5
:101550005B1EFFF772FF14F0804F04D04042C1F1D0
:10156000000138BF491E14F0004F04D05242C3F1AD
:10157000000338BF5B1E10BD13B540424FF00000A2
:1015800070EB0104B8BF012001F0004100281CBF2E
:101590006FF000414FF0FF30AFF300801CBD70B51D
:1015A000044685690068C10601D5302600E0202682
:1015B000C00707D070BDD4E9012130469047206AAA
:1015C000401C20626D1EF6D570BD70B5044685695D
:1015D0000078C00707D170BDD4E9012120209047D1
:1015E000206A401C20626D1EF6D570BD2DE9F041C9
:1015F000044616460D464769007B80072ED03846C4
:1016000023F06AFD50BB3EB3012E02D0022E25D13D
:1016100004E0204600F066F805441DE0384623F05B
:1016200047FDE168002841F01001E16005DA20463D
:1016300000F080FD0120BDE8F081C9030BD5626890
:10164000E16A914200D81146A26911442269891ABF
:10165000814200DD08460544002D01DA0220EAE758
:10166000E16A6068E268814206D29103E06203D5D4
:1016700022F4003141F01002A6690027AE4213DCCB
:10168000E16A814201D90B4600E0034603EB060CF8
:101690002369ACEB030CAC4506DD814201D98C46D5
:1016A00000E084469C4505D1A760276042F02000F9
:1016B000A5620DE0AD1BE669AE1B8142A66000D9B4
:1016C0000846C01A281A20605819606022F02000CD
:1016D00003490840E060002084F84870ABE7000050
:1016E000BFCFD7FF10B50146C268900703D0900660
:1016F00007D5886A0AE0FFF710FE01210160881E05
:1017000010BD8B69486818440B69C01A91F84830BD
:101710001BB191F84910401A10BD1103FCD50028E7
:10172000FADD401E10BD2DE9F04704464FF00009D8
:101730004FF0FF37C568D4E90486A80707D02046D4
:1017400000F02CFD304623F0ADFC002802DA3846CC
:10175000BDE8F087280502D54046FFF764FE4C211E
:10176000204600F0F8FA206D20F001002065484680
:10177000EEE770B50C46064601F14C05284623F00D
:1017800001FC214630464CF07FF90446284623F000
:1017900079FC204670BD00002DE9F041044600F1BF
:1017A0004C07384623F0EEFBE068810712D0800634
:1017B00001D5A66A04E0A169606808442169461A57
:1017C000204600F0EBFC0022054631462046FFF79C
:1017D0000DFF00E00025384623F054FC2846BDE804
:1017E000F0812DE9F04118B1BDE8F041FFF7D4BF19
:1017F0000B4E0025304623F0C5FB0A4C6F1E07E058
:101800002046FFF7C9FF00B13D46206D20F00104DE
:10181000002CF5D1304623F035FC2846DFE70000E8
:101820000C020020980400202DE9F0471646884657
:10183000070010D006F14C00814623F0A3FB304690
:10184000FFF771FF18F8010B61280DD0722805D041
:10185000772841D105E00020BDE8F087012500246C
:1018600005E00225042402E0082448F2020518F8E5
:10187000010B2B2806D0622809D018F8010C742817
:101880000AD00BE045F0030544F00204EFE745F011
:10189000040544F00104EAE744F010043846214608
:1018A00023F01EFC411C17D00021316171604FF400
:1018B0000071F560F1617061200704D530460222A5
:1018C0000021FFF793FE306D40F00100306548467F
:1018D00023F0D8FB3046BFE70026F8E72DE9F041BA
:1018E00015460E460746214C204623F04BFB2A4660
:1018F00031463846FFF798FF0546204623F0C2FBE5
:101900002846BDE8F0812DE9F0410E468046174D8E
:10191000284623F037FB164C206DC10704D0410840
:1019200004D020F00104F7E7224612E05420FFF72C
:101930003FFD070017D0206D47F0010108435421F7
:101940002065384600F007FA07F14C0023F048FB09
:101950003A4631464046FFF767FF0446284623F0E3
:1019600091FB2046CDE70024F8E700000C020020A0
:101970009804002010B5002000F06CFDAFF300804B
:10198000BDE81040012023F091BB00000EB50546D4
:1019900014460E4613A000F0D3FD284600F0D0FDFB
:1019A00016A000F0CDFD304600F0CAFD15A000F0F5
:1019B000C7FD00218DF80B100A210DF10A008DF8EA
:1019C0000A1008E094FBF1F201FB124294FBF1F4DF
:1019D000303200F8012D002CF4DC00F0B1FDFFF7EF
:1019E000C9FF00002A2A2A20617373657274696F27
:1019F0006E206661696C65643A2000002C2066697F
:101A00006C6520002C206C696E65200030B50346A3
:101A10001D783DB10A4612F8014B1CB1AC42FAD117
:101A20005B1CF5E7181A30BD40EA010310B59B07AF
:101A30000FD1042A0DD310C808C9121F9C42F8D038
:101A400020BA19BA884201D9012010BD4FF0FF30E9
:101A500010BD1AB1D30703D0521C07E0002010BDFF
:101A600010F8013B11F8014B1B1B07D110F8013B8B
:101A700011F8014B1B1B01D1921EF1D1184610BD6C
:101A800040EA0103024630B59B0710D14FF0013404
:101A900000E008C208C91D1B9D4315EAC41FF8D009
:101AA00013F0FF0102F8011B0DD01B0AF8E711F833
:101AB000013B002B02F8013B05D011F8013B002B44
:101AC00002F8013BF3D130BD10B5431C02E010F821
:101AD000011B71B18107FAD14FF0013202C88C1A93
:101AE0008C4314EAC211F9D0C01A0A0603D0C01EF2
:101AF00010BDC01A10BD0A0401D0801E10BD09021D
:101B0000FCD0401E10BD032A40F2308010F0030CC0
:101B100000F0158011F8013BBCF1020F624498BF40
:101B200011F801CB00F8013B38BF11F8013BA2F1DD
:101B3000040298BF00F801CB38BF00F8013B11F058
:101B4000030300F06780083AC0F0088051F8043BB6
:101B5000083A51F804CBA0E80810F5E7121D5CBF65
:101B600051F8043B40F8043BAFF30080D20724BF98
:101B700011F8013B11F801CB48BF11F8012B24BF2C
:101B800000F8013B00F801CB48BF00F8012B70477B
:101B9000431A28BF9A427FF6B6AF10441144032A75
:101BA00040F2268010F0030F1EBF11F8013D521EB7
:101BB00000F8013D10F0030F7FF4F6AF11F00303BE
:101BC00000F06D80083AC0F00B8051F8043D083AEF
:101BD00051F804CD40F8043D40F804CDFFF7F3BFC1
:101BE000121D5CBF51F8043D40F8043DAFF3008086
:101BF000D20724BF11F8013D11F801CD48BF11F8FB
:101C0000012C24BF00F8013D00F801CD48BF00F8C9
:101C1000012C704710B5203AC0F00B80B1E8185085
:101C2000A0E81850B1E81850A0E81850203ABFF4C6
:101C3000F5AF5FEA027C24BFB1E81850A0E8185065
:101C400044BF18C918C0BDE810405FEA827C24BFB9
:101C500051F8043B40F8043B08BF7047D20728BF47
:101C600031F8023B48BF11F8012B28BF20F8023B96
:101C700048BF00F8012B7047431A28BF9A427FF6ED
:101C8000C9AF1044114410F0030F1EBF11F8013DFD
:101C9000521E00F8013D10F0030F7FF4F6AF103A2A
:101CA000C0F00A8010B531E9185020E91850103AF8
:101CB000BFF4F9AFBDE81040530724BF31E9081065
:101CC00020E9081044BF51F8043D40F8043D12F0EB
:101CD000030F08BF7047D20728BF31F8023D48BF45
:101CE00011F8012C28BF20F8023D48BF00F8012C54
:101CF000704702F0FF0343EA032242EA024200F087
:101D00000AB802F0FF0343EA032242EA024200F06B
:101D100024B84FF000020429C0F0128010F0030C28
:101D200000F01B80CCF1040CBCF1020F18BF00F8CE
:101D3000012BA8BF20F8022BA1EB0C0100F00DB87D
:101D40005FEAC17C24BF00F8012B00F8012B48BFDB
:101D500000F8012B70474FF0000200B5134694467F
:101D60009646203922BFA0E80C50A0E80C50B1F1F3
:101D70002001BFF4F7AF090728BFA0E80C5048BF07
:101D80000CC05DF804EB890028BF40F8042B08BFA5
:101D9000704748BF20F8022B11F0804F18BF00F8A1
:101DA000012B704710B5044610F0030F08BF11F067
:101DB000030F40F015804FF0013E121FC0F20E805D
:101DC00051F8043BA3EB0E0C2CEA030C1CEACE1CCE
:101DD00008BF40F8043BF0D0A1F1040102F1040275
:101DE000521E08DB11F8013B00F8013B002BF7D134
:101DF0001146FFF78EFF204610BD000000000000D6
:101E000030B44FF0013C50F8042B51F8043BCCFAAD
:101E100052F4D51A20D1FCB950F8042B51F8043BE8
:101E2000CCFA52F4D51A17D1B4B950F8042B51F8A2
:101E3000043BCCFA52F4D51A0ED16CB950F8042BED
:101E400051F8043BCCFA52F4D51A05D1002CDAD063
:101E500030BC4FF00000704729BAB1FA81F111F09F
:101E60001801D1F120008440F2D1CA40CB4012F0D9
:101E7000FF0213F0FF0330BCD01A70477047704761
:101E80007047000070B5064C7C44064D7D4404E06C
:101E90002046016808448047241DAC42F8D170BD3B
:101EA000281E0500381E05000048704794050020D4
:101EB000704710B5FFF7F8FF083010BD7047704746
:101EC0007047704738B504460A4600206946AFF3AC
:101ED0000080002808BF38BD02460099204600F067
:101EE000C7FA012038BD012000F023BBF8B5AFF3DD
:101EF0000080054600200C46102000BF0646A819A9
:101F0000A0420DD9324669460020AFF30080070099
:101F100008BF00F00EFB0098A04218BF0546C41988
:101F2000FFF7C7FF05600746F01D20F007004619C0
:101F3000284600F00AF8B44208BFF8BDA21B31469B
:101F40003868BDE8F84000F093BA00210160C0E9AC
:101F500001100C3023F044B8102070472DE9F047F1
:101F600005460C46C86820F4201040F48000C86084
:101F7000800602D5084600F034F9E06841F282019B
:101F80004FF0FF390140022903D0204600F0D2F87B
:101F9000B5E000F42041B1F5004F0FD1C00306D5E4
:101FA0006168E06A884200D80846606006E02069FF
:101FB000E0626060606923F07BF8A061A0680022A5
:101FC000EEB200280DDAE1688B050AD4C043A060A8
:101FD00041F490302260E0606068411C61600670EE
:101FE000A5E0E0689046226040F40050E06020697F
:101FF00068BB606923F070F8012704F12405A0B1E3
:10200000A08910F4407F08D0E069FFF7D1F9206182
:1020100018B1E06840F4006016E0E7612561E0680F
:1020200020F4407040F480600EE0E069FFF7C0F9F2
:1020300000282061F1D0E06840F4006010F4407F97
:10204000E06002D140F48070E06020696060E06888
:1020500025696FF0010AC1051FD56168E06A8842F1
:1020600000D80846411B04D02246284600F06CF8F0
:10207000F0BBE068010203D5E562C4E9015854E011
:10208000691CE1626160E16940F48030491EC4E985
:10209000021030462E70BDE8F087010202D500F430
:1020A00080320AE06068411C61600670E0680A2EB8
:1020B00040F48030E06006D00022E16A606881422E
:1020C00003D90B4602E00122F7E70346A7895B1B11
:1020D0007F0503D4E7699F4200DDE2B1814200D869
:1020E0000146E5620F1AC4E90158002B09DD00E042
:1020F00005E022461946284600F026F808B1484671
:10210000C9E747B1A069E5626560C01BA061E068EE
:1021100040F01000E060E068000208D56168A06946
:10212000E562491B08446560A0615046B3E730464C
:10213000B1E70000C16821F4001141F08001C160E5
:1021400000218160016070472DE9F0478146144607
:102150000E464FF0FF383248D5685769054209D01E
:102160003846A16922F0F2FF002811DB2C48C04359
:102170000540E5602B4632464946384622F0ECFFE2
:10218000A16920F00042B21A11440028A16103D0D5
:102190002046FFF7CFFF4046BDE8F08770B5044604
:1021A0000569C06A6168884200D80846E16821F480
:1021B0002011E160C90312D5A84208D02246411B74
:1021C0002846FFF7C1FF10B14FF0FF3070BD00206F
:1021D000E562C4E90150E06820F48030E06000204E
:1021E00070BD10B50446C06820F02000E060A16A10
:1021F000A06988420DD02046FFF7D0FFE06820F4A8
:10220000405040F01000E060A06AA0612069E062E8
:10221000606044F24001E0688843E06010BD000067
:10222000100002002DE9F04704461E4690460D4678
:10223000C7684C30814622F0A5FEB80714D078025A
:1022400012D44046B8F5807F09D0B0F5007F06D0A3
:10225000B8F5806F08D1012604F1240506E0701E50
:102260006FF07F41884201D3012409E02561E661D6
:102270006560E06820F4706040EA0800E0600024D7
:10228000484622F0FFFE2046BDE8F08710B56548BD
:102290005421FFF760FD64485421FFF75CFD63485B
:1022A0005421FFF758FD62485E49624A624B016063
:1022B0005D4810605D4A1A60431C0B65511C016546
:1022C0000120106557484C3022F08AFE56484C30A9
:1022D00022F086FE55484C3022F082FE574822F00C
:1022E0007FFE58484F4A56A17844FFF7F7FA20B9C5
:1022F000544878440A3800F015F954484A4A52A123
:102300007844FFF7EBFA20B9504878440A3800F0D7
:1023100009F94F48454A4CA17844FFF7DFFA20B944
:102320004B4878440A3800F0FDF840233D48DC0073
:1023300000212246FFF776FF20B142487844543806
:1023400000F0F0F83848224640230021FFF76AFFEA
:1023500020B13E487844543800F0E4F8334822462F
:1023600010230021FFF75EFF002806D0384878448C
:10237000BDE81040563800F0D5B810BD2B482DE907
:10238000F041006D2D4E20F00104304622F0FAFDA0
:10239000244D4C35284622F0F5FD2248FFF7C3F9BD
:1023A000284622F06FFE284622F0FAFD1E4D4C35DD
:1023B000284622F0E7FD1C48FFF7B5F9284622F031
:1023C00061FE284622F0ECFD184D4C35284622F0DF
:1023D000D9FD1648FFF7A7F9284622F053FE2846F4
:1023E00022F0DEFD14E0206D20F0010504F14C0028
:1023F000074622F0C7FD2046FFF795F9384622F040
:1024000041FE384622F0CCFD2046FFF70CF82C4662
:10241000002CE8D1304622F035FE084822F0C0FDFD
:10242000BDE8F08198040020EC0400204005002065
:102430000002002004020020080200200C020020FC
:102440007200000030EE0400770000001FEE040070
:10245000F8ED040010B500F04DF8BDE8104000F0B4
:1024600044B8801A0844401E491E884310447047EF
:1024700070B5144605468C464368002B18BF63456B
:1024800038BF1846F8D302681044604508D0664645
:10249000604604220821FFF7E4FF811B8446641A8A
:1024A0002946CCF80040BDE8704000220CF1040041
:1024B000FEF788BF70B50E46044601F14C0528466C
:1024C00022F060FD04E031464BF0DEFA401C09D0FA
:1024D00014F8010B0028F6D10024284622F0D2FD82
:1024E000204670BD4FF0FF34F7E7002801D022F0FE
:1024F000DDBD704710B5002102A000F035F80120C5
:1025000010BD0000534947414252543A2041626E87
:102510006F726D616C207465726D696E6174696F44
:102520006E00000010B500F039F8BDE81040FFF76C
:10253000DCBF10B500F04CF8BDE81040FFF7D5BF88
:1025400010B50449FFF7B6FFBDE810400148FFF79A
:1025500048B900004005002010B5FFF7AAFC00684C
:10256000BDE8104000F05CB870B505460C460A2086
:1025700000E06D1C22F0C6FE35B128780028F8D1A5
:1025800002E0641C22F0BEFE14B120780028F8D1CD
:10259000BDE870400A2022F0B5BE000010B501462B
:1025A00002A0FFF7E1FF012010BD00005349475290
:1025B000545245443A2052656469726563743A2006
:1025C00063616E2774206F70656E3A200000000012
:1025D00010B5012805D0002103A0FFF7C5FF012099
:1025E00010BD09A1F8E7000053494752544D454D2D
:1025F0003A204F7574206F662068656170206D65A4
:102600006D6F7279000000003A2048656170206D9E
:10261000656D6F727920636F727275707465640096
:1026200010B50C3022F0BCFC10BD000083B080B5AA
:1026300083B0844605A840F2EC4E0EC005ABC2F252
:10264000000E00206FF0004162460293CDF800E0DA
:1026500041F060FF03B0BDE8804003B07047000068
:1026600081B080B583B0059305AB4FF0000C0293A9
:10267000CDF800C041F04EFF03B0BDE8804001B08E
:102680007047000080B54FF6004249F6D00149F688
:10269000CC00C2F20302C2F20001C2F20000914279
:1026A00018BF08464FF60041C2F2030118BF114699
:1026B000FEF780FD80BD00000020704700207047BD
:1026C00000207047002070470020704700207047AE
:1026D000002070470020704700207047002070479E
:1026E0000020704780B582B04FF0000CCDF800C0DC
:1026F00041F010FF02B080BD44F27C71C2F20001D3
:102700000865704780B522F03BFF008880BD00005F
:1027100080B589B391F90200B0F1FF3F19DDC0B275
:10272000602805D344F27C70C2F20000806B0EE09A
:10273000402805D344F27C70C2F20000C06B06E072
:10274000202811D344F27C70C2F20000406B8268F2
:1027500007E044F27C70C2F20000026C002A08BF5D
:1027600080BD0846904780BD44F27C70C2F20000F4
:10277000006B82680846904780BD000080B544F237
:102780007C71C2F2000181F8540041F2341041F62C
:102790004012C0F20B00C0F20B02C1E90C00C1E90B
:1027A0000E2245F2B56145F26D62C0F20801C0F239
:1027B0000802042005F046F845F29D51C0F20801D8
:1027C000002002F015FD80BD1B296FF00A0202D027
:1027D0001D2918BF002280B510440CF077FF80BD82
:1027E00010B582B040F23841C2F20001096844F2EB
:1027F0007C72C2F200028C88D06403F05DFF043862
:10280000A04207DA0024002077210022022300944E
:1028100022F00CFF02B010BDB0B582B004460A2011
:102820000D4622F06BFF60B103460220188018208D
:1028300018725D720025204600210C22009523F0BD
:1028400069FB02B0B0BD00002DE9F04782B0DDF8B1
:102850002890804609F10F0080B21D4617460C46AD
:1028600022F04CFFC8B1064609F10700DDE90B1A5A
:10287000308006202A0A307206F10F00B2734A46F1
:102880007480B7807573FFF73EF9404621460322F6
:102890003346CDF800A023F03DFB02B0BDE8F08741
:1028A000F0B581B006460D201C4617460D4622F0B5
:1028B00025FF60B1034605201880042018723046B9
:1028C000294602225D809F80009423F023FB01B003
:1028D000F0BD000010B5013880B2002122F056FF93
:1028E000D0B104460068807800F01200102813D19F
:1028F000092022F003FF002808BF10BD034620680E
:102900000122817801F0EF0181701E201872206889
:102910000189042004F0EAFE10BD0000B0B544F2C5
:102920007C7CC2F2000C44F2D4709CF854E0C2F2F9
:10293000000000210122C0F82C1180F8302100BFD6
:102940000CEB011201310023002400BFC518C25056
:102950002C3385F82840582B04F1010485F824E035
:10296000A98385F82910F1D1032900F15800E7D196
:1029700041F25010C0F20B00CCF83000B0BD0000A6
:10298000B0B582B004460B200D4622F0B7FE70B100
:1029900003460320188002201872280A5D7298727C
:1029A0000025204600210122009523F0B3FA02B051
:1029B000B0BD00002DE9F04782B08046DDE90B098B
:1029C0000C46B9FA89F1B0FA80F04909400950EA99
:1029D00001054FF00D0018BF03F10D0080B21E4637
:1029E000924623F053F8F8B1074600680A9906802A
:1029F0003868A0F802A04FF0160038724FEA142091
:102A00007C72B87235B107F10D0528463246FFF7E2
:102A10007AF8294638680B224160404621463B46F9
:102A2000CDF8009023F076FA02B0BDE8F087000000
:102A30002DE9F04381B0804603F10D001F46154695
:102A40000C4622F05BFEA8B10646781DDDE90819A8
:102A500030801020307206F10D003A467480B58047
:102A6000FFF751F84046214608223346CDF8009042
:102A700023F050FA01B0BDE8F08300002DE9F043E7
:102A800081B0804603F10D001F4615460C4622F02A
:102A900035FEA8B10646781DDDE90819308008200A
:102AA000307206F10D003A467480B580FFF72BF8BE
:102AB0004046214604223346CDF8009023F02AFAFE
:102AC00001B0BDE8F0830000F0B581B006460D20EE
:102AD0001C4617460D4622F011FE70B10346052034
:102AE00018800C201872280A98723046294606224F
:102AF0005F805D72009423F00DFA01B0F0BD00001C
:102B0000F0B581B00746092000EB410016460D469E
:102B100022F0F4FDC8B10346680040F001001880BF
:102B200031880E20187255B1D81DB21E12F8026FEE
:102B3000013D00F8026F56782C064670F6D100264B
:102B400038460722009623F0E5F901B0F0BD0000F9
:102B5000B0B582B005460B200C4622F0CFFD80B107
:102B60000346032018800A201872200A98724FF03A
:102B7000000C2846214605225C72CDF800C023F0E7
:102B8000C9F902B0B0BD000044F2D47041F2E811BE
:102B9000C2F20000C0F20B01C0F82C117047000017
:102BA0002DE9F04782B0DDF828801D4691460C469D
:102BB000064602F039FB40B1304621462A464346DC
:102BC00000F026F802B0BDE8F08705F1170080B2EA
:102BD00022F094FDC8B1074605F10F003880D220DD
:102BE0003872200A07F10B0AB872504641462A464D
:102BF0007C72FEF788FF4AF8059000253046214692
:102C000011223B46009523F085F902B0BDE8F0871C
:102C10002DE9F04182B0804602F10B0080B21F46E0
:102C200015460C4622F06AFDA8B10646E81C308025
:102C30005220210A307206F10B00B17239462A4641
:102C40007472FEF760FF0027404621460A22334691
:102C5000009723F05FF902B0BDE8F0812DE9F04163
:102C600082B0804602F10B0080B21F4615460C462A
:102C700022F044FDA8B10646E81C30801220210A4B
:102C8000307206F10B00B17239462A467472FEF7B3
:102C90003AFF00274046214609223346009723F099
:102CA00039F902B0BDE8F08110B504460CF0D8FD4A
:102CB00044F6081CC2F2000CDCF8201169B1238A2A
:102CC0000A8A934202D2002208E000BF0A4609683D
:102CD00021B1088A8342F9D200E000220CF59070FD
:102CE00021460CF05DFD012023F046FD0CF0D4FDE3
:102CF00010BD000044F60811C2F20001C1F8300115
:102D00007047000080B523F06FFB80BDB0B50C4666
:102D1000054602F089FA44F64021C2F20001C96872
:102D200004EB440201EB4201097988423CBF0020D8
:102D3000B0BD2846214600F001F8B0BD10B50C46E4
:102D400023F064FB002814BF30F81400002010BDED
:102D50002DE9F0410C46064623F018FB48B3054622
:102D6000F4B144F64028C2F2000898F8140000B309
:102D700000270AE0013798F81410F8B202348842AC
:102D800005F1020528BFBDE8F0812088288023884E
:102D9000002BEFD0F9B23046002223F00DFBE9E71B
:102DA00044F64020C2F20000007D41002846FEF7B4
:102DB000B0FFBDE8F081000044F64023C2F20003FA
:102DC0001875C3E9031244F6081046F22141C2F215
:102DD0000000C0F20801C0F834117047B0B51446C5
:102DE0000D4623F013FB002818BF20F81540B0BD96
:102DF00044F65821C2F2000101EB400010F8010C2A
:102E000070470000012A88BF704780B544F65823F8
:102E1000C2F2000303EB4000831E08461946FEF78A
:102E200072FEBDE88040704740B144F65822C2F2BD
:102E3000000202EB400000F8011C10E044F6582CA0
:102E40006FF00100C2F2000C0CEB0003DA780230E4
:102E5000022A0A4608BF01220428DA70F4D170471A
:102E600080B525F043F9006880BD000080B584B0CE
:102E70009C4613464FF0000E1D22CDE9012E002284
:102E8000CDF800C023F080FE04B080BD80B584B0D2
:102E90009C4613464FF0000E1B22CDE9012E002266
:102EA000CDF800C023F070FE04B080BD80B544F2C0
:102EB0007C70C2F2000044F6081C90F854E0C2F2A4
:102EC000000C0022634600BF01326FF01F0100BFFB
:102ED00058182C31382980F82CE08284F8D1032A44
:102EE00003F15803F0D141F20020C0F20B00CCF8FE
:102EF000280180BD80B544F60811C2F2000141F2FC
:102F0000341245F2256344F27C7C0020C0F20B02AF
:102F1000C0F20803A1F12C0EC2F2000CC1E9480076
:102F2000C1E94A230CEB001301300022714600BFB7
:102F300081F851200132CB6381F85000022A01F15F
:102F40002C01F5D103280EF1580EEBD141F2F0100F
:102F5000C0F20B00CCF8340080BD000010B5044670
:102F60000CF07EFC44F60810C2F20000D0F82011EC
:102F700071B10A8AA24201D1002205E00A4609681D
:102F800031B10B8AA342F9D100F590700CF036FCF8
:102F9000012023F0F1FB0CF07FFC10BD70B582B076
:102FA00015460C4606460CF05BFC01A9304623F0A2
:102FB000FBFC28B106468089A04203D20D240CE018
:102FC0000A240AE0706829462246FEF79CFDB07B81
:102FD000000744BFB068048000240CF05DFC20466C
:102FE00002B070BDB0B514460D4625F07FF84560BF
:102FF0000473B0BD10B50C4625F078F8046010BD20
:1030000044F66820C2F200000021C0E90C1144F629
:10301000081048F2FD01C2F20000C0F20801C0F839
:103020002C1140F2BC2047F6B151C2F20000C0F2B0
:10303000080141647047000048F6EC41C2F200010B
:1030400009688968814228BF70476FEA510282424D
:1030500001F101029CBF10447047490811448142AC
:1030600028BF801A7047000080B549F6FD6149F617
:103070003152C0F20801C0F20802032025F00CFB17
:1030800044F6A020C2F200000021C0E90011C0E90E
:103090000211C0E90411C0E9061180BD80B549F6EE
:1030A0004D71C0F208010720002225F0F5FA4AF21E
:1030B0002901C0F208010820002225F0EDFA44F6AB
:1030C000C830C2F200002421FEF745FE80BD00009A
:1030D00080B548F69571C0F208010620002225F05F
:1030E000DBFA44F6EC30C2F200003421FEF733FE86
:1030F00080BD000080B548F6F97148F6CD52C0F2A7
:103100000801C0F20802042025F0C6FA44F6745003
:10311000C2F200000021C0E90011C0E90211C0E9BB
:103120000411816180BD000080B549F6D57149F672
:103130003952C0F20801C0F20802052025F0ACFAAD
:1031400044F67450C2F200000021C0E90011C0E949
:103150000211C0E90411816180BD00002DE9F04138
:1031600082B041F20015C4F20005D5F80402C00790
:1031700028D0286830B30020286028684FF2045017
:10318000C4F201004FF48041416049F28560C2F20F
:1031900000000178012906D141F25051C4F200012A
:1031A00009680A2909D00178022964D141F25051F5
:1031B000C4F20001096802295DD144F027F802B089
:1031C000BDE8F081D5F80402400733D5A86888B37C
:1031D0000020A86048F24418A868C4F200084FF420
:1031E000003048F24054C8F8C4010820C4F200047A
:1031F00021F06EFB0220C5F8000145F2C800C2F2C2
:1032000000000178012940F08C8045F24E52C2F254
:1032100000021378032B72D145F26220C2F2000043
:1032200001781820032900F0AB80022908BF0C2088
:103230000021B1E0D5F80402000740F11281E868EE
:10324000002800F00E810020E86045F24E56E86844
:10325000C2F20006307803282DD10220307044F0ED
:1032600011F845F25C20C2F2000001680020884796
:1032700002B0BDE8F08145F24E51C2F200010A7879
:10328000032A18BF02780978042903D0017802299B
:1032900040F0F58000226A6048F244116A68C4F286
:1032A00000014FF40032C1F8C0210A68002A1CBF97
:1032B00001220A60E3E03078042840F0D28045F231
:1032C0006820C2F200000068427848F24050C4F220
:1032D0000000816845F20420C2F200000378032B4D
:1032E00000F0D280022BA1F1090000F0EB80012B4D
:1032F00040F0ED806FF03901A1EBC201EBE0012954
:103300000FD11278042A0CD1286D012840F01E81BB
:1033100045F20520C2F2000001210170002028655D
:103320001AE1022940F0948045F24E52C2F20002A6
:103330001378042B0BD145F20421C2F20001097865
:1033400003295AD002295DD1142110225CE0022900
:103350007ED1117803297BD1D0E901104FF20452BC
:1033600028392160A5F58071C4F20102C2F88010ED
:103370004FF480410028116018BF43F067FE35E12B
:1033800045F26321C2F200010978C022012904BF7D
:10339000062030220146104645F20422C2F2000205
:1033A0001278032A05D0022A09D108221023B12657
:1033B00008E050224FF4807340F20B1602E008221E
:1033C0002023A126A7680844384400F16A014FF27F
:1033D00004572160A5F1FC01C4F20107C7F8801071
:1033E0004FF480413960F1181144084460600020B6
:1033F000C8F80000D8F8000024E06E214FF4807275
:10340000A12302E0042120225923D0E901704FF2C8
:103410000456333F2760A5F1FC07C4F20106C6F845
:1034200080704FF48047376027681A44114439444C
:1034300061600021C8F80010D8F80010002818BFFB
:1034400043F004FE49F28560C2F2000002210170DF
:10345000012048F8F80C2068E168401AB0F1FF3FFD
:1034600002DD02B0BDE8F0814FF20450C4F2010069
:103470004FF48041416049F28560C2F200000021B2
:10348000017002B0BDE8F08145F20520C2F20000F3
:1034900003786FF03F00012B08BF6FF00F006FF053
:1034A0009F0702F1020208BF6FF0130750436FF04D
:1034B00013023944012B08BF6FF01C021144A1F222
:1034C000811108E06FF01C01A1EB820103E00020F4
:1034D000A0EBC200413941F25054C4F2000454F848
:1034E000087C01EB000809F04DFE07F07F0108445D
:1034F0000221317045F20521C2F200010E7849F235
:103500008661C2F20001097845F26322C2F200022C
:10351000002908BF3146117045F20022C2F20002B4
:10352000D5F8001317684FF6BC62CFF6FF72A258A9
:10353000C907C0F1000041B201D1042000E0002021
:1035400043460096B84702B0BDE8F08145F2052039
:10355000C2F200000221017045F20420C2F2000014
:103560000078032805D0022817D1002002217122FB
:1035700017E045F20520C2F2000003781820012B65
:103580006FF0B30140F2251208BF062008BF6FF0AC
:103590003001012B08BF952203E000206FF00101EC
:1035A0007D2245F26223C2F200031B7845F26426B5
:1035B0009F1EB7FA87F77F09032B08BF4FF0FF372D
:1035C000A3681144C2F20006084496F9006018444A
:1035D000384430444FF204512060A5F58070C4F2A5
:1035E0000101C1F880004FF48040086049F2856015
:1035F000C2F2000001212AE780B582B048F208300B
:10360000C4F200004FF40031016041F20410C4F232
:103610000000006808B102B080BD43F0F7FD45F23C
:103620000020C2F20000D0F800C04FF0000E0320CE
:10363000002100220023CDF800E0E04702B080BD69
:103640002DE9F04F87B006468A460888317CC8408D
:10365000C00758D044F6B841C2F2000148889846E5
:1036600001304880D6E90001994649F8080FD96031
:10367000C8E90001B07C1D46DAF8041005F8130F04
:1036800014469874C1F3801011462A464B4624F024
:1036900075FF02284FF0000B00F0B8800694012857
:1036A00008BF4FF0010BDAF80400DAE90474297856
:1036B000D9E90023CDE90274C0F3C007C0F380004C
:1036C000009724F0FBFEBAF80210327C074621FA7C
:1036D00002F02978D9E9002300F0010024F0B2FFBC
:1036E00087421AD9DAF80400DAE904742978D9E9AA
:1036F0000023CDE90274C0F3C007C0F38000009737
:1037000024F0DCFE14E044F6B840C2F20000018868
:103710004FF0000B0131018078E0BAF80200317CF3
:10372000D9E90023C840297800F0010024F08AFF7D
:10373000002818BF012802D14FF0010B07E0022832
:1037400005D1BBF1000F02D04FF0000B5EE0707CA2
:103750000121800788F814B088F8151002D44FF0C2
:10376000010B53E0D9E90012F77CDAF80400D6E93E
:1037700002642B78CDE904120699C0F300103A4692
:10378000CDE90064029324F0BBFE8346012806D0F5
:10379000BBF1020F05D100204FF0000B32E00020FA
:1037A00030E00AF1040207CACDE90212C0F3400575
:1037B00000F00100394632462346009524F05CFEB5
:1037C000022812D14FF0000067B104F4404191F497
:1037D000804F4FF0000B15D19AF8040080064FF08F
:1037E000000004D44FF0000B0CE001200AE044F686
:1037F000B842C2F20002118C4FF0010B013111846A
:1038000088F81500002818BF4FF0010B5FFA8BF005
:1038100007B0BDE8F08F000070B582B009F0D0F8B5
:1038200048F2FD3548F2693448F2DD76C0F2080509
:10383000C0F2080448F2A973C0F20806C0F20803F7
:10384000012029462246009601F054F848F2B97347
:10385000C0F20803022029462246009601F04AF8E9
:1038600048F2E57648F2C973C0F20806C0F20803D0
:10387000032000212246009601F03CF848F27141F5
:10388000C0F20801012001F045F844F62040C2F2E0
:1038900000009821FEF75FFA02B070BDB0B544F6A3
:1038A000DE4CC2F2000C00258CF8005044F6DF4CD0
:1038B0008C07C2F2000C0C468CF8005001F1040E8B
:1038C00018BF2EF0030404EB0013591A48F6E04326
:1038D000C2F2000391421C609CBF8CF800000D46B0
:1038E000A8B2B0BDB0B544F6E44CC2F2000C00255D
:1038F0008CF8005044F6E54C8C07C2F2000C0C46E4
:1039000000EBC0038CF8005001F1040E18BF2EF03C
:10391000030404EBC303591A48F6E443C2F200035C
:1039200091421C609CBF8CF800000D46A8B2B0BD4F
:1039300010B544F6E74CC2F2000C4FF0000E44F60E
:10394000E6438CF800E044F6E84CC2F200038C0732
:10395000C2F2000C83F800E001F104030C468CF87D
:1039600000E018BF23F0030404EBC003591A48F623
:10397000E843C2F2000391421C609CBF8CF8000037
:103980008E461FFA8EF010BD2DE9F04F8BB08246A7
:1039900000781D460E4600F00F030888012101FA49
:1039A00003F919EA000F0FD0144644F6B842C2F2E8
:1039B000000251889AF80100013119F4C07F51804A
:1039C0000CD04FF00108EFE044F6B840C2F200001E
:1039D00001884FF0000801310180E5E000F03F0070
:1039E0002B746874504610F8021B0893C1F38018BA
:1039F00001F020F82B4643F8080FE960C5E9000103
:103A00002F46706807F8138FC0F3801021463A469E
:103A100085F812800A9324F0B1FD02284FF00008C7
:103A200000F0C28001280996CDE9064508BF4FF095
:103A30000108099EDDF828B07068D6E9044C397891
:103A4000DBE90023CDE9024CC0F3C004C0F38000E1
:103A5000009424F033FD7188044619EA0100397896
:103A6000DBE9002318BF012024F0ECFD844211D9CA
:103A7000DDF828907068D6E9044C3978D9E900233C
:103A8000CDE9024CC0F3C004C0F38000009424F0E0
:103A900015FD0BE07088397810EA0900DDF82890F0
:103AA000D9E9002318BF012024F0CCFDDDF81CB0BB
:103AB0003D46002818BF012830D14FF00108089971
:103AC000012005298BF814808BF815002ED888402A
:103AD00010F02A0F2AD01AF8080B0890C409504693
:103AE00000F0A8FF07460998D9E9002640682B781E
:103AF0008946CDE90426CDE900710699C0F300108E
:103B00002246029324F0FCFC8046012811D0B8F133
:103B1000020F10D100204FF0000841E00228CED162
:103B2000B8F1000FCBD04FF000083DE04FF0010896
:103B30003AE0002034E0099A4B46161D43CE02912C
:103B4000C0F34001009100F0010021463A4603967F
:103B500024F092FC022816D1089840B2B0F1FF3F41
:103B60004FF000000CDC09F4404191F4804F4FF01D
:103B7000000815D10998007980064FF0000004D4A0
:103B80004FF000080CE001200AE044F6B842C2F20F
:103B90000002118C4FF00108013111848BF81500DF
:103BA000002818BF4FF001085FFA88F00BB0BDE89D
:103BB000F08F0000B0B547F63042C2F2000292F832
:103BC000EBC081F800C092F8EAE092F8EB30734560
:103BD00008D1D2E936E3D2E93854634085EA0E05CC
:103BE0002B4302D04CF002030B70D2E93812C0E92B
:103BF0000012B0BDB0B590F813C082F800C090F8C4
:103C000012E0C37C734508D1D0E900E3D0E9025447
:103C1000634085EA0E052B4302D04CF0020313707B
:103C2000D0E90202C1E90002B0BD0000B0B590F8D1
:103C300013C082F800C090F812E0C37C734508D12D
:103C4000D0E900E3D0E90254634085EA0E052B4336
:103C500002D04CF002031370D0E90202C1E9000265
:103C6000B0BD0000B0B546F6B072C2F2000292F8E4
:103C70006BC181F800C092F86AE192F86B3173452C
:103C800008D1D2E956E3D2E95854634085EA0E05DB
:103C90002B4302D04CF002030B70D2E95812C0E95A
:103CA0000012B0BDB0B590F813C082F800C090F813
:103CB00012E0C37C734508D1D0E900E3D0E9025497
:103CC000634085EA0E052B4302D04CF002031370CB
:103CD000D0E90202C1E90002B0BD0000B0B590F821
:103CE00013C082F800C090F812E0C37C734508D17D
:103CF000D0E900E3D0E90254634085EA0E052B4386
:103D000002D04CF002031370D0E90202C1E90002B4
:103D1000B0BD0000B0B590F813C082F800C090F8B4
:103D200012E0C37C734508D1D0E900E3D0E9025426
:103D3000634085EA0E052B4302D04CF0020313705A
:103D4000D0E90202C1E90002B0BD000080B547F62B
:103D50003041C2F2000191F8EA2091F8EB30934231
:103D60004FF00002C0E900220AD1D1E936CED1E9F4
:103D7000383282EA0E0283EA0C031A4308BF80BD80
:103D8000D1E93612C0E9001280BD000080B5827C06
:103D9000C37C93424FF00002C1E900220AD1D0E96E
:103DA00000CED0E9023282EA0E0283EA0C031A4303
:103DB00008BF80BDD0E90002C1E9000280BD00005B
:103DC00080B5827CC37C93424FF00002C1E900229F
:103DD0000AD1D0E900CED0E9023282EA0E0283EAAB
:103DE0000C031A4308BF80BDD0E90002C1E90002FC
:103DF00080BD000080B546F6B071C2F2000191F8B6
:103E00006A2191F86B3193424FF00002C0E9002221
:103E10000AD1D1E956CED1E9583282EA0E0283EABC
:103E20000C031A4308BF80BDD1E95612C0E9001245
:103E300080BD000080B549F24501C0F208010920AB
:103E4000002224F029FC45F2D810C2F200002421FF
:103E5000FDF781FF80BD000070B544F6DE4C44F6EE
:103E6000DF41C2F2000CC2F200019CF800E00978C8
:103E70008E4524BF002070BD48F6E041C2F200012B
:103E80000968049C01EB0E1528720EF101004FEA3F
:103E90000E166C728CF8000001208A516B6070BDA8
:103EA0002DE9F04144F6DE46C2F2000631780029E1
:103EB00018BF012128D048F6E044C2F2000496F869
:103EC00000E02568DDF818C0F04608350026BEF190
:103ED000010F98BF4FF001080AE000BF0136764598
:103EE0004FF0000138BF0121B04505F110050BD09E
:103EF0002F788742F2D155E902745C4057403C4329
:103F0000ECD16C786445E9D101F00100BDE8F081A5
:103F100044F6DE40C2F2000000210170704700004C
:103F200044F6DF40C2F20000007870472DE9F04F00
:103F300044F6DE4CC2F2000C9CF800E0BEF1000F2B
:103F4000714618BF01213ED048F6E045C2F2000597
:103F50009CF800B0D5F80080DDF82490DA4608F12E
:103F600008050027BBF1010F98BF4FF0010A09E0D7
:103F700001375F454FF0000138BF01211035BA45C8
:103F8000DE4620D02E788642F2D155E902645C40AC
:103F900056403443ECD16C784C45E9D15FFA8EF051
:103FA00002280CD30138874209D008EB001213898C
:103FB00000012B80526858F8000045E90202AEF17A
:103FC00001008CF8000001F00100BDE8F08F000056
:103FD000F0B581B01E461546074624F01DFA04468A
:103FE000B0B944F6E44044F6E542C2F20000C2F241
:103FF000000201781278914256D248F6E442C2F2A9
:104000000002126801EBC10302EBC304013101702D
:10401000002C4CD0DDE9061046EA0742C4E90852FC
:104020000A684B688F68C9682260E160012163609B
:10403000A76084F840100021625C22B90E2901F1CA
:104040000101F9D902E0002184F8401001684268BA
:104050008368C768204640F8101F0121C76083604D
:10406000426080F8311000216218127C22B90E29BA
:1040700001F10101F8D902E0002184F8411094F81F
:10408000411000294FF00001A4F84210C4E90A11C0
:10409000C4E90C11C4E90E1103D124F009FCC4E9F0
:1040A0000C01012001B0F0BD0024002CB2D1002091
:1040B00001B0F0BD2DE9F04182B0DDE90878144689
:1040C000064610463A4643460D4624F0A5F920B16F
:1040D00090F8411019B1002423E0002421E0D0E938
:1040E0000E0169407040084301D1012419E044F6F3
:1040F000E040C2F20000D0F800C0BCF1000F0FD0C9
:1041000044F6B840C2F20000818C00220131818463
:10411000304629462346CDE900780024E04700E0F8
:104120000024204602B0BDE8F081000070B582B0E6
:1041300044F6E445C2F200052C788CB348F6E4441A
:10414000C2F2000495F800E02568BEF1010F98BFA7
:104150004FF0010E05F120044FF0000C08E04FF085
:10416000010C0125CDB1BEF1010E04F1480419D0B6
:1041700094F82050002DF4D1D4E902564E40454029
:104180003543ECD1A57905F001051570A5882668A1
:10419000C3E900650025002DE5D14FF0010C1EE0BC
:1041A0004FF0000CBCF1000F4FF0000C17D044F69C
:1041B000E046C2F2000634688CB144F6B846C2F25A
:1041C0000006758C0135758492F800C0D3E900268D
:1041D0006346009201220196A0474FF0000C604612
:1041E00002B070BD44F6E440C2F20000002101704C
:1041F00070470000B0B524F00FF918B1044690F8EC
:10420000400008B10020B0BD94F84200049D38B9C8
:10421000204624F04DFBC4E90A01012084F8420045
:10422000D4E90A01C5E900010120B0BD80B524F040
:10423000F3F828B1029990F843000870012080BD7E
:10424000002080BD44F6E540C2F2000000787047CF
:104250002DE9F04381B044F6E448C2F2000898F832
:10426000000050B348F6E4490026C2F200090125D7
:10427000002708E084F8445098F80000013787428E
:1042800006F1480619D2D9F80000841994F84100C3
:1042900028B904F1100024F00BFBC4E90C0194F8D8
:1042A00040000028E6D194F842000028E2D02046E1
:1042B00024F0FEFAC4E90A01DCE701B0BDE8F083AE
:1042C00070B51446DDE90423054620460E4624F069
:1042D000A3F850B190F8411039B9D0E90E017140FE
:1042E0006840084304BF012070BD002070BD00007D
:1042F00080B524F091F8014600284FF0000008BF77
:1043000080BD91F8442081F84400104680BD000033
:1043100080B524F081F860B1D0E90C1211431CBFC4
:10432000032080BD90F841100120002908BF022021
:1043300080BD002080BD000080B524F06DF860B124
:10434000D0E90A1211431CBF032080BD90F8401031
:104350000120002908BF022080BD002080BD000090
:1043600080B524F059F800281CBFD0E90C0150EAB0
:10437000010201D1002080BD029AC2E900010120A2
:1043800080BD000080B524F047F800281CBFD0E9AC
:104390000A0150EA010201D1002080BD029AC2E95F
:1043A0000001012080BD0000B0B524F035F8B8B19F
:1043B00044F6E444C2F200042578022D0CD348F6FA
:1043C000E441C2F20001096805EBC50201EBC2013C
:1043D00048394822FDF71EFC681E20700120B0BD40
:1043E0000020B0BD2DE9F0410C461178D3E900233F
:1043F0000546084624F010F844F6B848C2F2000812
:1044000008F1140728B1064690F8410018B10020C1
:1044100018E0002016E0D6E90E016140684008432C
:1044200004BF0120BDE8F08106F110002A462346B2
:1044300025F03EFF00280FBF0020C6E90E5408F10A
:1044400016070120398801313980BDE8F08100006C
:104450002DE9F04F81B044F6E44AC2F2000A9146D9
:104460009AF800200093002A41D048F6E44B0E460B
:1044700007460025C2F2000B4FF0000808E000BF1D
:104480009AF8000008F10108804505F148052ED290
:10449000DBF80000441994F840000028F0D1D4E97A
:1044A0000A0171407840084312D020463A4633460C
:1044B00025F0FEFE0028E3D044F6B841C4E90A76B0
:1044C000C2F200014A8A002084F84200501C48824F
:1044D00094F82600009A00F0010089F80000A08CF2
:1044E000216AC2E90010012001B0BDE8F08F44F656
:1044F000B840C2F20000018A01310182002001B0FF
:10450000BDE8F08F44F6E041C2F200010860704758
:1045100080B523F081FF00280FBF0020029980F8AA
:104520004310012080BD000080B523F075FF30B13D
:104530000299D1E90012C0E90C12012080BD0020CF
:1045400080BD000070B544F62046C2F200060C465D
:104550000546C6F88C00A6F8881000F085F9806A38
:10456000007805280AD196F87000002818BF70BDA1
:1045700024F0E4F82846214608F080FA70BD0000D7
:1045800080B549F2A10148F6FD52C0F20801C0F21F
:104590000802022024F080F845F20C20C2F200004C
:1045A0002821FDF7D8FB80BDB0B54AF259144AF274
:1045B0000111C0F20804C0F20801002022460025C3
:1045C00024F06AF84AF2B101C0F208010120224643
:1045D00024F062F845F23420C2F20000C0E9005530
:1045E000C0E90255C0E904558561B0BD2DE9F0412F
:1045F0000C46054600F038F9806A007804280ED190
:1046000044F62040C2F2000090F8700038B924F05F
:1046100095F82846214608F017FBBDE8F08144F6DE
:104620007458C2F20008B8F8166008F0ABFB45F207
:10463000C407C2F200073968401AB04202D2B8F883
:10464000160003E008F09EFB3968401AA8F816002F
:1046500024F074F82846214608F058FBBDE8F081A4
:1046600070B51D461446064600F02AF808B1012030
:1046700070BD44F6E74044F6E842C2F20000C2F2E0
:10468000000201781278914224BF002070BD48F6E4
:10469000E842C2F20002126845EA064302EBC10694
:1046A00042F83140013173600170012070BD00009B
:1046B00044F6E640C2F2000001210170704700009C
:1046C00010B544F6E74EC2F2000E9EF80010B1B1EC
:1046D00043EA004C48F6E840C2F2000001689EF848
:1046E00000E0002001EBC00351F830405B6854400B
:1046F00083EA0C03234304D001307045F2D3002039
:1047000010BD012010BD000044F6E740C2F20000D9
:104710000021017044F6E640C2F2000001707047CB
:1047200044F6E840C2F200000078704744F6E640E4
:10473000C2F2000000787047F0B544F6E74CC2F2D0
:10474000000C9CF80010C9B143EA004E48F6E8405E
:10475000C2F2000000689CF800300024E6B200EBD2
:10476000C60550F836606F68564087EA0E073E432C
:1047700006D00134E1B299421946EFD30020F0BDD2
:10478000CAB2022A05D300EBC20050E90202C5E911
:104790000002481E8CF800000120F0BD44F6E640FF
:1047A000C2F20000002101707047000010B544F60D
:1047B000EC44C2F200042068002808BF10BD417D0F
:1047C00001EB410104EBC101C968002918BF88470A
:1047D0000020206010BD0000B0B544F6EC45C2F2E8
:1047E00000050446286095F881000021002885F81E
:1047F000821008BF08F0BEFA95F8810030B195F834
:104800008000617D884218BF24F07CFF95F881000C
:1048100010B9607D24F060FF607D00EB400005EB87
:10482000C000816809B12046884795F882000028B9
:104830001CBF00202860B0BD48F6EC40C2F200006A
:10484000006880687047000044F6EC40C2F2000047
:1048500090F882007047000048F6EC40C2F2000079
:10486000006800887047000044F6EC40C2F2000087
:104870000068704748F6EC40C2F200000068C0884B
:1048800070470000B0B50D46FEF7D6FB044628463B
:10489000FEF7D2FB48F6EC41C2F20001844207D990
:1048A0000968201A8968B0EB510F88BF0020B0BD9D
:1048B0000968021B896800208B1AB2EB510F88BF70
:1048C000581CB0BD80B508F07FFA44F6EC40C2F247
:1048D00000008421FDF73FFA80BD000048F6EC415E
:1048E000C2F200010860704744F6EC41C2F20001D8
:1048F0004860704780B500EB400E44F6EC40C2F2D1
:10490000000000EBCE000830DDF808C080E80E1093
:1049100080BD000044F6EC4200EB4000C2F2000211
:1049200002EBC0008161704744F6EC40C2F2000027
:10493000016800291CBF012180F882107047000027
:10494000B0B544F6EC45C2F2000595F88110044676
:1049500021B908F00FFA204624F0BEFE04EB440013
:1049600005EBC000C1690131C161B0BD80B544F63D
:10497000EC4100EB4002C2F2000101EBC202D3693C
:10498000013BD3610BD191F8812042B191F88010A5
:10499000814218BF80BD24F0B5FE08F0E1F980BD6A
:1049A00010B544F6EC44C2F20004206840B1407DEA
:1049B00000EB400004EBC0008069002818BF80476E
:1049C000002061682060012084F88200884710BDC3
:1049D000110A4170110C4FEA132C8170110E0270F4
:1049E000C170037180F805C07047000000220146C5
:1049F000828006300A60704780B50622FDF714F801
:104A0000B0FA80F0400980BD8A8882800968016020
:104A10007047000080B582B00021ADF8041000910D
:104A200069460622FDF700F8B0FA80F0400902B0AE
:104A300080BD0000026881881046704702684168A6
:104A40001046704745F2C300C2F20000007800280B
:104A500008BF70474FF20830C4F200000121016026
:104A600044F6B150C2F200004178FF2906D045F269
:104A70006021C2F20001097841707047FEE7000032
:104A800080B525F019FE40F25C31C2F200010860E9
:104A900080BD000080B540F25C30C2F200000068CA
:104AA000C04343F01DFD80BD40F25C30C2F2000007
:104AB0004FF0FF3101607047D1F800C04B68CA6801
:104AC0008968C26081604360C0F800C07047000020
:104AD0004A68096842600160704700000139013886
:104AE000102200BF11F801CF10F8013F013A8CEA03
:104AF000030C130680F800C0F4D1704780B581B173
:104B000041F2342C013AC0F20B0C00BF12F801EF55
:104B1000C3B283EA0E035CF82330013983EA102024
:104B2000F4D1C04380BD00002DE9F04F83B045F2C1
:104B30007C2BC2F2000BDBF8040010B103B0BDE81F
:104B4000F08F9BF8095000260DF10B080DF10209BA
:104B50000DF1040A002403E0032C04F10104EDD25A
:104B6000E8B201358DF80B60022888BF0025EFB24E
:104B7000780050FA85F00BEB8000436A0196002B19
:104B8000ADF80260E8D040464946524698470028B2
:104B9000E2D001999DF80B00CBF804108BF80800C7
:104BA0008BF8095025F0D6FB9DF80B10BDF80220BC
:104BB000019B384625F012FC03B0BDE8F08F0000E1
:104BC000F0B581B045F27C27C2F200070D460646DB
:104BD000384668211446FDF7BEF8284621463E7047
:104BE000BD81FC8100F04EF801B0F0BD80B545F20A
:104BF0007C20C2F200004068002818BF80BD002061
:104C0000FFF792FF80BD0000032888BF704700EBCC
:104C1000400C45F27C20C2F2000000EB8C001C30FE
:104C20000EC0704745F27C21C2F2000188617047D6
:104C30004EF60450CEF200004FF000610160704764
:104C4000B0B582B08DF807100DF1070001211C46A8
:104C5000154612F057FC2046294612F053FC284610
:104C600002B0B0BD10B540F25C34C2F200044FF0A7
:104C7000FF32226025F020FD2060C04343F030FC6D
:104C800010BD00007047000010B5144601294FF018
:104C9000000206D0052903D0022907D1012200E035
:104CA000032211461A4625F067FB2246104610BD26
:104CB0000139C9B2022984BF0020704780B54FEA8C
:104CC000C10C40F20241C0F2050121FA0CF1C9B257
:104CD000FFF7B6FF80BD000080B501F03DFD80BD4F
:104CE00080B504200AF0CCFC002808BF80BD014636
:104CF00045F2A430C2F20000007B05228A700AF05F
:104D0000F3FC80BD2DE9F04107460E20984616467B
:104D10000C460AF0B5FC002808BFBDE8F081054646
:104D20000020A870E81D41466C712F71AE71FFF72D
:104D30006BFE45F2A430C2F20000007B29460AF067
:104D4000D3FCBDE8F081000070B514460D46064660
:104D50000AF086FD45F2AC41C6EBC600C2F2000186
:104D600001EB4000C57004710AF096FD70BD0000B3
:104D700080B50AF075FD40F2083041F24471C2F28C
:104D80000000C0F20B01016026F006F845F2A840D1
:104D9000C2F2000000210160002002F0F3FB0AF0E3
:104DA0007BFD80BDB0B50C4605460AF059FD45F2C5
:104DB000AC41C5EBC500C2F2000101EB40008470BC
:104DC0000AF06AFDB0BD000010B5044606200AF0E6
:104DD00057FC002808BF10BD01460420887045F22A
:104DE000A430C2F20000007B0C710AF07DFC10BD03
:104DF000B0B50C4605460AF033FD45F2AC41C5EBB3
:104E0000C500C2F2000101EB400004720AF044FD4B
:104E1000B0BD000010B504460AF022FD45F2A430F2
:104E2000C2F2000084730AF037FD10BDB0B50C4625
:104E300005460AF015FD45F26030C2F20000284434
:104E4000C4770AF029FDB0BD2DE9F041064603F113
:104E500008001C4690460F460AF012FC002808BFC6
:104E6000BDE8F081054606990120A87005F108000B
:104E700022462E716F7185F80680EC71FCF743FEB7
:104E800045F2A430C2F20000007B29460AF02CFC57
:104E9000BDE8F081B0B50C4605460AF0E1FC45F2EC
:104EA000AC41C5EBC500C2F2000101EB4000447209
:104EB0000AF0F2FCB0BD000070B514460D4606467F
:104EC0000AF0CEFC45F26030C2F2000000EB460072
:104ED0000582C4820AF0E0FC70BD0000F0B581B02C
:104EE0001C4615460E4607460AF0BAFC45F2AC4190
:104EF000C7EBC700C2F2000101EB400046718571AB
:104F0000C4710AF0C9FC01B0F0BD000070B50646DE
:104F10000C200D460AF0B4FB002808BF70BD044603
:104F20000620A070601D29462671FFF76DFD45F231
:104F3000A430C2F20000007B21460AF0D5FB70BD10
:104F40002DE9F04107461220984615460E460AF014
:104F500097FB002808BFBDE8F08101460220887059
:104F60000F717FB1002000BF325C0B185A7135F809
:104F7000102001EB4004228118F800200130874204
:104F80009A73F1D145F2A430C2F20000007B0AF01E
:104F9000ABFBBDE8F0810000B0B5044608200D462B
:104FA0000AF06EFB002808BFB0BD014603208870E0
:104FB0000C713CB1081D6A1E12F8013F013C00F85B
:104FC000013FF9D145F2A430C2F20000007B0AF0A3
:104FD0008BFBB0BDB0B50C4605460AF041FC45F26E
:104FE000AC41C5EBC500C2F2000101EB40004470CA
:104FF0000AF052FCB0BD000080B501F003FC80BD9A
:10500000B0B586B094460A46DDE90A1E0C9C01251F
:10501000CDE9003100216346CDF808E00495039402
:1050200026F054FA06B0B0BD10B504460AF018FCDC
:1050300045F2C83104EB4400C2F2000101EB00105C
:1050400030F8224C0AF028FC204610BD70B504460A
:10505000242015460E460AF013FB002808BF70BD39
:1050600001461920887045F2A430C2F20000007B8E
:105070000E800D71CD704C710AF036FB70BD0000D2
:1050800045F2C831C2F200010C31032207E000BF33
:10509000013A130601F1300104BF002070478B7AFA
:1050A000002BF5D00B888342F2D1087970470000BD
:1050B00045F2C83100EB4000C2F2000101EB0010E4
:1050C00010F81A0C7047000080B50AF0C9FB40F2D6
:1050D000083041F2A47141F25072C2F20000C0F2F5
:1050E0000B01C0F20B02C0E9031241F62001C0F22D
:1050F0000B01816345F2BC3041F25C71C2F20000E9
:10510000C0F20B01016045F29C4041F60C01C2F275
:105110000000C0F20B0101600AF0BEFB80BD000080
:1051200045F2C83100EB4000C2F2000101EB001073
:105130002A38704745F2C83100EB4000C2F2000146
:1051400001EB001010F81C0C7047000045F2C8314C
:1051500000EB4000C2F2000101EB0010163870476E
:1051600080B50AF07DFB45F2BC3041F27C71C2F2A1
:105170000000C0F20B01416045F29C4041F6100175
:10518000C2F20000C0F20B0141600AF085FB80BD55
:1051900080B586B09C460023CDE90033029204938B
:1051A00000220023CDF80CC026F090F906B080BD97
:1051B00045F2C83100EB4000C2F2000101EB0010E3
:1051C0003038704745F2C83100EB4000C2F20001B0
:1051D00001EB001010F81D0C7047000045F2C831BB
:1051E00000EB4000C2F2000101EB001010387047E4
:1051F000B0B50C4605460AF033FB45F2C830C2F2A2
:10520000000000EB8500C0F890400AF045FBB0BDFF
:1052100045F2C83100EB4000C2F2000101EB001082
:1052200010F8170C7047000045F2C83100EB400041
:10523000C2F2000101EB001010F8190C70470000D9
:1052400010B504460AF00CFB45F2A430C2F200008F
:1052500044730AF021FB10BD80B50146012026F001
:10526000CFF980BD70B516460C4605460AF0F8FA2F
:105270002846FFF71DFF68B145F2C83105EB450030
:10528000C2F2000101EB00103EB130F8221C2143B4
:1052900020F8221C0AF000FB70BD30F8221CA1434C
:1052A00020F8221C0AF0F8FA70BD000080B50A460A
:1052B0000146012026F0C0F980BD000080B50AF04B
:1052C000CFFA45F2BC3041F29471C2F20000C0F254
:1052D0000B01816045F29C4041F61801C2F20000CA
:1052E000C0F20B0181600AF0D7FA80BD70B50646A6
:1052F00024200D460AF0C4F9002808BF70BD0446FA
:105300003046FFF785FF7121002808BF7021A1708A
:10531000268028686968AA68606045F2A430A160A8
:10532000E260C2F20000007B21460AF0DDF970BDA8
:1053300080B504200AF0A4F9002808BF80BD01460A
:1053400045F2A430C2F20000007B38228A700AF0D5
:10535000CBF980BD80B526F09BFB80BD80B50A46A9
:105360000146002026F094FB80BD000010B50446E5
:1053700045F2A430C2F200002146FFF745FB20466B
:1053800001F066FF10BD000080B501F0CFF980BDCF
:1053900080B501F04FFA80BD80B501F0D9FC80BD29
:1053A00080B50AF05DFA40F2083041F23871C2F27D
:1053B0000000C0F20B01016041F69C01C0F20B013C
:1053C000816226F043FE27F0C5F945F2A84046F673
:1053D000CD61C2F20000C0F206010160002002F0BF
:1053E000C5F84FF440500021012202F0A1F80AF064
:1053F00053FA80BD80B50AF033FA45F2BC3041F271
:105400007471C2F20000C0F20B01416045F29C4091
:1054100041F61001C2F20000C0F20B0141600AF037
:105420003BFA80BD2DE9F0410C46054600264FF0C1
:1054300001080020002708E0062E88BFBDE8F081A3
:10544000F8B2032806F101060CD208FA06F22A4245
:10545000F2D000EB400004EB8001D0B226F0D0F88F
:105460000137E9E7BDE8F0812DE9F04381B09146CD
:105470000D46064600274FF001080020002400BF1B
:1054800008FA07F3334207D035F8101039F8102026
:10549000D8B226F0D1F80134062F04D8E0B20328A0
:1054A00007F10107ECD301B0BDE8F08380B50AF045
:1054B000D7F945F2BC3041F28471C2F20000C0F26B
:1054C0000B01816045F29C4041F61801C2F20000D8
:1054D000C0F20B0181600AF0DFF980BD80B50AF0EF
:1054E000BFF940F2083041F6CC01C2F20000C0F230
:1054F0000B01816027F052FC27F03AFE0AF0CCF94C
:1055000080BD000010B5D1B192F800E04FF0000C62
:10551000BEF1000F11D08BB273450ED9144614F8AA
:10552000013F9446834208D06FEA0E0211440A04F8
:1055300004EB0E02E8D14FF0000C604610BD0020D5
:1055400010BD000080B599B145F2A430C2F2000050
:10555000007C002818BF80BD88787C2202EA5000B9
:1055600040F20832C2F200021058826808469047A2
:1055700080BD000080B545F2A431C2F2000108737D
:105580000020C87508744CF2C950C0F2080001F040
:105590006FF880BD45F2A431C2F20001C97D002937
:1055A00008BF7047022804BF00207047032808BFC7
:1055B0000120704780B50146032027F01FF880BD09
:1055C00080B582B0ADF8041045F2C831C2F20001D6
:1055D000D1F89C107622ADF806006846ADF802209E
:1055E000884702B080BD000010B582B00C4625F09F
:1055F0008DFE38B173218DF802106946ADF8044074
:1056000026F070F902B010BDB0B584B0054608466A
:10561000144625F07BFE40B172218DF8061001A9D9
:1056200002948DF80C5026F05DF904B0B0BD000076
:1056300045F2A431C2F20001C97D002908BF7047BC
:10564000002804BF02207047012808BF03207047CC
:1056500010B5044606200AF013F8002808BF10BD54
:1056600001465020887045F2A430C2F20000007B51
:105670000C710AF039F810BDB0B50C4605460AF0B9
:10568000EFF845F2DA4105EB4500C2F2000101EB0B
:10569000400004710AF000F9B0BD00002DE9F041AE
:1056A000044602F10800984615460F4609F0E8FF47
:1056B000002808BFBDE8F08106465120B070F01DFB
:1056C00041462A4634717771B571FCF71CFA45F2F0
:1056D000A430C2F20000007B31460AF005F8BDE8B4
:1056E000F081000070B514460D4606460AF0B8F881
:1056F00045F2DA4106EB4600C2F2000101EB40023E
:1057000021F8105054800AF0C7F870BD10B5044657
:10571000062009F0B5FF002808BF10BD0146522041
:10572000887045F2A430C2F20000007B0C7109F0D1
:10573000DBFF10BD10B50446062009F0A1FF0028CC
:1057400008BF10BD01465320887045F2A430C2F254
:105750000000007B0C7109F0C7FF10BD80B50AF096
:105760007FF840F2083041F6A801C2F20000C0F212
:105770000B0141624FF410600021012201F0D8FEBC
:105780000AF08AF880BD00002DE9F04381B004469C
:105790002C20984616460F4609F072FFF0B10546D8
:1057A000DDE908903121A9702880681D39462C71E7
:1057B000FFF72AF905F10B003146FFF77DF905F1F6
:1057C0001B004146FFF778F945F2A430C2F2000011
:1057D000007B294685F82B9009F086FF01B0BDE8D3
:1057E000F083000080B52C2009F04AFF002808BF94
:1057F00080BD01463320887045F2A430C2F200001B
:10580000007B09F071FF80BD70B5054614200E467F
:1058100009F036FF002808BF70BD04463620A0708E
:10582000201D29462680FFF747F945F2A430C2F231
:105830000000007B214609F057FF70BD80B50AF0DB
:105840000FF840F2083041F6C001C2F20000C0F289
:105850000B01816141F6B401C0F20B01C1630AF092
:105860001BF880BDF0B581B007460C2016460D46EA
:1058700009F006FF80B104463220A070601D294661
:1058800026802771FFF7C0F845F2A430C2F200006D
:10589000007B214609F028FF01B0F0BDF0B581B0D2
:1058A00005461A2017460E4609F0EAFEA0B1044646
:1058B0003020A070201D31462780FFF7FDF804F14D
:1058C00014002946FFF7A0F845F2A430C2F2000008
:1058D000007B214609F008FF01B0F0BD10B5044679
:1058E0002C2009F0CDFE002808BF10BD0146342051
:1058F00088700020088045F2A430C2F20000007BCE
:105900000C7109F0F1FE10BDF0B581B007460C2016
:1059100014460E4609F0B4FE80B105463520A87045
:10592000681D31462F71FFF76FF845F2A430C2F2BF
:105930000000007B2946EC7209F0D6FE01B0F0BDF4
:1059400080B501F099FC80BD10B5044609F088FFD0
:10595000204625F0F3FC044609F09EFF002C08BF0A
:1059600010BDA08901F078F910BD000010B59AB003
:1059700040F20831C2F20001096A41F6380245F2EC
:10598000A434C0F20B02C2F200049142A0600AD01B
:1059900000F092FE442806D80020C0F27710A168DB
:1059A000019001A888471AB010BD0000B0B50546A7
:1059B00006200C4609F064FE002808BFB0BD014671
:1059C0002320887045F2A430C2F20000007B0D80D5
:1059D0000C7109F089FEB0BDB0B5054610200C462B
:1059E00009F04EFE002808BFB0BD01462220887095
:1059F0000D8020686268A368486045F2A4308A6020
:105A0000CB60C2F20000007B09F06EFEB0BD00006A
:105A100080B501F0B3F980BD80B509F021FF40F2F7
:105A2000083041F6D801C2F20000C0F20B018160DB
:105A300027F0B4F909F030FF80BD000080B527F0F1
:105A4000D5F980BD10B5044609F00AFF45F2A4302F
:105A5000C2F20000C47309F01FFF10BD2DE9F0432E
:105A600081B091460D46064600274FF00108002000
:105A7000002400BF08FA07F3334207D035F81010AE
:105A800039F81020D8B227F0D7F90134062F04D8FE
:105A9000E0B2032807F10107ECD301B0BDE8F083C1
:105AA0002DE9F04381B007461020984616468946F6
:105AB000102409F0E5FD30B3DDE908EC01468470FF
:105AC0000771431D00200024002200BF27FA00F5C3
:105AD000ED0702D0355D01321D55D4B2022C03D83A
:105AE000072800F10100F1D345F2A430C2F2000012
:105AF000007B81F80890A1F80AE0A1F80CC081F8B9
:105B00000E8009F0F1FD01B0BDE8F08380B50420FE
:105B100009F0B6FD002808BF80BD014645F2A4305B
:105B2000C2F20000007B11228A7009F0DDFD80BD09
:105B3000F0B581B00746162015460C4609F0A0FDC9
:105B400068B106460420B0703780347525B1301D29
:105B500029462246FBF7D7FF304609F0E5F801B0A9
:105B6000F0BD0000F0B58BB0044610200D4609F0E2
:105B700091FC45F23C5745F2A436C2F20007C2F24E
:105B80000006386018B32146FEF796FF412009F061
:105B900081FCC8B129462022044609F097F929461C
:105BA000202209F093F9002101703868337B4025E9
:105BB000009121464122019508F088FE08B10BB002
:105BC000F0BD204609F096FC386809F093FC02AC61
:105BD00020462421FCF7BFF840F23370B168ADF8DD
:105BE0000A00204688470BB0F0BD0000B0B505465E
:105BF00004200C4609F044FD002808BFB0BD032175
:105C000081700580C47009F08FF8B0BD70B505468D
:105C100016200E4609F034FD002808BF70BD04466A
:105C2000058016B11620A07004E0284621460C22FB
:105C300009F0ACF9204609F077F870BDF0B581B0F5
:105C40000746202016460C4609F01AFD88B1054685
:105C50002820A870281D31461A222F80FBF753FFF9
:105C600045F2A430C2F20000007B2946AC7709F06F
:105C70003BFD01B0F0BD0000C0684DF6836100BA85
:105C8000C4F21B31A0FB0112910C43F6095251439F
:105C9000A0EB81107047000048F2B800C2F200008B
:105CA0007047000045F22C50C2F200004068704777
:105CB00080B545F22C50C2F20000817BFF2914BF51
:105CC000083000F0DBFC80BD45F22C50C2F2000031
:105CD000817BB1F1FF0018BF0846704745F22C5098
:105CE000C2F200000068704740F2083041F6E4015B
:105CF000C2F20000C0F20B01416145F22C5041F2AA
:105D00002221C2F20000C0F20B01C0E90011FF2104
:105D100081737047B0B5044606200D4609F0B0FC0B
:105D2000002808BFB0BD172105710480817008F0FC
:105D3000FBFFB0BD40F2083041F6F001C2F20000B6
:105D4000C0F20B01016270472DE9F04104461620B4
:105D5000984616460F4609F093FC002808BFBDE898
:105D6000F08105462920A8702C802F756E751FB113
:105D7000281D4146FEF7A0FE45F2A430C2F2000005
:105D8000007B294609F0B0FCBDE8F081F0B581B098
:105D9000074608201C4615460E4609F071FC68B1FE
:105DA00006990122827004F0070201F007010780C2
:105DB000067145718271C17108F0B6FF01B0F0BD86
:105DC000F0B581B0074608201C4615460E4609F07E
:105DD00057FC68B106990222827004F0070201F0B4
:105DE00007010780067145718271C17108F09CFF3F
:105DF00001B0F0BD80B5014648F2B800C2F2000023
:105E00006022FBF780FE80BD10B5044609F028FD36
:105E100045F22C50C2F20000446009F03DFD10BD77
:105E2000B0B50C46054609F01BFD45F22C50C2F2F8
:105E30000000847308302946FEF7E6FD09F02CFDCA
:105E4000B0BD000010B5044609F00AFD45F22C5023
:105E5000C2F20000046009F01FFD10BD80B509F01A
:105E6000D7F880BDB0B5054606200C4609F008FC01
:105E7000002808BFB0BD052181700580047108F0BD
:105E800053FFB0BD80B501F04FF880BDF0B581B0D3
:105E90001C4615460E46074609F0E2FC384625F03A
:105EA0004DFA074609F0F8FC4FB1DDF818C0B88983
:105EB00031462A462346CDF800C001F097F901B0DB
:105EC000F0BD000010B5044680782C2801D02A28A7
:105ED00008D145F2C830C2F20000D0F8901009B1E4
:105EE0002046884745F2A430C2F20000816820466F
:105EF000884710BDB0B514460D4625F01FFA00289E
:105F000008BFB0BD00218289817441F2222105764B
:105F1000C0F20B0110460022234601F003FAB0BD87
:105F20002DE9F047984616468946044609F098FC44
:105F30002046314627F0AAF8054620B920463146CA
:105F400027F068F8054609F0A7FC4DB3122009F0C8
:105F500097FBF0B10746A87ADDF820A038805820DA
:105F6000B870B81D31463C7187F80590FEF74CFDBE
:105F700045F2A430C2F200000021007B397439469A
:105F8000A7F80C80A7F80EA009F0AEFBA87ABDE830
:105F9000F08709F065FC284627F08EF809F07CFCB4
:105FA0000020BDE8F087000010B50446042009F089
:105FB00067FB002808BF10BD0146048045F2A430ED
:105FC000C2F20000007B59228A7009F08DFB10BDDF
:105FD000B0B5054606200C4609F052FB002808BF64
:105FE000B0BD01462520887045F2A430C2F2000001
:105FF000007B0D808C8009F077FBB0BDF0B591B0CF
:106000000646104615460C4647F0C8F808B111B0D0
:10601000F0BD09AF3846214647F084FA01A8314661
:106020003A4647F071FA3846394647F07BFA20463F
:1060300021462A4647F068FA2846294647F072FA70
:10604000304631462A4647F093F9284629462A46E3
:1060500047F08EF9284631462A4647F071FA304615
:1060600031462A4647F050FA28463146324647F034
:106070007FF9304631462A4647F07AF9304600210A
:1060800047F06CFB80B141F21872C0F20B0230464F
:10609000314647F03FF80746304647F0E3FAF069EB
:1060A00040EAC770F06102E0304647F0DBFA28466C
:1060B000314647F037FA01AF284629463A4647F0BD
:1060C0003FFA284629463A4647F03AFA38463946D2
:1060D0002A4647F035FA304631463A4647F014FA38
:1060E00009AF384631463A4647F02AFA3046294643
:1060F00047F0C6FA2846214647F0C2FA20463946FC
:1061000047F0BEFA11B0F0BD10B5044647F046F8AE
:1061100038B104F1200047F041F8002818BF0120F1
:1061200010BD002010BD00002DE9F04F8BB00446DB
:106130000078042827D88A461646DFE800F00326B0
:106140004266810004F12407DDF850A0384631464C
:1061500004F1040847F094FA04F1640506F1200103
:10616000284604F1440947F08BFA3846294642464E
:106170004B46CDF800A009F0C9FCFF20C4F884000C
:1061800000250120A9E00125A8E0D4F884101846D4
:1061900047F0E4FAB0FA80F1221D4B09002818BF3D
:1061A000012002EB401704F1440606EB401102EB1C
:1061B000431206EB4313384609F038FC0025022051
:1061C0008BE0D4F88410184647F0C8FAB0FA80F192
:1061D0004909221D002818BF012002EB411704F1D4
:1061E000440303EB411102EB401203EB401338462A
:1061F00009F0CEFBD4F8840000250138C4F88400EF
:106200004FF00300C8BF012067E0184600210025B9
:1062100047F0A4FAB0FA80F1221D4B09002818BFFC
:10622000012002EB401704F1440606EB401102EB9B
:10623000431206EB4313384609F0F8FB04204CE008
:106240001846002147F08AFA0546B0FA80F0400966
:1062500004F1040903AF029004F1240138464A46D0
:10626000002D18BF012547F06BF904F1440808EB35
:10627000451B384639465A4647F046F938463946AE
:10628000324647F041F93846394647F089F806F179
:1062900020023846394647F037F909EB45153846AC
:1062A00039462A4647F030F902992A4609EB41104F
:1062B00008EB41115B4609F06BFB484641463A4604
:1062C0001FF068F85046494647F0DAF90AF1200015
:1062D000414647F0D5F901250520207028460BB02E
:1062E000BDE8F08F80B5930706D4D20700F10C000B
:1062F00015D11FF093F880BDC36802F0010203EAD4
:10630000010040EA020C8842184618BF0020002A0B
:1063100008BF1846BCF1000F08BF604680BD1FF0E3
:1063200055F880BD80B50C301FF014F980BD000019
:106330007047000080B540F23712C8F2010246F003
:10634000C5FC80BD80B540F23112C8F201020146A1
:1063500046F0BCFC80BD000080B540F23812C8F2A7
:10636000010246F0B3FC80BD80B540F23312C8F2A2
:10637000010246F0ABFC80BD80B540F23212C8F29B
:10638000010246F0A3FC80BD80B540F0CFFD46F091
:10639000DFFB80BD2DE9F04F89B04FF000080124EC
:1063A0004FF480760827CDE9068804E06400013FB9
:1063B00006F1040610D0B5B228463FF00DF90028CA
:1063C000F4D020463FF032F90028EFD028463FF0C5
:1063D000C3F848EA0408E9E74FF4BE703FF0FCF860
:1063E00040B14FF4BE703FF0B7F806A848F000483F
:1063F0003FF09AF85FEA08601CD00127002404E00F
:106400000134082C4FEA470714D017EA080FF7D0D9
:1064100020463FF0EBF8054620463FF0F1F80646EF
:10642000204623F065FF0028EAD002462846314680
:106430009047E5E7B8F1FF3F02DD09B0BDE8F08F16
:1064400048F21C1A4FF000084FF0FF30C2F2000A69
:106450006C4606AD4FF00009CDE90488CDE9020095
:1064600009E000BF4FF000094FF000085FEA096043
:106470004FF00009E1D00AEB080090F86060FF2EB1
:1064800048D006F03F07384602A93EF035FD002807
:1064900040D0384623F056FF23F02AFF0321B1EB0A
:1064A000961F834602D0BBF1000F33D04FEA961AF5
:1064B000BAF1030F03D1384604A93EF027FD384650
:1064C0003EF0BAFF0646384629463EF015FDB11E9D
:1064D000B1FA81F14909F21E0028B2FA82F208BF2E
:1064E0005109012911D1BAF1030F08D1022138460F
:1064F000022E08BF03213EF093FE09F10109BBF112
:10650000000F02D038465146D84748F21C1AC2F252
:10651000000A00BF08F10108B8F1040FABD15FEA2F
:1065200009609FD020463EF0FFFF002054F8201065
:1065300055F82020914203D101300228F6D191E78D
:10654000DDE90010CDE90610DDE90410CDE9021007
:106550008AE700004EF60450CEF2000000681021D9
:1065600001EA10607047000045F66402C2F20002C2
:10657000C2E904017047000070B582B039B1887873
:1065800001283DD1084628F065F902B070BDC0076A
:1065900036D045F66404C2F200040DF1070120462E
:1065A00009F07EF860B306460DF1070509E000BF6B
:1065B000304609F08BF82046294609F071F8064666
:1065C000F0B19DF8070002280CD0042812D1304603
:1065D00029F00CF994F821000028E9D0304628F081
:1065E00011FBE5E7304628F037F90028E3D02169B0
:1065F00004E000BFA1690029DAD030468847DAE715
:1066000002B070BD80B545F6A800C2F200000021BE
:10661000C0E91C116FF01B014FF6FF7243181C31CB
:1066200038299A85FAD14FF0FF31C0E91511C165BB
:106630001B21A0F87C1040F20511A0F88010002169
:10664000C0F8A01028F024FA80BD0000B0B50C46B8
:10665000054640F20640032128F0A6F8002808BFAE
:10666000B0BD290AC5700171447128F0CDF8B0BDE4
:1066700045F66401C2F200018860704745F6A80043
:10668000C2F200006830704745F6A800C2F2000070
:10669000B0F87E007047000045F6A800C2F2000086
:1066A000D0E922017047000045F6A800C2F20000C0
:1066B000B0F892007047000045F6A800C2F2000052
:1066C000B0F87C007047000045F6A800C2F2000058
:1066D00090F894007047000045F6A800C2F2000050
:1066E00090F895007047000045F6A800C2F200003F
:1066F00090F891007047000045F6A800C2F2000033
:1067000090F884007047000080B5FFF735FF80BD2A
:1067100080B545F66401C2F2000181F82000002036
:10672000C1E90000FFF76EFF80BD000070B50C46A8
:10673000054642F21100072128F036F8002808BF6C
:1067400070BD064604302146F570FEF75DF930460F
:1067500028F05AF870BD0000F0B581B00D4607462C
:1067600042F247000821144628F01EF848B10646B8
:1067700004302946F770FEF747F93046B47228F026
:1067800043F801B0F0BD00002DE9F041884607460E
:1067900042F2270027211C46164628F005F800285B
:1067A00008BFBDE8F081054604304146EF70FEF7B2
:1067B0002BF930687168F268B368C5F81620C5F81F
:1067C0001230C5F80E10C5F80A0020686168A2688A
:1067D000E368C5F81A002846C5F81E10C5F822203F
:1067E000C5F8263028F010F8BDE8F08180B542F2F7
:1067F0003D00002127F0D8FF002818BF28F004F83A
:1068000080BD000080B542F24900002127F0CCFF96
:10681000002818BF27F0F8FF80BD000080B542F2C5
:106820002900002127F0C0FF002818BF27F0ECFF47
:1068300080BD000080B542F21000002127F0B4FFB7
:10684000002818BF27F0E0FF80BD0000B0B50C465F
:10685000054642F213000E2127F0A6FF002808BFCC
:10686000B0BDA0F803502178417161788171A178A1
:10687000C171E17801722179417261798172A179E6
:10688000C172E1790173217A4173617A8173A17ACE
:10689000C173E17A017427F0B7FFB0BD80B542F251
:1068A0000E00002127F080FF002818BF27F0ACFF62
:1068B00080BD00002DE9F0470F46054642F20D006D
:1068C00019219846914627F06FFF002808BFBDE8C0
:1068D000F0870446C570280ADDE9081A2071380AD5
:1068E0000A9EA07104F10900677184F8079084F88A
:1068F0000880FEF789F884F80FA03078207470784B
:106900006074B078A074F078E07430792075707994
:106910006075B079A075F079E075307A2076707A7C
:106920006076B07AA076F07AE076204627F06CFFA9
:10693000BDE8F087B0B50C46054642F217002021AD
:1069400027F032FF002808BFB0BD29686A68EB68ED
:10695000AD68C0F80F30C0F80B50C0F80720C0F881
:10696000031021686268A368E568C0F81310C0F8D6
:106970001720C0F81B30C0F81F5027F045FFB0BDEE
:106980002DE9F0470746007A144688460026002184
:1069900020FA01F2D20718BF0136062904D8F2B254
:1069A000042A01F10101F3D35FFA86F94FEA0910D5
:1069B00000F10A0142F2430027F0F6FE002808BF6A
:1069C000BDE8F087824638788AF8030078788AF83C
:1069D0000400B8788AF8050079680AF10600FEF725
:1069E00013F8387A31068AF80C0034D04FEA49019E
:1069F00051FA86F1AAF103004FEA810CA21DA8F119
:106A0000020300279E78E51900F8106FDE784670C3
:106A100013F8046F86705E78C670E65D06716E7856
:106A20004671AE788671EE78C671D61916F8021CDA
:106A3000017216F8011C4172D15D0C3781727178B8
:106A4000BC45C172297A0173697A4173A97A81734D
:106A5000E97AC173D6D1504627F0D6FEBDE8F0875B
:106A6000F0B581B00E46074642F2420006211C46B0
:106A7000154627F099FE48B1290A8171210AC7708D
:106A800006714571C471017227F0BEFE01B0F0BD00
:106A900070B50C46064642F22600402127F084FEDF
:106AA000002808BF70BD0546033031462022FBF7A1
:106AB0002AF805F1230021462022FBF724F8284676
:106AC00027F0A2FE70BD000010B5044642F21B0084
:106AD000022127F069FE002808BF10BDA0F803407E
