:020000040000FA
:1000000000000420C9020000D50200006D020000BB
:10001000D902000075020000790200000000000013
:10002000000000000000000000000000A901000026
:10003000E102000000000000410200005102000047
:100040005D12000011130000E7020000E70200004B
:10005000E7020000E7020000E7020000E7020000FC
:10006000E7020000E7020000E7020000E7020000EC
:10007000E702000031130000E7020000E50C000079
:10008000E7020000E7020000E7020000E7020000CC
:10009000E7020000E7020000E7020000E7020000BC
:1000A000E7020000E7020000E7020000E7020000AC
:1000B000E7020000E702000000000000000000006E
:1000C000E7020000E7020000E7020000E70200008C
:1000D000E7020000E7020000E7020000E70200007C
:1000E000E7020000E7020000E70200000000000055
:1000F00000000000E702000000000000E70200002E
:1001000000F002F809F00CFD0AA090E8000C82440F
:100110008344AAF10107DA4501D109F001FDAFF2EC
:10012000090EBAE80F0013F0010F18BFFB1A43F0D5
:1001300001031847A81B0100C81B01000A4410F85E
:10014000014B14F00F0508BF10F8015B240908BF2C
:1001500010F8014B6D1E05D010F8013B6D1E01F823
:10016000013BF9D1641E03D0641E01F8015BFBD191
:100170009142E4D3704700000023002400250026AC
:10018000103A28BF78C1FBD8520728BF30C148BFFA
:100190000B6070471FB510F0ABF89DE8030000F04E
:1001A0001DFB00F0E7FA1FBD1EF0040F0CBFEFF3BC
:1001B0000880EFF30980816911F8021C91BB01B539
:1001C00090E80F10E047BDE800508CE80300244B96
:1001D00093E80600914208BF704741B91EF0100F26
:1001E00010D12049086820F0010008600AE02CE9DD
:1001F000F00F1EF0100F08BF2CED108AC1F838C0A8
:1002000081F822E01A6092F82210906B61F0FF0EE4
:100210001EF0100F08BFB0EC108AB0E8F00F80F3AA
:1002200009887047104A13689942FAD801B552F804
:1002300021C00FC8E047BDE80050CCF8000070476F
:1002400001B50DF03DFCBDE80140EFF3098CBEE7C0
:1002500001B50DF0C1FEBDE80140EFF3098CB6E732
:100260007402002034EF00E0200A0100102304E0B3
:10027000202302E0302300E040239C46F0B404AE8B
:100280007546E80801D3EFF309860E4F0FCE0FC76E
:100290000FBC0FC74046494652465B460FC71DCEAE
:1002A0003100A60A00D304316E0900D248311FC7BD
:1002B000EFF309806946EFF3148663C7604601498E
:1002C0000BF0E2FB00010020074880470748804709
:1002D00007480047FEE7FEE7FEE7FEE7FEE7FEE72A
:1002E000FEE7FEE7FEE7FEE7F116000045CC000062
:1002F00001010000704709F03BBC0844401E491E44
:10030000884370470821001DF7E72DE9F0411746A3
:100310000E460446FFF7F6FFA042054633D9002FEC
:100320001CBF06F10C0009F085FC30467468F4B17E
:100330002168A94217D305F1080291423CBF6168C8
:10034000416007D3626861194A602268521B0A60E3
:1003500041602560002F1CBF06F10C0009F0EAFC8B
:10036000201DBDE8F08120466468002CE0D12946BC
:10037000304600F01FFA0028D7D1002F1CBF06F12D
:100380000C0009F0D7FC0020BDE8F08110B5044650
:1003900000F007FA01682046BDE810400122B4E7EA
:1003A00070B516460D46041F002808BF70BD002E0C
:1003B0001CBF05F10C0009F03DFC2B4658680028D5
:1003C00018BFA04238BF0346F8D31968CA18A24222
:1003D00018BF5C6003D122681C4611441960216873
:1003E0000A19824218BF606004D1426862600068E6
:1003F00008442060002E1CBF05F10C0009F09AFC97
:1004000070BD10B5044600F0CCF901682046BDE887
:1004100010400122C4E753EA020C00F069802DE984
:10042000F04B4FF00006002B1FBFB3FA83F503FA21
:1004300005F424FA05F65E4012BF1643B2FA82F5BF
:1004400002FA05F4C5F120051EBF22FA05FC44EAB4
:100450000C04203556EA044C4FEA144418BF641CBF
:100460004FF000084FF00009904271EB030C39D3B4
:10047000002919BFB1FA81F701FA07F6B0FA80F73F
:1004800000FA07F6C7F120071EBF20FA07FC46EA6C
:100490000C062037B6FBF4FCA7EB0507103F07F06E
:1004A0001F0BCBF120062CFA06F60CFA0BFB44BF0F
:1004B000B3460026202FA4BF5E464FF0000B5BEA38
:1004C000060C08BF4FF0010B19EB0B0948EB0608AF
:1004D000ABFB027C06FB02CC0BFB03CCC01B71EB1D
:1004E0000C01C1E70B46024641464846BDE8F08B89
:1004F00013B5084318BF4FF0FF300146AFF300803B
:10050000BDE81C40704770B5044685690068C106A7
:1005100001D5302600E02026C00707D070BDD4E901
:10052000012130469047206A401C20626D1EF6D59E
:1005300070BD70B5044685690078C00707D170BDED
:10054000D4E9012120209047206A401C20626D1EC2
:10055000F6D570BD70B50C46064601F14C0528462F
:1005600009F068FB214630460FF0B5FE04462846E8
:1005700009F0E0FB204670BD10B5002000F0CAFA7B
:10058000AFF30080BDE81040012009F0E3BB10B5D7
:10059000431C02E010F8011B71B18107FAD14FF042
:1005A000013202C88C1A8C4314EAC211F9D0C01A65
:1005B0000A0603D0C01E10BDC01A10BD0A0401D027
:1005C000801E10BD0902FCD0401E10BD032A40F25F
:1005D000308010F0030C00F0158011F8013BBCF1E5
:1005E000020F624498BF11F801CB00F8013B38BFFD
:1005F00011F8013BA2F1040298BF00F801CB38BF0B
:1006000000F8013B11F0030300F02580083AC0F028
:10061000088051F8043B083A51F804CBA0E80810D0
:10062000F5E7121D5CBF51F8043B40F8043BAFF303
:100630000080D20724BF11F8013B11F801CB48BF5D
:1006400011F8012B24BF00F8013B00F801CB48BF93
:1006500000F8012B704710B5203AC0F00B80B1E8CC
:100660001850A0E81850B1E81850A0E81850203AE7
:10067000BFF4F5AF5FEA027C24BFB1E81850A0E8F0
:10068000185044BF18C918C0BDE810405FEA827C0A
:1006900024BF51F8043B40F8043B08BF7047D20721
:1006A00028BF31F8023B48BF11F8012B28BF20F8C2
:1006B000023B48BF00F8012B704702F0FF0343EAFA
:1006C000032242EA024200F00AB802F0FF0343EAC2
:1006D000032242EA024200F024B84FF0000204294B
:1006E000C0F0128010F0030C00F01B80CCF1040C61
:1006F000BCF1020F18BF00F8012BA8BF20F8022B95
:10070000A1EB0C0100F00DB85FEAC17C24BF00F83A
:10071000012B00F8012B48BF00F8012B70474FF068
:10072000000200B5134694469646203922BFA0E841
:100730000C50A0E80C50B1F12001BFF4F7AF09074D
:1007400028BFA0E80C5048BF0CC05DF804EB89003E
:1007500028BF40F8042B08BF704748BF20F8022B81
:1007600011F0804F18BF00F8012B70477047704799
:100770007047000070B5064C7C44064D7D4404E093
:100780002046016808448047241DAC42F8D170BD62
:10079000941501009C1501000048704730030020AB
:1007A000704710B5FFF7F8FF083010BD704770476D
:1007B0007047704738B504460A4600206946AFF3D3
:1007C0000080002808BF38BD02460099204600F08E
:1007D000AFF9012038BD012000F0EAB9F8B5AFF358
:1007E0000080054600200C46102000BF0646A819D0
:1007F000A0420DD9324669460020AFF300800700C1
:1008000008BF00F0D5F90098A04218BF0546C419EA
:10081000FFF7C7FF05600746F01D20F007004619E7
:10082000284600F00AF8B44208BFF8BDA21B3146C2
:100830003868BDE8F84000F07BB900210160C0E9EC
:1008400001100C3009F024BA102070472DE9F04750
:1008500005460C46C86820F4201040F48000C860AB
:10086000800602D5084600F034F9E06841F28201C2
:100870004FF0FF390140022903D0204600F0D2F8A2
:10088000B5E000F42041B1F5004F0FD1C00306D50B
:100890006168E06A884200D80846606006E0206926
:1008A000E0626060606909F057FAA061A068002208
:1008B000EEB200280DDAE1688B050AD4C043A060CF
:1008C00041F490302260E0606068411C6160067015
:1008D000A5E0E0689046226040F40050E0602069A6
:1008E00068BB606909F04CFA012704F12405A0B146
:1008F000A08910F4407F08D0E069FFF747FD206130
:1009000018B1E06840F4006016E0E7612561E06836
:1009100020F4407040F480600EE0E069FFF736FD9F
:1009200000282061F1D0E06840F4006010F4407FBE
:10093000E06002D140F48070E06020696060E068AF
:1009400025696FF0010AC1051FD56168E06A884218
:1009500000D80846411B04D02246284600F06CF817
:10096000F0BBE068010203D5E562C4E9015854E038
:10097000691CE1626160E16940F48030491EC4E9AC
:10098000021030462E70BDE8F087010202D500F457
:1009900080320AE06068411C61600670E0680A2EDF
:1009A00040F48030E06006D00022E16A6068814255
:1009B00003D90B4602E00122F7E70346A7895B1B38
:1009C0007F0503D4E7699F4200DDE2B1814200D890
:1009D0000146E5620F1AC4E90158002B09DD00E069
:1009E00005E022461946284600F026F808B1484698
:1009F000C9E747B1A069E5626560C01BA061E06816
:100A000040F01000E060E068000208D56168A0696D
:100A1000E562491B08446560A0615046B3E7304673
:100A2000B1E70000C16821F4001141F08001C1600C
:100A300000218160016070472DE9F047814614462E
:100A40000E464FF0FF383248D5685769054209D045
:100A50003846A16909F098F9002811DB2C48C043F9
:100A60000540E5602B4632464946384609F092F982
:100A7000A16920F00042B21A11440028A16103D0FC
:100A80002046FFF7CFFF4046BDE8F08770B504462B
:100A90000569C06A6168884200D80846E16821F4A7
:100AA0002011E160C90312D5A84208D02246411B9B
:100AB0002846FFF7C1FF10B14FF0FF3070BD002096
:100AC000E562C4E90150E06820F48030E060002075
:100AD00070BD10B50446C06820F02000E060A16A37
:100AE000A06988420DD02046FFF7D0FFE06820F4CF
:100AF000405040F01000E060A06AA0612069E06210
:100B0000606044F24001E0688843E06010BD00008E
:100B10001000020010B500F033F8BDE8104000F0FE
:100B200029B8801A0844401E491E88431044704763
:100B300070B5144605468C464368002B18BF6345C4
:100B400038BF1846F8D302681044604508D066469E
:100B5000604604220821FFF7E4FF811B8446641AE3
:100B60002946CCF80040BDE8704000220CF104009A
:100B7000FFF716BC002801D009F0ECB87047000060
:100B800010B5002102A000F022F8012010BD0000E5
:100B9000534947414252543A2041626E6F726D612F
:100BA0006C207465726D696E6174696F6E0000000F
:100BB00010B500F025F8BDE81040FFF7DBBF10B519
:100BC000FFF7EFFD0068BDE8104000F041B870B5D8
:100BD00005460C460A2000E06D1C09F0B1F935B15C
:100BE00028780028F8D102E0641C09F0A9F914B1B2
:100BF00020780028F8D1BDE870400A2009F0A0B99B
:100C000010B5012805D0002103A0FFF7E0FF012067
:100C100010BD09A1F8E7000053494752544D454D16
:100C20003A204F7574206F662068656170206D658D
:100C30006D6F7279000000003A2048656170206D88
:100C4000656D6F727920636F727275707465640080
:100C500010B50C3008F0FCFF10BD000081B080B56D
:100C600083B0059305AB4FF0000C0293CDF800C0A4
:100C70000AF0B8FF03B0BDE8804001B07047000043
:100C800080B54FF6004243F6101143F61010C2F241
:100C90000302C2F20001C2F20000914218BF0846EE
:100CA0004FF60041C2F2030118BF1146FFF772FA76
:100CB00080BD000000207047002070470020704772
:100CC00000207047002070470020704700207047C8
:100CD00080B582B04FF0000CCDF800C00AF082FF62
:100CE00002B080BD42F27870C2F2000000780028A5
:100CF00008BF70474FF20830C4F2000001210160C4
:100D000042F27460C2F200004178FF2906D042F23C
:100D10007A71C2F20001097841707047FEE7000065
:100D200080B509F089FB40F24C21C2F20001086055
:100D300080BD000080B540F24C20C2F20000006887
:100D4000C0430DF09FFF80BD40F24C20C2F2000076
:100D50004FF0FF31016070474EF60450CEF20000B4
:100D60004FF000610160704710B540F24C24C2F2B0
:100D700000044FF0FF32226009F05EFB2060C043A8
:100D80000DF080FF10BD00007047000080B540F2FC
:100D90003112C8F2010201460FF088F980BD00004F
:100DA00080B540F23812C8F201020FF07FF980BD21
:100DB00080B540F23312C8F201020FF077F980BD1E
:100DC00080B540F23212C8F201020FF06FF980BD17
:100DD00080B50DF0A1F90FF093F880BD2DE9F04F2B
:100DE00089B04FF0000801244FF480760827CDE940
:100DF000068804E06400013F06F1040610D0B5B295
:100E000028460BF067FE0028F4D020460BF08CFE3D
:100E10000028EFD028460BF01DFE48EA0408E9E759
:100E20004FF4BE700BF056FE40B14FF4BE700BF0A5
:100E300011FE06A848F000480BF0F4FD5FEA0860D8
:100E40001CD00127002404E00134082C4FEA470796
:100E500014D017EA080FF7D020460BF045FE0546E0
:100E600020460BF04BFE0646204609F069F90028A3
:100E7000EAD00246284631469047E5E7B8F1FF3F01
:100E800002DD09B0BDE8F08F42F6C80A4FF0000855
:100E90004FF0FF30C2F2000A6C4606AD4FF0000979
:100EA000CDE90488CDE9020009E000BF4FF0000958
:100EB0004FF000085FEA09604FF00009E1D00AEB4B
:100EC000080090F86060FF2E48D006F03F073846D3
:100ED00002A90BF033FB002840D0384609F05AF93C
:100EE00009F02EF90321B1EB961F834602D0BBF126
:100EF000000F33D04FEA961ABAF1030F03D13846E8
:100F000004A90BF025FB38460BF018FD06463846C1
:100F100029460BF013FBB11EB1FA81F14909F21E0B
:100F20000028B2FA82F208BF5109012911D1BAF1A1
:100F3000030F08D102213846022E08BF03210BF00F
:100F40000DFC09F10109BBF1000F02D038465146F2
:100F5000D84742F6C80AC2F2000A00BF08F10108E9
:100F6000B8F1040FABD15FEA09609FD020460BF0C7
:100F700059FD002054F8201055F82020914203D14B
:100F800001300228F6D191E7DDE90010CDE9061025
:100F9000DDE90410CDE902108AE700004EF60450A6
:100FA000CEF200000068102101EA106070470000D6
:100FB000EFF3108000281CBF01207047EFF3118071
:100FC000002818BF01207047EFF3108000281CBFD5
:100FD00001207047EFF31180002818BF01207047EF
:100FE000EFF3108000281CBF01207047EFF3118041
:100FF000002818BF01207047EFF3108000281CBFA5
:1010000001207047EFF31180002818BF01207047BE
:10101000EFF3108000281CBF01207047EFF3118010
:10102000002818BF01207047EFF30580002818BF83
:1010300001207047EFF30580002818BF012070479A
:10104000EFF30580002818BF01207047EFF30580FB
:10105000002818BF01207047EFF30580002818BF53
:1010600001207047EFF31480012121EA000070474E
:10107000B0B500F095F840F26024C2F200040125FA
:101080006572BFF34F8FFFF789FF002808BFB0BD1F
:10109000FFF762FEA572B0BD80B540F26020C2F2DB
:1010A000000000214172BFF34F8F827A12B181722A
:1010B00000F0FEFA00F07EF880BD000008447047A2
:1010C0007047000010B50446283008F0C1FF58B141
:1010D000E46A4CB1A01C09F019F818B1A468002CFE
:1010E000F8D10024204610BD0024204610BD000089
:1010F00010B584465CF8303F5BB191F803E0DA78D4
:1011000072450BD21A465B686BB1DC787445F9D333
:1011100005E00022C1E90122C1620DE00022C1E91F
:101120000132083303E0C1E9013200F12C031960F8
:10113000002A18BF02F1040C2830CCF8001008F087
:10114000BFFF10BDD1E9012C02F10803002A08BF3E
:1011500000F12C03C3F800C0D1E90112131D002ACD
:1011600008BF00F1300319607047000040F2000131
:10117000C2F2000101EB8000006C704740F20002F7
:10118000C2F2000202EB80000164704780B540F2B9
:101190003850C2F20000006807F08AFD80BD0000F0
:1011A00080B540F23850C2F20000006807F0DCFC65
:1011B00080BD000080B507F0D5FB07F0C7FC80BDFF
:1011C00080B507F057FD80BDB0B5B0F57A7F15D179
:1011D0000D4607F04FFD044600F09CFE20462946D0
:1011E000FFF7CCFF2046FFF7C1FFA8420ED1002C2D
:1011F00002D4204600F01CFE0020B0BD41F2FC717C
:1012000006A0C0F2010132220AF0EEFA41F2FC71AE
:1012100006A0C0F201013F220AF0E6FA667265718B
:10122000203D3D20313030300000000068616E64A8
:101230006C6572203D3D202849525148616E646CB6
:1012400065725F74294E5649435F476574566563FE
:10125000746F7228697271290000000010B50BF0DC
:10126000E3FC044640070AD54FF484700BF0D0FC31
:1012700028B142F62030C2F2000000688047A00684
:101280000BD54FF48A700BF0C3FC30B142F6B4308A
:10129000C2F2000001680020884760060BD54FF4B9
:1012A0008C700BF0B5FC30B142F6B430C2F20000E5
:1012B00001680120884720060BD54FF48E700BF093
:1012C000A7FC30B142F6C030C2F200000168002035
:1012D0008847E0050BD54FF490700BF099FC30B1C6
:1012E00042F6C030C2F20000016801208847A00524
:1012F0000DD54FF492700BF08BFC002808BF10BD89
:1013000042F6C030C2F2000001680220884710BDDA
:1013100080B540F20530C2F20000007843F26C4123
:10132000C2F2000151F82000002818BF804780BD9C
:1013300080B50BF09BFC0BF0A5FC42F6B031C2F27D
:1013400000010968884780BD80B50DF0AFFC4FF4FF
:10135000A2700BF0D3FC002842F6C400C2F20000D9
:1013600003D10178002908BF80BD017800291CBF86
:10137000002101700AF064F980BD0000F0B581B071
:10138000144640F29032C2F2000212780D46002A52
:10139000064608BF00F0ECFAEFF311874FF020018A
:1013A00081F3118830462946224600F005F887F37C
:1013B000118801B0F0BD000070B50D4640F29031CB
:1013C00000EB4000C2F2000101EBC001C86A144604
:1013D000022801F118060AD001280ED020B93046A3
:1013E00000F010FBA0420ED20024204670BD304613
:1013F0002946224600F05CFC70BD304600F002FB3E
:10140000A04238BF044630462946224600F084FCFC
:10141000204670BD82B080B582B0CDE9042304AA15
:10142000019201AA00F006F802B0BDE8804002B0C7
:10143000704700002DE9F04F97B0804602A8934610
:101440000E46129040204FF0000912AF4FF0080AEC
:101450001390CDF85880CDE914990AE0002900F0E6
:10146000E680384600F004FC1598B0F1FF3F40F3E9
:10147000DE8016F8011B2529F0D1002502E0013697
:101480000020F8B93078A0F123010D294FF00100B8
:10149000F7D8DFE801F009070707070707070C0778
:1014A0000F070713EDE700BF45F00805E7E745F034
:1014B0000405E4E745F00105E1E700BF45F002055A
:1014C000DDE700BF30780023A0F1300109290ED8F4
:1014D000014600BF16F8010F03EB830201EB420146
:1014E000A1F13003A0F130010A290146F2D32E28E0
:1014F00014D116F8010F0024A0F1300109290FD8EA
:1015000004EB840100EB410116F8010FA1F1300456
:10151000A0F130020A2AF3D302E000BF002400BF8A
:10152000013616F8010C253853283FF69DAFDFE849
:1015300000F0362B2B2B2B2B2B2B2B2B2B2B2B2B56
:101540002B2B2B2B2B2B2B2B2B2B2B2B2B2B2B2BEB
:101550002B2B2B2B2B2B2B2B2B2B2B2B2B2B2B2BDB
:101560002B2B2B2B2B2C2B2B2B2B2B2B2B2B2B2BCA
:1015700039402B2B2B2A2B2B2B2A2B2B2B4C2B2B79
:101580005C2B702B2B2CCBE76EE7DBF800001022D6
:10159000011DCBF8001001680093384642E0384640
:1015A00025215FE7DBF80000011DCBF80010017872
:1015B00057E7DBF800002246011DCBF80010016858
:1015C0003846009500F04CFA4EE7DBF80000102298
:1015D000011DCBF80010016838460823CDF800A0A3
:1015E000CDF8049000F0C4FA3EE7DBF80000011DDE
:1015F000CBF80010046800BF217800293FF434AF15
:101600003846013400F034FB1598B0F1FF3FF3DCAD
:101610002AE7DBF800000A22011DCBF80010016860
:10162000384600932346019500F0A2FA1CE7159D69
:10163000012D08DB149C24B102A940462246FFF785
:101640009DFE60191590159817B0BDE8F08F000049
:1016500080B542F62430C2F200000068804780BDA9
:1016600080B542F62C30C2F200000068804780BD91
:1016700080B542F63430C2F200000068804780BD79
:10168000B0B54EF62254CEF20004FF202070207830
:1016900080F0FF00B0FA80F0C0F1200508F098F962
:1016A000A84228BF451CFE20A84004F8030CB0BD8A
:1016B0004EF60450CEF200004FF0805101607047AA
:1016C0004EF60450CEF200004FF08051016070479A
:1016D000C0064FF0200058BF6020704740F2002045
:1016E00049F20001C2F20000C0F2D031016070473F
:1016F000B0B540F20414C4F2000408F061FF20B158
:101700000020A060E060C4F8340440F25825C1F223
:10171000000508F063FFB0B3D5F8AC114CF22050CF
:10172000C4F200000160D5F8B0114160D5F8B411E1
:101730008160D5F8B811C160D5F8BC110161D5F848
:10174000C0114161D5F8C4110162D5F8C8114162D8
:10175000D5F8CC118162D5F8D011C162D5F8D41179
:101760000163D5F8D8114163D5F8DC110164D5F8CF
:10177000E0114164D5F8E4118164D5F8E811C16441
:10178000D5F8EC11016508F037FF40B145F28C60E7
:1017900048F24811C4F20000C0F20301016008F0F1
:1017A000C3FE28B14FF21850C4F20000FB210160C3
:1017B00008F0C8FE48B140F6E460C4F200000168D9
:1017C0002A68090961F31F12026008F0C9FE30B1EE
:1017D00049F24060C4F202004FF40071016008F069
:1017E000CDFE00284EF688551FBFD4F8FC025FEAF4
:1017F000C0706FF00100C4F8FC02CEF20005296849
:1018000041F2002041F470012960BFF34F8FC1F213
:101810000000BFF36F8F016800292DD44168B1F13A
:10182000FF3F29DDFFF75AFF01200021C4F814040F
:10183000216044F8FC0C00BF20680028FCD0686FD1
:1018400040F08070686740F25C50C4F200000168AC
:1018500041F480310160016841F00301016040F210
:101860004870C5F2000040F2013101601020CEF254
:10187000040000210160B0BD4EF20041C4F201013C
:101880000122C1F804210A68002AFCD01222026059
:101890000A68002AFCD01222426008680028FCD0A6
:1018A0000020C1F8040108680028FCD008F0D4F832
:1018B00080B5930706D4D20700F1280015D108F0AF
:1018C0009BFB80BD836A02F0010203EA010040EA4B
:1018D000020C8842184618BF0020002A08BF18468C
:1018E000BCF1000F08BF604680BD08F071FB80BDF1
:1018F00010B540F2602CC2F2000CDCF84430FBB1B1
:101900001A698A4206D9B3FA83F24FEA521E0024BA
:101910000BE000BF1C46DB68891A93B11A6991423B
:10192000F8D2B3FA83F24FEA521EBEF1000FC0E9BB
:101930000243016108D11A699860511A196103E0E4
:101940000024C0E90243016104F10C01002C08BF2E
:101950000CF14401086010BDC16800291CBF8268F9
:101960008A60C06840F26021C2F20001486470479A
:1019700080B540F29030C2F200000221002340F610
:10198000283240F24C5E8362C0E9041140F23C51BF
:10199000C0F20102C2F2000E4FF4805CC2F20001FC
:1019A000C0E9062EC0E908C3C362C0E9122145F2AE
:1019B00052414FF0100CC0F25401C0F850C04365C2
:1019C000C0E91633C0F8071044F24751C0F2520183
:1019D000C0F8031044F25351C4F247710160202152
:1019E000817180BD80B508F05DF880BD80B508F0DC
:1019F00077F880BD80B508F05DF808F07BF808F056
:101A000085F880BDC268016991428FBFD04380686C
:101A1000D24311440844704780B507F0A5FF80BD4C
:101A200080B507F06DFF07F0B3FF80BD80B507F00C
:101A300077FF07F0B5FF80BD10B5044607F078FFCB
:101A4000204607F0B5FF10BD80B507F0D1FF80BD7F
:101A500080B507F0D5FF80BD80B507F0D9FF80BD08
:101A60002DE9F04F83B08A460546BAF1000F504683
:101A70009146C1F1000148BF08460A284FF001070E
:101A800002910CDB46F26761C6F2666150FB01F21F
:101A90009410632804EBD27007F10107F6DC0C9E6A
:101AA0004F4538BF4F464FF0000443B106F00400E5
:101AB000BAF1000F48BF012444EA90001C1AB9F1A2
:101AC000000F06F0020B02D1BBF1000F13D1F0079B
:101AD00011D184B1B846BC4238BFA046A74209D252
:101AE00028462021013C00F0C3F8E868B0F1FF3F30
:101AF000F4DC00E04446E86800281DD4BAF1000F89
:101B000003D4700707D52B2102E0DDF808A02D21B2
:101B1000284600F0ADF8E86800280DD4BBF1000FAE
:101B20000DD1E868002807D4284651460A224B46C2
:101B30000094019600F01CF803B0BDE8F08F06F0A9
:101B4000010050EA0900ECD1002CEAD0B846BC42B2
:101B500038BFA046A74209D228463021013C00F0F8
:101B600087F8E868B0F1FF3FF4DCDAE74446D8E7ED
:101B70002DE9F04F81B08B46DDE90AA11F461546DD
:101B8000934581464FF0010405D35846B0FBF5F06C
:101B90000134A842FAD2BC4238BF3C46BAF1000F29
:101BA00001F0010000901ED0E8B988074FF020082E
:101BB00048BF4FF03008002F26464FF0200018BFD6
:101BC0008046544588BF564654450BD24846414648
:101BD000AAF1010A00F04CF8D9F80C00B0F1FF3F6F
:101BE000F2DC00E0B246D9F80C00002824D401262B
:101BF00002E000BF013F6E43022FFBD2BBFBF6F0B9
:101C0000A842F8D20FF25808BBFBF6F7484618F87E
:101C1000071000F02DF8D9F80C00002806D4B6FB08
:101C2000F5F007FB16BBAE420646EDD20098002841
:101C300018BFBAF1000F02D101B0BDE8F08F0AF170
:101C4000010500BF013DAC42F6D24846202100F01C
:101C50000FF8D9F80C00B0F1FF3FF3DCECE700BF60
:101C600030313233343536373839414243444546D2
:101C700010B5D0E901320446501C984205D82368BB
:101C80009954E168A060481CE060D4E901028242F6
:101C900018BF10BD21682069FFF770FBA16888425A
:101CA00002D10020A06010BD4FF0FF30E06010BDF9
:101CB0002DE9F04381B0C76814460D4680464FF0C9
:101CC00000091EE0D8F80810FA4310440844D8E987
:101CD0000121CE1BB04238BF0646A64228BF264689
:101CE000D01929463246FEF771FCD8F80800F119E0
:101CF000A41B0F1AB144354418BF0F46C8F80C7026
:101D00002CB1D8F81000B842DCD9F943DEE74846D8
:101D100001B0BDE8F08300002DE9F0410446806881
:101D2000E66888466168871B1546974201EB060006
:101D300007D941462A46FEF749FC3544E560BDE82F
:101D4000F08141463A46FEF741FCED1B606808EB26
:101D500007012A46FEF73AFCE560BDE8F081000085
:101D6000006870470160704780B590F90000421C20
:101D700006D011B100F07EF880BD00F0DDF880BD26
:101D800002A008A1212209F02FFD00BF6F626A2D79
:101D90003E70696E20213D202850696E4E616D6550
:101DA000294E43002E2F6D6265642D6F732F746171
:101DB00072676574732F5441524745545F4E4F52BA
:101DC0004449432F5441524745545F4E524635785B
:101DD0005C6770696F5F6F626A6563742E6800008C
:101DE00010B5044605F0FAFF002818BF10BD2046C4
:101DF00006F0D0F840F24821C2F20001002808BFE6
:101E0000084610BD80B509F047FB002818BF012027
:101E100080BD000080B543F26070C2F2000000682F
:101E2000002808BF80BD4FF0FF310BF07BFB80BD69
:101E3000002848BF704700F01F01012202FA01F19B
:101E40004EF200124009CEF2000242F82010704714
:101E500010B504460020FEF777FF04F114000C21B2
:101E6000FEF75EFF20682189FEF75AFFFEF762FF4A
:101E700010BD000080B582B0019001A800F0BCFB4D
:101E80000199012202FA01F100F0AEFB02B080BD1F
:101E900080B543F26070C2F200000068002818BFED
:101EA0000BF08AFB80BD000080B50BF0CBFA41F649
:101EB0005571C0F20001002206F0E8FD10F1020F9A
:101EC00002D20BF095FA80BD41F2FC7102A0C0F283
:101ED00001018B2209F088FC7469636B735F736C7A
:101EE000657074203C2072746F733A3A4B65726E61
:101EF000656C3A3A776169745F666F725F75333209
:101F00005F6D6178000000000078FF3818BF012085
:101F1000704700004EF6145200F00F01CEF200029E
:101F2000114400F16042B0F1FF3F4FF0E000C8BF44
:101F300002F564410870704780B582B0019001A835
:101F400000F05AFB0199012202FA01F100F050FB66
:101F500002B080BD40F26020C2F20000807A00280A
:101F600018BF0120704700002DE9F04381B043F213
:101F70008044C2F20004204603F056FF204603F0DE
:101F8000B7FD40F6483141F264620446C0F20101F7
:101F9000C0F2010200200025FFF73CFA0FF2B85111
:101FA00000202246FFF736FA40F63131C0F2010137
:101FB0000020FFF72FFA042C00F2CC81DFE814F0A8
:101FC0009000DD002A017901050040F6483141F218
:101FD0006462C0F20101C0F201020020FFF71AFAA8
:101FE0000FF284510020FFF715FA40F63131C0F2AC
:101FF00001010020FFF70EFA43F28040C2F2000018
:1020000003F0FAFC002854D043F28045C2F20005E8
:10201000284602F0A5F80646284602F03FFE002EAC
:10202000054600F03882012E40F0948140F6483891
:1020300041F26469C0F20108C0F201090020414682
:102040004A46FFF7E7F941F24151C0F20101002091
:10205000FFF7E0F940F63136C0F2010600203146C4
:10206000FFF7D8F943F28047C2F20007384602F082
:10207000BFF9002041464A46FFF7CCF941F25D41E5
:10208000C0F201010020FFF7C5F900203146FFF73B
:10209000C1F9384603F08AF9002800F03D8243F286
:1020A0008045C2F200052846022103F035FC28468F
:1020B00042E040F6483141F26462C0F20101C0F2F0
:1020C00001020020FFF7A6F90FF2D8410020FFF728
:1020D000A1F940F63131C0F201010020FFF79AF971
:1020E00040F6483141F26462C0F20101C0F20102DF
:1020F0000020FFF78FF941F2CD41C0F2010100202D
:10210000FFF788F940F63131C0F201010020FFF7F6
:1021100081F943F28040C2F2000002F023FD78B161
:1021200043F28040C2F2000003F0DEFC01280AD135
:1021300043F28040C2F2000002F0B0FD054609E122
:102140000FF2744503E041F26B65C0F2010540F601
:10215000483141F26462C0F20101C0F20102002084
:10216000FFF758F900202946FFF754F940F63131BE
:10217000C0F201010020FFF74DF940F6483141F26D
:102180006462C0F20101C0F201020020FFF742F9CF
:1021900041F2E931C0F201010020FFF73BF940F6BE
:1021A0003131C0F201010020FFF734F943F28040E1
:1021B000C2F2000002F0AEFEB0B143F28040C2F2C3
:1021C000000002F06BFD40F6483141F264620546C2
:1021D000C0F20101C0F201020020FFF71BF941F239
:1021E000B151C0F20101ABE040F6483141F2646206
:1021F000C0F20101C0F201020020FFF70BF9F3A1C8
:102200000020FFF707F940F63131C0F2010100204C
:10221000FFF700F940F6483141F26462C0F2010173
:10222000C0F201020020FFF7F5F841F20751C0F2B9
:1022300001010020FFF7EEF840F63131C0F2010154
:102240000020FFF7E7F843F28040C2F2000002F0FE
:102250001DFC78B143F28040C2F2000003F040FC64
:1022600001280CD143F28040C2F2000002F0E6FCEB
:1022700005466FE041F2F655C0F2010503E041F278
:102280008665C0F2010540F6483141F26462C0F251
:102290000101C0F201020020FFF7BCF8002029462E
:1022A000FFF7B8F840F63131C0F201010020FFF726
:1022B000B1F840F6483141F26462C0F20101C0F267
:1022C00001020020FFF7A6F841F22341C0F201010C
:1022D0000020FFF79FF840F63131C0F201010020E5
:1022E000FFF798F843F28040C2F2000002F006FDCA
:1022F000B0B143F28040C2F2000002F09FFC40F611
:10230000483141F264620546C0F20101C0F20102A7
:102310000020FFF77FF841F2C751C0F201010FE042
:1023200040F6483141F26462C0F20101C0F201029C
:1023300000200025FFF76EF841F2DD51C0F20101E7
:102340000020FFF767F840F63131C0F201010020AC
:10235000FFF760F843F28040C2F2000002F09EFCFA
:10236000A84242D13CB343F28040C2F200000021B7
:1023700003F00AFB40F6483141F264620646C0F2BF
:102380000101C0F201020020FFF744F841F23530AC
:1023900041F28F31C0F20100C0F20101002E18BFDE
:1023A00001460020FFF736F840F63131C0F2010156
:1023B0000020FFF72FF840F6483141F26462C0F286
:1023C0000101C0F201020020FFF724F841F2306160
:1023D000C0F2010100202A46FFF71CF840F6313117
:1023E000C0F201010020FFF715F843F28040C2F26D
:1023F000000002F023FCA84243D1022C27D043F274
:102400008040C2F20000022103F0BEFA40F64831DB
:1024100041F264620446C0F20101C0F201020020F0
:10242000FEF7F8FF41F2623041F2BC31C0F2010028
:10243000C0F20101002C18BF01460020FEF7EAFFA0
:1024400040F63131C0F201010020FEF7E3FF40F613
:10245000483141F26462C0F20101C0F20102002081
:10246000FEF7D8FF41F24761C0F2010100202A4681
:10247000FEF7D0FF40F63131C0F201010020FEF737
:10248000C9FF43F28040C2F2000003F035FB28464A
:1024900001B0BDE8F08340F6483841F26469C0F20B
:1024A0000108C0F20109002041464A46FEF7B2FF8A
:1024B00041F27951C0F201010020FEF7ABFF40F676
:1024C0003136C0F2010600203146FEF7A3FF43F289
:1024D0008047C2F20007384601F076FE00204146F0
:1024E0004A46FEF797FF41F29541C0F201010020F4
:1024F000FEF790FF00203146FEF78CFF384602F0D1
:1025000015FEC8B143F28045C2F2000528460221FB
:1025100003F0CAF92846A9E640F6483141F2646260
:10252000C0F20101C0F201020020FEF773FF41F288
:102530000A61C0F2010103E740F6483141F26462EA
:10254000C0F20101C0F201020020FEF763FF41F278
:102550001D61C0F20101F3E653746172747570205D
:102560004D6F6465202575003D3D3D3D3D3D3D3D44
:102570003D3D3D3D3D3D3D3D3D3D3D3D3D2055507D
:1025800047524144455F4D4F4445203D3D3D3D3D13
:102590003D3D3D3D3D3D3D3D3D3D3D3D3D3D3D3D6B
:1025A00000000000555047524144455F4D4F44459F
:1025B000204552524F5200004D41494E5F52554EF8
:1025C0005F4D4F4445204552524F52004D41494EB8
:1025D0005F524F4C4C4241434B5F4D4F4445204569
:1025E00052524F5200000000C0F80815704700001A
:1025F000C0F80C15704700000168202931BF4FF06A
:10260000A04001F01F01016040F2003028BFC5F278
:102610000000704780B50A2007F022F94FF0FF3123
:1026200001604160018180BD80B50CF015FC80BD6A
:1026300080B540F21841C2F200010968002918BFB4
:10264000884780BD000E704720F07F407047000033
:1026500080B500680168C968884780BDB0B582B0A0
:10266000D0F800E09446DEF80020406854690A1A69
:10267000002500937046614600230195A04700287D
:1026800018BF032002B0B0BD10B504460068016851
:102690008968884700281CBF012010BD2068016898
:1026A000896B88472168A0600A680846526A90478B
:1026B0002168E0600A680846926A904721682061B4
:1026C0000A680846D26A90476061002010BD000089
:1026D00080B582B0D0E9003C40691A68D2F81CE0AD
:1026E000A1EB0C0200210090184600230191F04755
:1026F000002818BF0120400002B080BDB0B582B0F4
:10270000D0F800E09446DEF80020406894690A1A88
:10271000002500937046614600230195A0470028DC
:1027200018BF0120800002B0B0BD0000C0E9001257
:10273000704700002DE9F04788B0044600260DF1EF
:1027400010084FF001090DF11E0A42F20E77002524
:1027500040460122002307F063F8049806F078FB56
:10276000204605214FF0FF324FF0FF33CDE90066E0
:10277000CDF808A0CDF80C9000F00AF99DF81E00E5
:10278000BD4200F0010003D8002805F10105DFD1AA
:1027900080F0010008B0BDE8F0870000B0B586B059
:1027A0000446002501200DF116010095CDE9021027
:1027B000204605214FF0FF324FF0FF33ADF81650A1
:1027C000019500F0E5F8204666214FF0FF324FF00A
:1027D000FF33CDE900550295039500F0D9F8204666
:1027E00099214FF0FF324FF0FF33CDE900550295AC
:1027F000039500F0CDF82046FFF79CFF80F0010024
:10280000404206B0B0BD000070B586B0002606217B
:102810004FF0FF324FF0FF3304464FF0FF35CDE964
:1028200000660296039600F0B3F82046FFF782FF99
:10283000A8B10DF116000125CDE9006602902046F1
:1028400005214FF0FF324FF0FF33ADF816600395CE
:1028500000F09EF89DF81600C0F34000451E284683
:1028600006B070BD80B5043005F078FD002080BD55
:10287000B0B586B00446032005A900250095CDE932
:10288000021020469F214FF0FF324FF0FF33019599
:1028900000F07EF89DF81400BF280ED12046FFF707
:1028A000B3FF204698214FF0FF324FF0FF33CDE9C0
:1028B00000550295039500F06BF8002006B0B0BDFE
:1028C0002DE9F04381B00646D0F86C01351DC708EC
:1028D00028469146884605F0B1FC2846414605F059
:1028E0005DFCD6F860016FF0070101EBC006002E19
:1028F00016D4DDE9088400BFC6F1200128FA06F0ED
:1029000004FA01F10843B6F1200158BF24FA01F09E
:10291000C1B2284605F042FC083EB6F1FF3FEBDCB1
:10292000DDE90A6837B100BF2846002105F036FC12
:10293000013FF9D156EA08000FD00024002700BF5C
:102940002846002105F02AFC09F80400013447F16B
:102950000007A01B77EB0800F2D3284605F0DCFC4B
:10296000002001B0BDE8F08380B584B040F6FF736D
:102970009A434FF0000C0023CDE900CCCDF808C0FD
:10298000CDF80CC000F004F8002004B080BD0000B9
:102990002DE9F04F81B0041D07460D9EDDF828A0FB
:1029A000D0F86C9120461D4690468B4605F046FCBB
:1029B0002046594605F0F2FB08EA0500013027D011
:1029C000D7F860016FF00701B34601EBC006002E97
:1029D0004FEAD90714D400BFC6F1200128FA06F047
:1029E00005FA01F10843B6F1200158BF25FA01F0BC
:1029F000C1B2204605F0D2FB083EB6F1FF3FEBDC4A
:102A00005E462FB12046002105F0C8FB013FF9D1F9
:102A1000DDE90B2320465146009605F09FFB20463A
:102A200005F07AFC002001B0BDE8F08F2DE9F043FD
:102A300081B00646D0F86C01351DC708284691467E
:102A4000884605F0FBFB2846414605F0A7FBD6F873
:102A500060016FF0070101EBC006002E16D4DDE91E
:102A6000088400BFC6F1200128FA06F004FA01F13B
:102A70000843B6F1200158BF24FA01F0C1B228463C
:102A800005F08CFB083EB6F1FF3FEBDCDDE90A68A0
:102A900037B100BF2846002105F080FB013FF9D186
:102AA00056EA08000ED00024002700BF19F80410D1
:102AB000284605F073FB013447F10007A01B77EBB4
:102AC0000800F3D3284605F027FC002001B0BDE83C
:102AD000F083000010B584B0DDF818C0DDE9081EF1
:102AE0000824C0F86C41CDE9002302915A216246C6
:102AF000CDF80CE0FFF7E4FE002004B010BD0000AC
:102B000070B59CB0DDE920640DF1600C8CE84E00DE
:102B1000D4E9002105460020CDE9021004A918A837
:102B20000023009106F0CEFC18B14FF0FF301CB02E
:102B300070BD05F1680604A8314605F097F9002834
:102B4000F3D404A8314605F095F90028EDD403200C
:102B500005F158030221202207C3616804AE304604
:102B600005F03EF9C5F850013046214605F096FAC9
:102B70000028DAD420692866284600F003F80020EF
:102B80001CB070BD014600220020C1F864217047CE
:102B900070B590B0044640F21C40C2F2000006F04E
:102BA0006BFA06F0B7F994F87401002804BF00200E
:102BB000C4F87001D4F87001411CC4F8701158B108
:102BC000002540F21C40C2F2000006F055FA06F063
:102BD000C3F9284610B070BD2046FFF7DFFD013075
:102BE00067D04FF25E052046CFF6FF75FFF740FE37
:102BF0002046FFF79FFD00285ED00020264642F6C3
:102C0000D52246F8680FE066C4E92000C0F2000251
:102C10000CA82146002305F0A1FE0CAB0FCB0096BB
:102C200005F07AF80028CCD442F6D522C0F2000292
:102C300008A82146002305F091FE08AB0B980ECBA7
:102C4000009020460196FFF75BFF0028B9D442F6BA
:102C5000D522C0F2000204A82146002305F07EFE22
:102C600004AB0FCB009605F00DF90028A9D4D4F8D9
:102C70006801D4E91C12C4F86C01012084F87401C5
:102C80000120C0F20010081A72F100004FF0000598
:102C900097D32046B7214FF0FF324FF0FF33CDE9F5
:102CA000005502950395FFF773FE0420C4F86001F8
:102CB00087E76FF47A6584E7013D82E72DE9F04705
:102CC00084B0044690F8740148B340F21C48C2F244
:102CD0000008DDE90CA940461D4617460E4606F0E1
:102CE000CBF906F017F9D4F86401A16DC4F86C01B2
:102CF00020463246CDE90075CDF808A0CDF80C90FD
:102D0000FFF7DEFDD4F86801C4F86C01404606F018
:102D1000B3F906F021F9002004B0BDE8F0876FF4A4
:102D20007A6004B0BDE8F0872DE9F04F89B0054620
:102D300090F87401002800F0A98017464FF25B0854
:102D400005F16802384619469B46CFF6FF7805F034
:102D500053F8002800F19C800646DDE91202C419F0
:102D6000D5E91C0142EB0B09001B71EB090008922D
:102D7000C0F08E8005F1800A0AEB0600296890F801
:102D80003400096B079028463A465B46884702465E
:102D90000B4638465946FDF73EFB52EA030077D111
:102DA0002868621E016B69F100032846CDF814A063
:102DB000884702460B4620464946FDF72CFB52EA5F
:102DC000030065D1DDE9129050EA09005AD0079C52
:102DD00008F10208CDF81080CDE9007B0296CDE91C
:102DE0000664089E0599E0B24A463346039105F011
:102DF0000DF905EB8000D0F81841D0F8288140F299
:102E00001C40C2F2000006F037F906F083F82846AD
:102E1000FFF7FAFC00283FD1284621463A465B4698
:102E2000FFF7A2FD17EB08074BF1000BB9EB080900
:102E300066F1000659EA060A089610D0069EDDF8EB
:102E4000108005EBC600D0E93201079CC01B71EB76
:102E50000B0008D20136A81990F8B44003E0DDF861
:102E60001080DDE906642846FFF764FCB0B140F24B
:102E70001C40C2F2000006F0FFF806F06DF8BAF14F
:102E8000000FA9D100204FF0000808E06FF47A6825
:102E9000404609B0BDE8F08FDDF810800120002821
:102EA000F6D040F21C40C2F2000006F0E5F806F051
:102EB00053F8EDE7B0B584B0044640F21C40C2F2CE
:102EC000000006F0D9F806F025F894F87401A8B1CE
:102ED000D4F870010138C4F8700112D100252046E1
:102EE00004214FF0FF324FF0FF33CDE9005502953A
:102EF0000395FFF74DFD84F8745102E00020C4F8FB
:102F0000700140F21C40C2F2000006F0B5F806F075
:102F100023F8002004B0B0BD2DE9F04F85B0044681
:102F200090F8740100284DD0DDE90EB85BEA080086
:102F30004FF0000043D01D4617468A46D4F8506132
:102F40003846294632460023FDF765FA12EB0B009E
:102F500043EB0801801BD94671F1000028BFA6EBA6
:102F6000020940F21C46C2F20006304606F084F820
:102F700005F0D0FF2046FFF747FC30BBE16D20464F
:102F800052460023CDE90075CDF808900393FFF772
:102F90004DFD2046FFF7CEFBF0B1BBEB090B68F10E
:102FA000000817EB0907304645F10005CA4406F052
:102FB00063F805F0D1FF5BEA0800BFD100200024D0
:102FC000C8B110E06FF47A6415E04FF25C040120A0
:102FD000CFF6FF7478B106E04FF25C04CFF6FF74D1
:102FE0000134012038B140F21C40C2F2000006F06A
:102FF00043F805F0B1FF204605B0BDE8F08F0000B2
:103000002DE9F04381B0DDE908981E4617460D46CC
:10301000044604F03FFE40F2DC70C0F201000830CC
:103020002060201D29463A463346CDF8009005F031
:10303000AFF9002003210822C4E91700C4F85001A9
:1030400084F87401C4E95812C4E95A024FF0FF32FF
:10305000C4F87001C4E91C00A267C4F8C0000122D2
:1030600084F8B400A16520464146C4F88820FFF7E3
:10307000F9FB204601B0BDE8F083000080B500F008
:1030800003F806F0E9FB80BDB0B5044640F2DC7001
:10309000C0F201000830254645F8040B2046FFF732
:1030A00009FF284605F0B0F9204604F0FDFDB0BD4B
:1030B00090F8AD0170470000B0B5B2B040F2AC314D
:1030C00001AD0446C0F201012846C422FDF7C3FA4F
:1030D000002101208DF838108DF870108DF88C10BB
:1030E000ADF8C41040F6483140F6C2328DF81C00ED
:1030F0008DF85400C0F20101C0F201020020FEF779
:1031000089F919A10020FEF785F940F63131C0F2A6
:1031100001010020FEF77EF904F11800294603F0B2
:10312000B5FF40B104F1EC0001A9C422FDF793FA08
:10313000002032B0B0BD40F6483140F6C232C0F295
:103140000101C0F201020020FEF764F90BA100208A
:10315000FEF760F940F63131C0F201010020FEF7C0
:1031600059F9012032B0B0BD5B7365744465666186
:10317000756C745D20536574000000005B736574AA
:1031800044656661756C745D20777269746520664C
:1031900061696C65642100002DE9F04F85B004463B
:1031A00000F0E4FE40F6483140F6C2320546C0F277
:1031B0000101C0F201020020FEF72CF935B10FF633
:1031C00060010020FEF726F900F020BC40F6DF3158
:1031D000C0F201010020FEF71DF940F6313BC0F2BC
:1031E000010B00205946FEF715F940F6483A40F623
:1031F000C237C0F2010AC0F20107002051463A4628
:10320000FEF708F940F68E31C0F201010020FEF70A
:1032100001F900205946FEF7FDF8002051463A46D4
:10322000FEF7F8F8D4F8EC2040F62241C0F2010194
:103230000020FEF7EFF800205946FEF7EBF80020DB
:1032400051463A46FEF7E6F894ED3C0A0DF10808BF
:10325000B8EE400A404600F031FC9DF8080040F608
:10326000EF31C007049AC0F201014FF0000008F1ED
:10327000010908BF4A46FEF7CDF8404606F0B0FA0D
:1032800000205946FEF7C6F8002051463A46FEF7A0
:10329000C1F8D4F8F42040F60F41C0F2010100203B
:1032A000FEF7B8F800205946FEF7B4F80020514662
:1032B0003A46FEF7AFF8D4F8F850404600EE105A00
:1032C000B8EE400A00F0FAFB9DF8080040F64F31D6
:1032D000C007049BC0F201014FF000002A4608BF5E
:1032E0004B46FEF797F8404606F07AFA002059461A
:1032F000FEF790F8002051463A46FEF78BF8D4F8D6
:10330000002140F6B031C0F201010020FEF782F842
:1033100000205946FEF77EF8002051463A46FEF757
:1033200079F840F6C83340F6D13294F8FC00C0F288
:103330000103C0F2010294F8FD1094F8FE50002839
:1033400008BF1A4640F60B4040F60343C0F20100A6
:10335000C0F2010340F6DA36002908BF034640F602
:10336000FE30C0F20106C0F20100002D354640F6E5
:10337000343108BF0546C0F2010100200095FEF778
:1033800049F800205946FEF745F8002051463A46D4
:10339000FEF740F80FF2A4610020FEF73BF8002092
:1033A0005946FEF737F8002051463A46FEF732F804
:1033B000D4F8242140F622410020C0F20101FEF79A
:1033C00029F800205946FEF725F8002051463A46D4
:1033D000FEF720F894ED4A0A4046B8EE400A00F0A5
:1033E0006DFB9DF8080040F6EF31C007049A4FF0DE
:1033F0000000C0F2010108BF4A46FEF70BF8404644
:1034000006F0EEF900205946FEF704F80020514678
:103410003A46FDF7FFFFD4F82C2140F60F4100207B
:10342000C0F20101FDF7F6FF00205946FDF7F2FF5B
:10343000002051463A46FDF7EDFFD4F830514046A2
:1034400000EE105AB8EE400A00F038FB9DF8080074
:1034500040F64F31C007049B4FF00000C0F201015D
:103460002A4608BF4B46FDF7D5FF404606F0B8F99F
:1034700000205946FDF7CEFF002051463A46FDF7A1
:10348000C9FFD4F8382140F6B0310020C0F2010164
:10349000FDF7C0FF00205946FDF7BCFF0020514654
:1034A0003A46FDF7B7FF94F8340140F6D1320028D0
:1034B00040F6C830C0F20102C0F2010094F83511A4
:1034C00094F8365108BF024640F6034340F60B40DD
:1034D000C0F20103C0F20100002908BF034640F614
:1034E000FE30002D3546C0F2010040F6343108BFF1
:1034F00005460020C0F201010095FDF78BFF00207A
:103500005946FDF787FF002051463A46FDF782FFF6
:1035100040F67031C0F201010020FDF77BFF002072
:103520005946FDF777FF002051463A46FDF772FFF6
:10353000D4F8082140F622410020C0F20101FDF735
:1035400069FF00205946FDF765FF002051463A46C5
:10355000FDF760FF94ED430A4046B8EE400A00F0E4
:10356000ADFA9DF8080040F6EF31C007049A4FF01D
:103570000000C0F2010108BF4A46FDF74BFF40467C
:1035800006F02EF900205946FDF744FF0020514671
:103590003A46FDF73FFFD4F8102140F60F410020D6
:1035A000C0F20101FDF736FF00205946FDF732FF5A
:1035B000002051463A46FDF72DFFD4F814514046FD
:1035C00000EE105AB8EE400A00F078FA9DF80800B4
:1035D00040F64F31C007049B4FF00000C0F20101DC
:1035E0002A4608BF4B46FDF715FF404606F0F8F89F
:1035F00000205946FDF70EFF002051463A46FDF7E0
:1036000009FFD4F81C2140F6B0310020C0F20101BE
:10361000FDF700FF00205946FDF7FCFE0020514653
:103620003A46FDF7F7FE94F8180140F6D13200282B
:1036300040F6C830C0F20102C0F2010094F819113E
:1036400094F81A5108BF024640F6034340F60B4077
:10365000C0F20103C0F20100002908BF034640F692
:10366000FE30002D3546C0F2010040F6343108BF6F
:1036700005460020C0F201010095FDF7CBFE0020B9
:103680005946FDF7C7FE002051463A46FDF7C2FEF7
:1036900040F67F31C0F201010020FDF7BBFE0020A3
:1036A0005946FDF7B7FE002051463A46FDF7B2FEF7
:1036B000D4F8402140F622410020C0F20101FDF77C
:1036C000A9FE00205946FDF7A5FE002051463A46C6
:1036D000FDF7A0FE94ED510A4046B8EE400A00F016
:1036E000EDF99DF8080040F6EF31C007049A4FF05D
:1036F0000000C0F2010108BF4A46FDF78BFE4046BC
:1037000006F06EF800205946FDF784FE0020514671
:103710003A46FDF77FFED4F8482140F60F410020DD
:10372000C0F20101FDF776FE00205946FDF772FE5A
:10373000002051463A46FDF76DFED4F84C51404604
:1037400000EE105AB8EE400A00F0B8F99DF80800F3
:1037500040F64F31C007049B4FF00000C0F201015A
:103760002A4608BF4B46FDF755FE404606F038F89E
:1037700000205946FDF74EFE002051463A46FDF71F
:1037800049FED4F8542140F65E31C0F20101002018
:10379000FDF740FE00205946FDF73CFE0020514653
:1037A0003A46FDF737FE94F8500140F6D132002832
:1037B00040F6C830C0F20102C0F2010094F8511185
:1037C00094F8525108BF024640F6034340F60B40BE
:1037D000C0F20103C0F20100002908BF034640F611
:1037E000FE30002D3546C0F2010040F6343108BFEE
:1037F00005460020C0F201010095FDF70BFE0020F8
:103800005946FDF707FE002051463A46FDF702FEF5
:103810008DA10020FDF7FEFD00205946FDF7FAFDC1
:10382000002051463A46FDF7F5FDD4F85C2140F6FC
:1038300022410020C0F20101FDF7ECFD00205946B5
:10384000FDF7E8FD002051463A46FDF7E3FD94ED13
:10385000580A4046B8EE400A00F030F99DF80800DA
:1038600040F6EF31C007049A4FF00000C0F20101AA
:1038700008BF4A46FDF7CEFD404605F0B1FF0020E7
:103880005946FDF7C7FD002051463A46FDF7C2FDF7
:10389000D4F8642140F60F410020C0F20101FDF789
:1038A000B9FD00205946FDF7B5FD002051463A46C6
:1038B000FDF7B0FDD4F86851404600EE105AB8EE5E
:1038C000400A00F0FBF89DF8080040F64F31C007B1
:1038D000049B4FF00000C0F201012A4608BF4B468E
:1038E000FDF798FD404605F07BFF00205946FDF7A7
:1038F00091FD002051463A46FDF78CFDD4F8702129
:1039000040F6B0310020C0F20101FDF783FD002038
:103910005946FDF77FFD002051463A46FDF77AFDF6
:1039200094F86C0140F6D132002840F6C830C0F25D
:103930000102C0F2010094F86D1194F86E5108BFB5
:10394000024640F6034340F60B40C0F20103C0F2CA
:103950000100002908BF034640F6FE30C0F2010016
:1039600040F63431002D08BF06460020C0F20101A8
:103970000096FDF74FFD00205946FDF74BFD002056
:1039800051463A46FDF746FDB4F8782132A10020B1
:10399000FDF740FD00205946FDF73CFD0020514653
:1039A0003A46FDF737FDB4F87A2130A10020FDF743
:1039B00031FD00205946FDF72DFD002051463A46C5
:1039C000FDF728FD04F5BE722DA10020FDF722FDB4
:1039D00000205946FDF71EFD002051463A46FDF7EE
:1039E00019FD94F8AC212CA10020FDF713FD002057
:1039F0005946FDF70FFD002051463A46FDF70AFDF6
:103A000094F8AD2129A10020FDF704FD40F63131E5
:103A1000C0F201010020FDF7FDFC05B0BDE8F08F0C
:103A20004D425220696E666F726D6174696F6E20CF
:103A30006C6F6164204552524F520000626F6F7488
:103A40005F6170703A000000696D6167655F646F67
:103A5000776E6C6F61643A006D61696E20646675A3
:103A60005F6E756D3A20257500000000626F6F74FF
:103A7000206466755F6E756D3A2025750000000044
:103A800068775F76657273696F6E5F7374723A20E0
:103A90002531367300000000737461727475705FB5
:103AA0006D6F64653A202575000000006466755FDF
:103AB0006D6F64653A2025750A000000F0B58BB083
:103AC0009FED521A0446B4EE410A0027F1EE10FAB7
:103AD00007604760876034DABCEEC00A0DF121054B
:103AE00010EE103A4EA228460A21FDF7B7F82846F4
:103AF00005F070FD02AE02463046294605F0F2FDA3
:103B000048A1304605F014FE8268D0E90013079200
:103B1000CDE9051321780760C9074760876005D0A4
:103B20002168A06821F0010105F064FE05AA07CA1A
:103B300007C4002105AC8DF81410601C8DF82B1003
:103B400058E040F27040C0F201009FED312AA0F130
:103B5000080700BF20EE020AB4EE410AF1EE10FAA7
:103B600007F10407F6DA9FED2B1A48F21F5120EEF9
:103B7000011ABCEEC11A11EE100AC5F2EB11A0FB3E
:103B8000011251096422BCEEC00A01FB12060DF1BC
:103B9000210510EE103A20A228460A210096FDF7D2
:103BA0005DF8284605F016FD02AE0246304629466D
:103BB00005F098FD7968304605F0BAFD8268D0E9D5
:103BC00000130792CDE9051321780025C907056088
:103BD0004560856005D02168A06821F0010105F0ED
:103BE00009FE05AA07CA8DF8145007C405AC601C6D
:103BF0008DF82B500DF12B0105F0E8FC204605F067
:103C0000EFFD02A805F0ECFD0BB0F0BD0000804414
:103C10000000803A0000C84225752E25303275001C
:103C20002575000020420000B0F87A0170470000BE
:103C3000B0B501F5927E9EE80C50D1E94D45D1F822
:103C40003C1180E80C50C0E904458161B0BD000022
:103C500090F83C0170470000B0F878017047000010
:103C6000B0B501F1EC0E9EE80C50D1E93F45D1F81A
:103C7000041180E80C50C0E904458161B0BD00002A
:103C800090F8040170470000A0F87A117047000016
:103C9000B0B54C6901F10805D1E900CE2CCDC0F8D2
:103CA000384100F596742CC4C0E949CE8969C0F842
:103CB0003C11B0BD80F83C1170470000A0F87811AD
:103CC00070470000B0B54C6901F10805D1E900CE9C
:103CD0002CCDC0F8004100F1F4042CC4C0E93BCE67
:103CE0008969C0F80411B0BD80F804117047000064
:103CF00090F8AC017047000080F8AC1170470000EC
:103D000080B5006F1B88FEF7A9FCB0FA80F040096F
:103D100080BD000070B582B014460D4640F64831B3
:103D200040F6C2320646C0F20101C0F20102002094
:103D3000FDF770FB0BA100202A462B460094FDF7EF
:103D400069FB40F63131C0F201010020FDF762FB52
:103D5000306F29462246FEF7BBFCB0FA80F04009DE
:103D600002B070BD5B666C617368494643616C6C00
:103D70006261636B5D5B6F6E45726173655D20614F
:103D80006464723D25752830782578292C206C656F
:103D90006E6774683D25750080B540F6483140F681
:103DA000C232C0F20101C0F201020020FDF732FB75
:103DB00006A10020FDF72EFB40F63131C0F20101D3
:103DC0000020FDF727FB012080BD00BF5B666C6112
:103DD0007368494643616C6C6261636B5D5B6F6ED7
:103DE00052656164795D000080B5006F1B88FEF745
:103DF00085FCB0FA80F0400980BD000070B584B049
:103E00000C4640F6483140F6C2320546C0F2010188
:103E1000C0F201020020FDF7FDFA01AE304629464E
:103E2000224603F01FFA9DF80400039AC00709A177
:103E30004FF0000008BF721CFDF7ECFA304605F0A9
:103E4000CFFC40F63131C0F201010020FDF7E2FA6B
:103E500004B070BD5B666C617368494643616C6C0D
:103E60006261636B5D5B6F6E5374617475735D202B
:103E70002573000010B50C4603F0FEF940F6F8017A
:103E8000C0F2010108310160046710BD80B503F084
:103E900083FA05F0E1FC80BD80B501F5C6712022F2
:103EA000FCF794FB80BD0000B0B501F5A07E9EE854
:103EB0000C50D1E95445D1F8581180E80C50C0E9B4
:103EC00004458161B0BD0000B0B501F5847E9EE877
:103ED0000C50D1E94645D1F8201180E80C50C0E9DA
:103EE00004458161B0BD0000B0B54C6901F1080521
:103EF000D1E900CE2CCDC0F8544100F5A4742CC4F7
:103F0000C0E950CE8969C0F85811B0BDB0B54C6950
:103F100001F10805D1E900CE2CCDC0F81C4100F517
:103F200088742CC4C0E942CE8969C0F82011B0BDA4
:103F3000B0B501F5AE7E9EE80C50D1E95B45D1F8F5
:103F4000741180E80C50C0E904458161B0BD0000E7
:103F500010B5044690F8B001002808BF10BD2046F7
:103F6000FEF776FB002084F8B00110BDB0B540F636
:103F7000483140F6C2320446C0F20101C0F20102EB
:103F800000200025FDF746FA0BA10020FDF742FABC
:103F900040F63131C0F201010020FDF73BFA04F197
:103FA000180004F1EC0103F00FF818B92046FFF7F0
:103FB00083F805462846B0BD5B5F666C6173685F39
:103FC000776561725F6C6576656C6C696E675D20A4
:103FD0007265616400000000B0B5044690F8B0015D
:103FE00008B10020B0BD2046FEF74EFB60B140F6A0
:103FF000483140F6C232C0F20101C0F20102002095
:10400000FDF708FA16A11FE004F1180504F1780184
:10401000284602F005FF28460121012502F0E6FFAF
:1040200030B12046FFF7A2FF84F8B0510020B0BDA8
:1040300040F6483140F6C232C0F20101C0F201023E
:104040000020FDF7E7F910A10020FDF7E3F940F6A5
:104050003131C0F201010020FDF7DCF90120B0BDD3
:104060005B5F666C6173685F696E7465726E616CCC
:104070005F68616E646C65725D20626567696E2061
:104080006661696C656421005B5F666C6173685F83
:10409000776561725F6C6576656C6C696E675D20D3
:1040A000626567696E206661696C65642100000065
:1040B00080B500F1180200F1EC01104602F0E6FFB5
:1040C00000281CBF002080BD40F6483140F6C232B7
:1040D000C0F20101C0F201020020FDF79BF906A128
:1040E0000020FDF797F940F63131C0F201010020C0
:1040F000FDF790F9012080BD5B636F6D6D69745DA4
:10410000206661696C65642100000000B0B582B072
:1041100000F1500529464FF4A0320446FEF706FB95
:1041200018304FF0C40C4FF4A0314FF400524FF44C
:104130008053CDF800C003F075F828464FF4A03145
:104140004FF4005202F032FD04F178002146FFF7EF
:1041500091FE0021204684F8B01102B0B0BD0000ED
:1041600010B588B0014601A8FFF7E2FE40F64831DD
:1041700041F2BD029DF81640C0F20101C0F20102F9
:104180000020FDF747F940F6FE3040F6DA32C0F283
:104190000100C0F20102002C08BF024606A1002067
:1041A000FDF738F940F63131C0F201010020FDF78A
:1041B00031F9204608B010BD5B61707055706772B0
:1041C0006164655D202573002DE9F04196B040F6ED
:1041D000483141F2BD020446C0F20101C0F20102C1
:1041E00000200025FDF716F95EA10020FDF712F969
:1041F00040F63131C0F201010020FDF70BF908A8AB
:104200002146FFF751FE08AB0FCB0DF13C0C8CE8BB
:1042100007000C98CDE91230DDE90D01CDE914015C
:1042200001A82146FFF704FD079801ABC1B201299F
:104230000ECB08910499CDE909230B91DDE9051214
:10424000CDE90C120E9052D10FA908AA204602F017
:104250007BF900284DD00B980D9912909DF83800ED
:1042600040F6483841F2BD07C0F20108C0F201072C
:1042700014918DF85400002041463A46FDF7CAF8E3
:1042800047A10020FDF7C6F840F63135C0F2010520
:1042900000202946FDF7BEF80FAE314601F038FC8C
:1042A0001190002041463A46FDF7B4F844A10020A1
:1042B000FDF7B0F800202946FDF7ACF8204631465E
:1042C000FFF712FE2046FFF7F3FE0446B0FA80F037
:1042D0004509002041463A46FDF79CF840F6FD515D
:1042E000C0F201013CA0002C08BF014611E023A44C
:1042F0001DE040F6483141F2BD02C0F20101C0F2BA
:10430000010200200025FDF785F840F6FD51C0F2BE
:1043100001010020FDF77EF840F63131C0F20101C5
:104320000020FDF777F841F2A724C0F2010440F61F
:10433000483141F2BD02C0F20101C0F20102002089
:10434000FDF768F800202146FDF764F840F63131AA
:10435000C0F201010020FDF75DF8284616B0BDE867
:10436000F08100BF5B6261636B7570426F6F745D5B
:104370003E3E207374617274000000005B626163F2
:104380006B7570426F6F745D09206170702073747B
:1043900061747573204661696C7572652100000057
:1043A0005B6261636B7570426F6F745D20757064E2
:1043B00061746520646573206372633332000000AA
:1043C0005B6261636B7570426F6F745D20757064C2
:1043D000617465204D4252005B6261636B7570428F
:1043E0006F6F745D092073756363656564210000F8
:1043F0002DE9F04196B040F6483141F2BD02044645
:10440000C0F20101C0F2010200200025FDF702F810
:104410005EA10020FCF7FEFF40F63131C0F2010141
:104420000020FCF7F7FF08A82146FFF74DFD08AB79
:104430000FCB0DF13C0C8CE807000C98CDE9123045
:10444000DDE90D01CDE9140101A82146FFF708FCC3
:10445000079801ABC1B201290ECB08910499CDE9AF
:1044600009230B91DDE90512CDE90C120E9052D112
:104470000FA908AA204602F067F800284DD00B9833
:104480000D9912909DF8380040F6483841F2BD076A
:10449000C0F20108C0F2010714918DF85400002009
:1044A00041463A46FCF7B6FF47A10020FCF7B2FFB1
:1044B00040F63135C0F2010500202946FCF7AAFF7D
:1044C0000FAE314601F024FB1190002041463A46E0
:1044D000FCF7A0FF44A10020FCF79CFF0020294628
:1044E000FCF798FF20463146FFF710FD2046FFF706
:1044F000DFFD0446B0FA80F04509002041463A4607
:10450000FCF788FF40F6B651C0F201013CA0002C38
:1045100008BF014611E023A41DE040F6483141F2F6
:10452000BD02C0F20101C0F2010200200025FCF72B
:1045300071FF40F6B651C0F201010020FCF76AFF9E
:1045400040F63131C0F201010020FCF763FF41F277
:104550003824C0F2010440F6483141F2BD02C0F2F5
:104560000101C0F201020020FCF754FF00202146A7
:10457000FCF750FF40F63131C0F201010020FCF79A
:1045800049FF284616B0BDE8F08100BF5B62616359
:104590006B75704D61696E5D3E3E2073746172741F
:1045A000000000005B6261636B75704D61696E5D58
:1045B000092061707020737461747573204661699D
:1045C0006C757265210000005B6261636B75704DF4
:1045D00061696E5D20757064617465206465732027
:1045E00063726333320000005B6261636B75704D10
:1045F00061696E5D20757064617465204D42520082
:104600005B6261636B75704D61696E5D09207375E6
:1046100063636565642100002DE9F04F8FB040F6BB
:10462000483741F2BD05C0F20107C0F201059146CD
:104630000C468046002039462A46FCF7EBFEF2A1E4
:104640000020FCF7E7FE40F63136C0F201060020FC
:104650003146FCF7DFFE002039462A46FCF7DAFE39
:10466000D9F80020D9F80C30EDA10020FCF7D2FEDB
:1046700000203146FCF7CEFE002039462A46FCF7E2
:10468000C9FED4E90023F3A10020FCF7C3FE0020FB
:104690003146FCF7BFFE99F81000012801D1207CBB
:1046A000F0B140F6483141F2BD02C0F20101C0F262
:1046B000010200200025FCF7ADFE40F6A871C0F213
:1046C00001010020FCF7A6FE40F63131C0F20101E5
:1046D0000020FCF79FFE05F001000FB0BDE8F08F51
:1046E00040F6483141F2BD02C0F20101C0F20102C0
:1046F0000020FCF78FFE41F2CD01C0F20101002045
:10470000FCF788FE40F63131C0F201010020FCF7D1
:1047100081FE4046494601F045FEF8B1D9F80C004B
:104720006168884235D940F6483141F2BD02C0F295
:104730000101C0F2010200200025FCF76BFE41F2EE
:10474000E801C0F201010020FCF764FE40F63131BF
:10475000C0F201010020FCF75DFEBCE740F64831E5
:1047600041F2BD02C0F20101C0F2010200200025A9
:10477000FCF750FE40F6F771C0F201010020FCF793
:1047800049FE40F63131C0F201010020FCF742FE43
:10479000A1E70C2005F08EF82146074600F092FFB5
:1047A0000C2005F087F84946824600F08BFF38461A
:1047B00004F0A8FC40F2D871C0F20101044605F0F3
:1047C00075F890B340F6483141F2BD02064699F8BB
:1047D0001150C0F20101C0F2010200200497FCF761
:1047E00019FE012D0595CDF818A0039443D141F28F
:1047F000AC11C0F201010020FCF70CFE40F6313193
:10480000C0F201010020FCF705FE07AD2846414635
:10481000FFF742FB08F5DC7005F11007294604227A
:104820000123009702F0F2FE33E040F6483141F2F6
:10483000BD02C0F20101C0F2010200200025FCF718
:10484000E9FD40F63551C0F2010100202246FCF797
:10485000E1FD40F63131C0F201010020FCF7DAFD44
:10486000384600F057FF04F0F7FF504600F052FFC3
:1048700004F0F2FF2FE741F26F11C0F201010020B6
:10488000FCF7C8FD40F63131C0F201010020FCF711
:10489000C1FDD9F80CB0CDF80480BBFA8BF0BBF1A8
:1048A000000F4FEA50157BD0049C08F5DC70002700
:1048B000029000BF039ADA4620463946934588BFE6
:1048C000924600F0CDFE069831463A46534600F037
:1048D000ADFE0598012804D102983146524602F0F7
:1048E000CDFF204631463A46534600F0D1FE3046D1
:1048F0005146FCF739FA8046204631463A4653463F
:1049000000F094FE30465146FCF72EFA80452DD13A
:1049100040F6483141F2BD020020C0F20101C0F270
:1049200001025744ABEB0A0BFCF774FDD9F80C00FD
:1049300064217943B1FBF0F540F655610020C0F2E7
:104940000101524643460095FCF764FD40F63131C3
:104950000020C0F20101FCF75DFDBBFA8BF0049C66
:10496000BBF1000F4FEA5015A4D11AE040F64831D0
:1049700041F2BD02C0F20101C0F201020020FCF7C9
:1049800049FD40F61461C0F2010100204246FCF7E7
:1049900041FD40F63131C0F201010020FCF73AFD43
:1049A000049C0598019F012803D107F5DC7002F0F3
:1049B00025FE304604F04CFF204600F0ABFE04F02C
:1049C0004BFF069800F0A6FE04F046FF07F5DC70EA
:1049D00002F014FE40F6483141F2BD02C0F201017E
:1049E000C0F201020020FCF715FD41F24E21C0F299
:1049F00001010020FCF70EFD40F63131C0F201014B
:104A00000020FCF707FD66E65B70726F6772616DF0
:104A10004170705D3E3E207374617274000000004E
:104A20005B70726F6772616D4170705D09205372C7
:104A3000632065787465726E616C3A20616464729B
:104A40003D3078253038583B2073697A653D2575AF
:104A5000000000005B70726F6772616D4170705D85
:104A6000092044657320696E7465726E616C3A202A
:104A7000616464723D3078253038583B206D617830
:104A80005F73697A653D257500000000F0B58FB051
:104A900040F6483541F2BD06C0F20105C0F20106FC
:104AA0000746002029463246FCF7B4FC1EA1002030
:104AB000FCF7B0FC40F63134C0F20104002021467E
:104AC000FCF7A8FC01A83946FFF7B2F801AB0FCB01
:104AD0000DF1200C8CE807000598CDE90B30DDE9DD
:104AE0000601CDE90D0108A9384601F05BFC074637
:104AF000002029463246FCF78DFC41F6753041F224
:104B0000CF22C0F20100C0F20102002F18BF0246FE
:104B10000BA10020FCF77EFC00202146FCF77AFC6C
:104B200038460FB0F0BD00BF5B76657269667942AA
:104B30006F6F745D3E3E20737461727400000000FC
:104B40005B766572696679426F6F745D3C3C206686
:104B5000696E6973682C2073746174757320257392
:104B600000000000F0B58FB040F6483541F2BD06B8
:104B7000C0F20105C0F20106074600202946324670
:104B8000FCF748FC1EA10020FCF744FC40F6313441
:104B9000C0F2010400202146FCF73CFC01A8394684
:104BA000FFF75EF801AB0FCB0DF1200C8CE807008E
:104BB0000598CDE90B30DDE90601CDE90D0108A925
:104BC000384601F0EFFB0746002029463246FCF745
:104BD00021FC41F6753041F2CF22C0F20100C0F253
:104BE0000102002F18BF02460BA10020FCF712FCA7
:104BF00000202146FCF70EFC38460FB0F0BD00BF88
:104C00005B7665726966794D61696E5D3E3E2073C3
:104C100074617274000000005B7665726966794D9C
:104C200061696E5D3C3C2066696E6973682C207317
:104C300074617475732025730000000010B588B08E
:104C4000014601A8FEF7F4FF40F6483141F2BD02EB
:104C5000019CC0F20101C0F201020020FCF7DAFB66
:104C600007A1002022462346FCF7D4FB40F6313151
:104C7000C0F201010020FCF7CDFB204608B010BDBA
:104C80005B626F6F74416464726573735D2030782A
:104C900025303858202825752900000010B588B027
:104CA000014601A8FEF7DCFF40F6483141F2BD02A3
:104CB000019CC0F20101C0F201020020FCF7AAFB36
:104CC00007A1002022462346FCF7A4FB40F6313121
:104CD000C0F201010020FCF79DFB204608B010BD8A
:104CE0005B6D61696E416464726573735D203078D9
:104CF0002530385820282575290000002DE9F0417D
:104D000096B040F6483141F2BD020446C0F20101BE
:104D1000C0F2010200200025FCF77CFB5FA100200F
:104D2000FCF778FB40F63131C0F201010020FCF7BE
:104D300071FB08A82146FEF77BFF08AB0FCB0DF1F6
:104D40003C0C8CE807000C98CDE91230DDE90D0130
:104D5000CDE9140101A82146FFF7A6F8079801AB99
:104D6000C1B201290ECB08910499CDE909230B9119
:104D7000DDE90512CDE90C120E9055D10FA908AA54
:104D80002046FFF749FC002850D00B980D9912904F
:104D90009DF8380040F6483841F2BD07C0F20108DE
:104DA000C0F2010714918DF85400002041463A46A4
:104DB000FCF730FB40F6EB61C0F201010020FCF78C
:104DC00029FB40F63135C0F2010500202946FCF7E9
:104DD00021FB0FAE314600F09BFE119000204146B2
:104DE0003A46FCF717FB3CA10020FCF713FB002020
:104DF0002946FCF70FFB20463146FEF749FF2046C7
:104E0000FFF756F90446B0FA80F045090020414604
:104E10003A46FCF7FFFA40F6E551C0F2010137A02F
:104E2000002C08BF014611E022A41DE040F64831E5
:104E300041F2BD02C0F20101C0F2010200200025D2
:104E4000FCF7E8FA40F6E551C0F201010020FCF75A
:104E5000E1FA40F63131C0F201010020FCF7DAFA44
:104E600041F29024C0F2010440F6483141F2BD0203
:104E7000C0F20101C0F201020020FCF7CBFA0020D1
:104E80002146FCF7C7FA40F63131C0F2010100209B
:104E9000FCF7C0FA284616B0BDE8F0815B72657376
:104EA000746F7265426F6F745D3E3E207374617201
:104EB000740000005B726573746F7265426F6F748B
:104EC0005D09206170702073746174757320466190
:104ED000696C7572652100005B726573746F726531
:104EE000426F6F745D2075706461746520646573D2
:104EF00020696E746F204D42520000005B72657332
:104F0000746F7265426F6F745D09207375636365BA
:104F1000656421002DE9F04196B040F6483141F238
:104F2000BD020446C0F20101C0F2010200200025CA
:104F3000FCF770FA5FA10020FCF76CFA40F6313103
:104F4000C0F201010020FCF765FA08A82146FEF72F
:104F500087FE08AB0FCB0DF13C0C8CE807000C98DA
:104F6000CDE91230DDE90D01CDE9140101A821469A
:104F7000FEF7AAFF079801ABC1B201290ECB089139
:104F80000499CDE909230B91DDE90512CDE90C1255
:104F90000E9055D10FA908AA2046FFF73DFB002827
:104FA00050D00B980D9912909DF8380040F6483873
:104FB00041F2BD07C0F20108C0F2010714918DF85B
:104FC0005400002041463A46FCF724FA40F6AD6111
:104FD000C0F201010020FCF71DFA40F63135C0F2A5
:104FE000010500202946FCF715FA0FAE314600F006
:104FF0008FFD1190002041463A46FCF70BFA3CA188
:105000000020FCF707FA00202946FCF703FA2046A7
:105010003146FEF757FE2046FFF74AF80446B0FA3D
:1050200080F04509002041463A46FCF7F3F940F686
:105030009E51C0F2010137A0002C08BF014611E0CB
:1050400022A41DE040F6483141F2BD02C0F2010148
:10505000C0F2010200200025FCF7DCF940F69E5169
:10506000C0F201010020FCF7D5F940F63131C0F261
:1050700001010020FCF7CEF941F22124C0F2010425
:1050800040F6483141F2BD02C0F20101C0F2010216
:105090000020FCF7BFF900202146FCF7BBF940F6E1
:1050A0003131C0F201010020FCF7B4F9284616B0F6
:1050B000BDE8F0815B726573746F72654D61696EF6
:1050C0005D3E3E2073746172740000005B72657314
:1050D000746F72654D61696E5D0920617070207337
:1050E0007461747573204661696C75726521000086
:1050F0005B726573746F72654D61696E5D2075706A
:10510000646174652064657320696E746F204D421C
:10511000520000005B726573746F72654D61696E59
:105120005D09207375636365656421002DE9F041B5
:1051300096B040F6483841F2BD06C0F20108C0F210
:1051400001060446002041463246FCF763F979A186
:105150000020FCF75FF940F63137C0F2010700206C
:105160003946FCF757F908A82146FEF761FD08AB60
:105170000FCB0DF13C0C8CE807000C98CDE91230F8
:10518000DDE90D01CDE9140101A82146FEF7D0FEAD
:1051900001AB0FCB0DF1200C8CE807000598CDE991
:1051A0000B30DDE90601CDE90D012046FDF780FF5A
:1051B0000546002041463246FCF72CF9149A63A1BB
:1051C0000020FCF727F900203946FCF723F90020DE
:1051D00041463246FCF71EF90D9A65A10020FCF706
:1051E00019F900203946FCF715F9012D09D1149859
:1051F0000D99884205D940F6FD450024C0F201050D
:105200007DE00FA908AA2046FFF706FA002858D02B
:105210000B980D9940F6483841F2BD0612900220D5
:10522000C0F20108C0F2010614918DF8540000206C
:1052300041463246FCF7EEF840F6CC61C0F201017F
:105240000020FCF7E7F840F63137C0F201070020F4
:105250003946FCF7DFF80FAD294600F059FC1190F4
:10526000002041463246FCF7D5F840F66671C0F2A0
:1052700001010020FCF7CEF800203946FCF7CAF8FF
:1052800020462946FEF704FD2046FEF7CDFC0130FE
:1052900081B22046FEF7F8FC2046FEF709FF0546DE
:1052A000B0FA80F04409002041463246FCF7B2F8DB
:1052B00040F6CD51C0F2010136A0002D08BF0146D5
:1052C0000FE040F6483141F2BD02C0F20101C0F2E8
:1052D000010200200024FCF79DF840F6CD51C0F2F9
:1052E00001010020FCF796F840F63131C0F20101CF
:1052F0000020FCF78FF841F27925C0F2010540F655
:10530000483141F2BD02C0F20101C0F201020020A9
:10531000FCF780F800202946FCF77CF840F6313194
:10532000C0F201010020FCF775F8204616B0BDE878
:10533000F08100BF5B75706772616465426F6F7466
:105340005D3E3E2073746172740000005B7570678F
:1053500072616465426F6F745D3E09204D61696ED4
:105360002076657273696F6E20307825303858006A
:105370005B75706772616465426F6F745D3E092092
:105380004E65772076657273696F6E2030782530B0
:10539000385800005B75706772616465426F6F74A6
:1053A0005D09207375636365656421002DE9F04133
:1053B00096B040F6483841F2BD06C0F20108C0F28E
:1053C00001060446002041463246FCF723F879A145
:1053D0000020FCF71FF840F63137C0F2010700202B
:1053E0003946FCF717F808A82146FEF739FC08AB48
:1053F0000FCB0DF13C0C8CE807000C98CDE9123076
:10540000DDE90D01CDE9140101A82146FEF790FD6B
:1054100001AB0FCB0DF1200C8CE807000598CDE90E
:105420000B30DDE90601CDE90D012046FDF740FE18
:105430000546002041463246FBF7ECFF149A63A173
:105440000020FBF7E7FF00203946FBF7E3FF0020D1
:1054500041463246FBF7DEFF0D9A65A10020FBF7BF
:10546000D9FF00203946FBF7D5FF012D09D114984B
:105470000D99884205D940F6FD450024C0F201058A
:105480007DE00FA908AA2046FFF7C6F8002858D0EB
:105490000B980D9940F6483841F2BD061290022053
:1054A000C0F20108C0F2010614918DF854000020EA
:1054B00041463246FBF7AEFF40F68E61C0F2010175
:1054C0000020FBF7A7FF40F63137C0F201070020AC
:1054D0003946FBF79FFF0FAD294600F019FB1190ED
:1054E000002041463246FBF795FF40F64471C0F27A
:1054F00001010020FBF78EFF00203946FBF78AFFF1
:1055000020462946FEF7DEFB2046FEF7A5FB0130CC
:1055100081B22046FEF7D2FB2046FEF7C9FD0546C4
:10552000B0FA80F04409002041463246FBF772FF92
:1055300040F68651C0F2010136A0002D08BF014699
:105540000FE040F6483141F2BD02C0F20101C0F265
:10555000010200200024FBF75DFF40F68651C0F2F7
:1055600001010020FBF756FF40F63131C0F2010186
:105570000020FBF74FFF41F20A25C0F2010540F67B
:10558000483141F2BD02C0F20101C0F20102002027
:10559000FBF740FF00202946FBF73CFF40F6313186
:1055A000C0F201010020FBF735FF204616B0BDE830
:1055B000F08100BF5B757067726164654D61696EF3
:1055C0005D3E3E2073746172740000005B7570670D
:1055D000726164654D61696E5D3E09204D61696E61
:1055E0002076657273696F6E2030782530385800E8
:1055F0005B757067726164654D61696E5D3E09201F
:105600004E65772076657273696F6E20307825302D
:10561000385800005B757067726164654D61696E32
:105620005D092073756363656564210080B582B090
:1056300090F808C0BCF1000F04D0006801F0FEFA39
:1056400002B080BD40684FF0000ED0F800C0DCF81A
:1056500014C000930023CDF804E0E04702B080BD01
:1056600080B582B0037A23B1006801F003FB02B079
:1056700080BD40684FF0000E0368D3F81CC0009254
:105680000A460023CDF804E0E04702B080BD0000E8
:1056900080B582B090F808C0BCF1000F04D000685B
:1056A00001F000FB02B080BD40684FF0000ED0F862
:1056B00000C0DCF818C000930023CDF804E0E047F8
:1056C00002B080BDB0B50D46097C0446012912D157
:1056D000012020720C2004F0EDF840F24841C2F2A3
:1056E00000010968D5E9002301F000FB206001F00A
:1056F000A3FA2046B0BD00202072282004F0DAF87A
:10570000D5E9001201F052FA0168606089688847A3
:105710002046B0BD10B50446007A38B1206850B1BB
:1057200001F0E8FA04F098F8204610BD606810B166
:10573000016849688847204610BD0000F0B58BB06D
:105740009FED521A0446B4EE410A0027F1EE10FA1A
:1057500007604760876034DABCEEC00A0DF12105AE
:1057600010EE103A4EA228460A21FBF777FA284697
:1057700003F030FF02AE02463046294603F0B2FF86
:1057800048A1304603F0D4FF8268D0E900130792A5
:10579000CDE9051321780760C9074760876005D008
:1057A0002168A06821F0010104F024F805AA07CAC5
:1057B00007C4002105AC8DF81410601C8DF82B1067
:1057C00058E040F28440C0F201009FED312AA0F180
:1057D000080700BF20EE020AB4EE410AF1EE10FA0B
:1057E00007F10407F6DA9FED2B1A48F21F5120EE5D
:1057F000011ABCEEC11A11EE100AC5F2EB11A0FBA2
:10580000011251096422BCEEC00A01FB12060DF11F
:10581000210510EE103A20A228460A210096FBF737
:105820001DFA284603F0D6FE02AE0246304629464F
:1058300003F058FF7968304603F07AFF8268D0E9B8
:1058400000130792CDE9051321780025C9070560EB
:105850004560856005D02168A06821F0010103F052
:10586000C9FF05AA07CA8DF8145007C405AC601C0F
:105870008DF82B500DF12B0103F0A8FE204603F00C
:10588000AFFF02A803F0ACFF0BB0F0BD00008044F6
:105890000000803A0000C84225752E253032750080
:1058A0002575000020420000B0B50D4640F6483195
:1058B00041F2BD020446C0F20101C0F20102002023
:1058C000FBF7A8FD0EA10020FBF7A4FD40F6313147
:1058D000C0F201010020FBF79DFD204600F000F919
:1058E000A84204BF0120B0BD20462946FEF7E2F9D8
:1058F0002046FEF7DDFBB0FA80F04009B0BD00BFE6
:105900005B736574426F6F74537461747573546F15
:105910004D42525D00000000B0B50D4640F64831E2
:1059200041F2BD020446C0F20101C0F201020020B2
:10593000FBF770FD0EA10020FBF76CFD40F6313146
:10594000C0F201010020FBF765FD204600F0CCF815
:10595000A84204BF0120B0BD20462946FEF7C4F985
:105960002046FEF7A5FBB0FA80F04009B0BD00BFAD
:105970005B7365744D61696E537461747573546FB4
:105980004D42525D00000000B0B50D4640F6483172
:1059900041F2BD020446C0F20101C0F20102002042
:1059A000FBF738FD0EA10020FBF734FD40F6313146
:1059B000C0F201010020FBF72DFD204600F098F811
:1059C000A84204BF0120B0BD20462946FEF794F945
:1059D0002046FEF76DFBB0FA80F04009B0BD00BF75
:1059E0005B736574537461727455704D6F64655464
:1059F0006F4D42525D000000F0B58FB040F6483563
:105A000041F2BD06C0F20105C0F2010607460020C2
:105A100029463246FBF7FEFC1EA10020FBF7FAFCEC
:105A200040F63134C0F2010400202146FBF7F2FCBD
:105A300001A83946FEF77CFA01AB0FCB0DF1200C23
:105A40008CE807000598CDE90B30DDE90601CDE9CA
:105A50000D0108A9384600F0A5FC0746002029469C
:105A60003246FBF7D7FC41F6753041F2CF22C0F247
:105A70000100C0F20102002F18BF02460DA1002054
:105A8000FBF7C8FC00202146FBF7C4FC38460FB0EA
:105A9000F0BD00BF5B766572696679496D616765C7
:105AA000446F776E6C6F61645D3E3E20737461720B
:105AB000740000005B766572696679496D6167659F
:105AC000446F776E6C6F61645D3C3C2066696E6903
:105AD00073682C2073746174757320257300000043
